{
  "_format": "hh-sol-artifact-1",
  "contractName": "Voting",
  "sourceName": "contracts/Voting.sol",
  "abi": [
    {
      "inputs": [],
      "stateMutability": "nonpayable",
      "type": "constructor"
    },
    {
      "anonymous": false,
      "inputs": [
        {
          "indexed": true,
          "internalType": "uint256",
          "name": "electionId",
          "type": "uint256"
        },
        {
          "indexed": false,
          "internalType": "uint256",
          "name": "candidateId",
          "type": "uint256"
        },
        {
          "indexed": false,
          "internalType": "string",
          "name": "name",
          "type": "string"
        },
        {
          "indexed": false,
          "internalType": "string",
          "name": "party",
          "type": "string"
        }
      ],
      "name": "CandidateAdded",
      "type": "event"
    },
    {
      "anonymous": false,
      "inputs": [
        {
          "indexed": true,
          "internalType": "uint256",
          "name": "electionId",
          "type": "uint256"
        },
        {
          "indexed": false,
          "internalType": "string",
          "name": "name",
          "type": "string"
        },
        {
          "indexed": false,
          "internalType": "uint256",
          "name": "startTime",
          "type": "uint256"
        },
        {
          "indexed": false,
          "internalType": "uint256",
          "name": "endTime",
          "type": "uint256"
        }
      ],
      "name": "ElectionCreated",
      "type": "event"
    },
    {
      "anonymous": false,
      "inputs": [
        {
          "indexed": true,
          "internalType": "uint256",
          "name": "electionId",
          "type": "uint256"
        },
        {
          "indexed": false,
          "internalType": "bool",
          "name": "isActive",
          "type": "bool"
        }
      ],
      "name": "ElectionStatusChanged",
      "type": "event"
    },
    {
      "anonymous": false,
      "inputs": [
        {
          "indexed": true,
          "internalType": "uint256",
          "name": "electionId",
          "type": "uint256"
        },
        {
          "indexed": true,
          "internalType": "uint256",
          "name": "candidateId",
          "type": "uint256"
        },
        {
          "indexed": true,
          "internalType": "address",
          "name": "voter",
          "type": "address"
        }
      ],
      "name": "Voted",
      "type": "event"
    },
    {
      "inputs": [
        {
          "internalType": "uint256",
          "name": "_electionId",
          "type": "uint256"
        },
        {
          "internalType": "string",
          "name": "_name",
          "type": "string"
        },
        {
          "internalType": "string",
          "name": "_party",
          "type": "string"
        },
        {
          "internalType": "string",
          "name": "_imageUrl",
          "type": "string"
        }
      ],
      "name": "addCandidate",
      "outputs": [],
      "stateMutability": "nonpayable",
      "type": "function"
    },
    {
      "inputs": [],
      "name": "admin",
      "outputs": [
        {
          "internalType": "address",
          "name": "",
          "type": "address"
        }
      ],
      "stateMutability": "view",
      "type": "function"
    },
    {
      "inputs": [
        {
          "internalType": "uint256",
          "name": "",
          "type": "uint256"
        },
        {
          "internalType": "uint256",
          "name": "",
          "type": "uint256"
        }
      ],
      "name": "candidates",
      "outputs": [
        {
          "internalType": "uint256",
          "name": "id",
          "type": "uint256"
        },
        {
          "internalType": "string",
          "name": "name",
          "type": "string"
        },
        {
          "internalType": "string",
          "name": "party",
          "type": "string"
        },
        {
          "internalType": "string",
          "name": "imageUrl",
          "type": "string"
        },
        {
          "internalType": "uint256",
          "name": "voteCount",
          "type": "uint256"
        }
      ],
      "stateMutability": "view",
      "type": "function"
    },
    {
      "inputs": [
        {
          "internalType": "string",
          "name": "_name",
          "type": "string"
        },
        {
          "internalType": "string",
          "name": "_description",
          "type": "string"
        },
        {
          "internalType": "uint256",
          "name": "_startTime",
          "type": "uint256"
        },
        {
          "internalType": "uint256",
          "name": "_endTime",
          "type": "uint256"
        }
      ],
      "name": "createElection",
      "outputs": [
        {
          "internalType": "uint256",
          "name": "",
          "type": "uint256"
        }
      ],
      "stateMutability": "nonpayable",
      "type": "function"
    },
    {
      "inputs": [],
      "name": "electionCount",
      "outputs": [
        {
          "internalType": "uint256",
          "name": "",
          "type": "uint256"
        }
      ],
      "stateMutability": "view",
      "type": "function"
    },
    {
      "inputs": [
        {
          "internalType": "uint256",
          "name": "",
          "type": "uint256"
        }
      ],
      "name": "elections",
      "outputs": [
        {
          "internalType": "uint256",
          "name": "id",
          "type": "uint256"
        },
        {
          "internalType": "string",
          "name": "name",
          "type": "string"
        },
        {
          "internalType": "string",
          "name": "description",
          "type": "string"
        },
        {
          "internalType": "uint256",
          "name": "startTime",
          "type": "uint256"
        },
        {
          "internalType": "uint256",
          "name": "endTime",
          "type": "uint256"
        },
        {
          "internalType": "bool",
          "name": "isActive",
          "type": "bool"
        },
        {
          "internalType": "uint256",
          "name": "candidateCount",
          "type": "uint256"
        },
        {
          "internalType": "uint256",
          "name": "totalVotes",
          "type": "uint256"
        }
      ],
      "stateMutability": "view",
      "type": "function"
    },
    {
      "inputs": [
        {
          "internalType": "uint256",
          "name": "_electionId",
          "type": "uint256"
        }
      ],
      "name": "getAllCandidates",
      "outputs": [
        {
          "components": [
            {
              "internalType": "uint256",
              "name": "id",
              "type": "uint256"
            },
            {
              "internalType": "string",
              "name": "name",
              "type": "string"
            },
            {
              "internalType": "string",
              "name": "party",
              "type": "string"
            },
            {
              "internalType": "string",
              "name": "imageUrl",
              "type": "string"
            },
            {
              "internalType": "uint256",
              "name": "voteCount",
              "type": "uint256"
            }
          ],
          "internalType": "struct Voting.Candidate[]",
          "name": "",
          "type": "tuple[]"
        }
      ],
      "stateMutability": "view",
      "type": "function"
    },
    {
      "inputs": [
        {
          "internalType": "uint256",
          "name": "_electionId",
          "type": "uint256"
        },
        {
          "internalType": "uint256",
          "name": "_candidateId",
          "type": "uint256"
        }
      ],
      "name": "getCandidate",
      "outputs": [
        {
          "internalType": "uint256",
          "name": "id",
          "type": "uint256"
        },
        {
          "internalType": "string",
          "name": "name",
          "type": "string"
        },
        {
          "internalType": "string",
          "name": "party",
          "type": "string"
        },
        {
          "internalType": "string",
          "name": "imageUrl",
          "type": "string"
        },
        {
          "internalType": "uint256",
          "name": "voteCount",
          "type": "uint256"
        }
      ],
      "stateMutability": "view",
      "type": "function"
    },
    {
      "inputs": [
        {
          "internalType": "uint256",
          "name": "_electionId",
          "type": "uint256"
        }
      ],
      "name": "getElection",
      "outputs": [
        {
          "internalType": "uint256",
          "name": "id",
          "type": "uint256"
        },
        {
          "internalType": "string",
          "name": "name",
          "type": "string"
        },
        {
          "internalType": "string",
          "name": "description",
          "type": "string"
        },
        {
          "internalType": "uint256",
          "name": "startTime",
          "type": "uint256"
        },
        {
          "internalType": "uint256",
          "name": "endTime",
          "type": "uint256"
        },
        {
          "internalType": "bool",
          "name": "isActive",
          "type": "bool"
        },
        {
          "internalType": "uint256",
          "name": "candidateCount",
          "type": "uint256"
        },
        {
          "internalType": "uint256",
          "name": "totalVotes",
          "type": "uint256"
        }
      ],
      "stateMutability": "view",
      "type": "function"
    },
    {
      "inputs": [
        {
          "internalType": "uint256",
          "name": "_electionId",
          "type": "uint256"
        }
      ],
      "name": "getElectionResults",
      "outputs": [
        {
          "internalType": "uint256[]",
          "name": "",
          "type": "uint256[]"
        }
      ],
      "stateMutability": "view",
      "type": "function"
    },
    {
      "inputs": [
        {
          "internalType": "uint256",
          "name": "_electionId",
          "type": "uint256"
        },
        {
          "internalType": "address",
          "name": "_voter",
          "type": "address"
        }
      ],
      "name": "getVoterChoice",
      "outputs": [
        {
          "internalType": "uint256",
          "name": "",
          "type": "uint256"
        }
      ],
      "stateMutability": "view",
      "type": "function"
    },
    {
      "inputs": [
        {
          "internalType": "uint256",
          "name": "",
          "type": "uint256"
        },
        {
          "internalType": "address",
          "name": "",
          "type": "address"
        }
      ],
      "name": "hasVoted",
      "outputs": [
        {
          "internalType": "bool",
          "name": "",
          "type": "bool"
        }
      ],
      "stateMutability": "view",
      "type": "function"
    },
    {
      "inputs": [
        {
          "internalType": "uint256",
          "name": "_electionId",
          "type": "uint256"
        },
        {
          "internalType": "address",
          "name": "_voter",
          "type": "address"
        }
      ],
      "name": "hasVotedInElection",
      "outputs": [
        {
          "internalType": "bool",
          "name": "",
          "type": "bool"
        }
      ],
      "stateMutability": "view",
      "type": "function"
    },
    {
      "inputs": [
        {
          "internalType": "uint256",
          "name": "_electionId",
          "type": "uint256"
        },
        {
          "internalType": "bool",
          "name": "_isActive",
          "type": "bool"
        }
      ],
      "name": "setElectionStatus",
      "outputs": [],
      "stateMutability": "nonpayable",
      "type": "function"
    },
    {
      "inputs": [
        {
          "internalType": "uint256",
          "name": "_electionId",
          "type": "uint256"
        },
        {
          "internalType": "uint256",
          "name": "_candidateId",
          "type": "uint256"
        }
      ],
      "name": "vote",
      "outputs": [],
      "stateMutability": "nonpayable",
      "type": "function"
    },
    {
      "inputs": [
        {
          "internalType": "uint256",
          "name": "",
          "type": "uint256"
        },
        {
          "internalType": "address",
          "name": "",
          "type": "address"
        }
      ],
      "name": "voterChoice",
      "outputs": [
        {
          "internalType": "uint256",
          "name": "",
          "type": "uint256"
        }
      ],
      "stateMutability": "view",
      "type": "function"
    }
  ],
  "bytecode": "0x6080604052348015600f57600080fd5b50600580546001600160a01b03191633179055611d28806100316000396000f3fe608060405234801561001057600080fd5b50600436106101005760003560e01c8063997d283011610097578063d5617ecf11610066578063d5617ecf1461025c578063e8ededa61461026f578063f851a4401461028f578063f9ded646146102ba57600080fd5b8063997d2830146102185780639d71077714610221578063b384abef14610234578063ce4a27431461024957600080fd5b80635bc261fa116100d35780635bc261fa146101b85780635e6fef01146101cb5780637ad36e84146101f25780637de142421461020557600080fd5b80630eac27f414610105578063438596321461012b5780634bd4644814610169578063514771411461018d575b600080fd5b610118610113366004611633565b6102da565b6040519081526020015b60405180910390f35b610159610139366004611633565b600260209081526000928352604080842090915290825290205460ff1681565b6040519015158152602001610122565b61017c61017736600461166f565b6103b0565b6040516101229594939291906116d7565b61011861019b366004611633565b600360209081526000928352604080842090915290825290205481565b6101596101c6366004611633565b6105fe565b6101de6101d9366004611729565b61065c565b604051610122989796959493929190611742565b610118610200366004611840565b6107b1565b61017c61021336600461166f565b61092f565b61011860045481565b6101de61022f366004611729565b610afd565b61024761024236600461166f565b610d11565b005b6102476102573660046118b9565b610fd8565b61024761026a366004611957565b611199565b61028261027d366004611729565b61124b565b6040516101229190611981565b6005546102a2906001600160a01b031681565b6040516001600160a01b039091168152602001610122565b6102cd6102c8366004611729565b611341565b60405161012291906119c4565b6000826000811180156102ef57506004548111155b6103145760405162461bcd60e51b815260040161030b90611a7f565b60405180910390fd5b60008481526002602090815260408083206001600160a01b038716845290915290205460ff166103865760405162461bcd60e51b815260206004820152601760248201527f566f74657220686173206e6f7420766f74656420796574000000000000000000604482015260640161030b565b505060009182526003602090815260408084206001600160a01b0393909316845291905290205490565b600060608060606000866000811180156103cc57506004548111155b6103e85760405162461bcd60e51b815260040161030b90611a7f565b60008881526001602081815260408084208b85528252808420815160a0810190925280548252928301805491939284019161042290611ab6565b80601f016020809104026020016040519081016040528092919081815260200182805461044e90611ab6565b801561049b5780601f106104705761010080835404028352916020019161049b565b820191906000526020600020905b81548152906001019060200180831161047e57829003601f168201915b505050505081526020016002820180546104b490611ab6565b80601f01602080910402602001604051908101604052809291908181526020018280546104e090611ab6565b801561052d5780601f106105025761010080835404028352916020019161052d565b820191906000526020600020905b81548152906001019060200180831161051057829003601f168201915b5050505050815260200160038201805461054690611ab6565b80601f016020809104026020016040519081016040528092919081815260200182805461057290611ab6565b80156105bf5780601f10610594576101008083540402835291602001916105bf565b820191906000526020600020905b8154815290600101906020018083116105a257829003601f168201915b50505091835250506004919091015460209182015281519082015160408301516060840151608090940151929d919c509a509198509650945050505050565b60008260008111801561061357506004548111155b61062f5760405162461bcd60e51b815260040161030b90611a7f565b505060009182526002602090815260408084206001600160a01b0393909316845291905290205460ff1690565b6000602081905290815260409020805460018201805491929161067e90611ab6565b80601f01602080910402602001604051908101604052809291908181526020018280546106aa90611ab6565b80156106f75780601f106106cc576101008083540402835291602001916106f7565b820191906000526020600020905b8154815290600101906020018083116106da57829003601f168201915b50505050509080600201805461070c90611ab6565b80601f016020809104026020016040519081016040528092919081815260200182805461073890611ab6565b80156107855780601f1061075a57610100808354040283529160200191610785565b820191906000526020600020905b81548152906001019060200180831161076857829003601f168201915b50505060038401546004850154600586015460068701546007909701549596929591945060ff16925088565b6005546000906001600160a01b031633146107de5760405162461bcd60e51b815260040161030b90611aea565b8183106108225760405162461bcd60e51b8152602060048201526012602482015271496e76616c69642074696d652072616e676560701b604482015260640161030b565b428310156108725760405162461bcd60e51b815260206004820181905260248201527f53746172742074696d65206d75737420626520696e2074686520667574757265604482015260640161030b565b6004805490600061088283611b42565b90915550506004546000818152602081905260409020908155600181016108a98782611baa565b50600281016108b88682611baa565b5060038101849055600480820184905560058201805460ff191660011790556000600683018190556007830155546040517fe7a0aae5d733e07e246dea86213a1ac1b0aa8554bde889bb75c12752f44e53d99061091a90899088908890611c69565b60405180910390a25050600454949350505050565b600160208181526000938452604080852090915291835291208054918101805461095890611ab6565b80601f016020809104026020016040519081016040528092919081815260200182805461098490611ab6565b80156109d15780601f106109a6576101008083540402835291602001916109d1565b820191906000526020600020905b8154815290600101906020018083116109b457829003601f168201915b5050505050908060020180546109e690611ab6565b80601f0160208091040260200160405190810160405280929190818152602001828054610a1290611ab6565b8015610a5f5780601f10610a3457610100808354040283529160200191610a5f565b820191906000526020600020905b815481529060010190602001808311610a4257829003601f168201915b505050505090806003018054610a7490611ab6565b80601f0160208091040260200160405190810160405280929190818152602001828054610aa090611ab6565b8015610aed5780601f10610ac257610100808354040283529160200191610aed565b820191906000526020600020905b815481529060010190602001808311610ad057829003601f168201915b5050505050908060040154905085565b6000606080600080600080600088600081118015610b1d57506004548111155b610b395760405162461bcd60e51b815260040161030b90611a7f565b60008060008c81526020019081526020016000206040518061010001604052908160008201548152602001600182018054610b7390611ab6565b80601f0160208091040260200160405190810160405280929190818152602001828054610b9f90611ab6565b8015610bec5780601f10610bc157610100808354040283529160200191610bec565b820191906000526020600020905b815481529060010190602001808311610bcf57829003601f168201915b50505050508152602001600282018054610c0590611ab6565b80601f0160208091040260200160405190810160405280929190818152602001828054610c3190611ab6565b8015610c7e5780601f10610c5357610100808354040283529160200191610c7e565b820191906000526020600020905b815481529060010190602001808311610c6157829003601f168201915b5050505050815260200160038201548152602001600482015481526020016005820160009054906101000a900460ff16151515158152602001600682015481526020016007820154815250509050806000015181602001518260400151836060015184608001518560a001518660c001518760e00151995099509950995099509950995099505050919395975091939597565b81600081118015610d2457506004548111155b610d405760405162461bcd60e51b815260040161030b90611a7f565b600083815260208190526040902060050154839060ff16610d9c5760405162461bcd60e51b8152602060048201526016602482015275456c656374696f6e206973206e6f742061637469766560501b604482015260640161030b565b600081815260208190526040902060030154421015610dfd5760405162461bcd60e51b815260206004820152601860248201527f456c656374696f6e20686173206e6f7420737461727465640000000000000000604482015260640161030b565b600081815260208190526040902060040154421115610e535760405162461bcd60e51b8152602060048201526012602482015271115b1958dd1a5bdb881a185cc8195b99195960721b604482015260640161030b565b600084815260026020908152604080832033845290915290205460ff1615610ebd5760405162461bcd60e51b815260206004820152601e60248201527f416c726561647920766f74656420696e207468697320656c656374696f6e0000604482015260640161030b565b600083118015610ede57506000848152602081905260409020600601548311155b610f1e5760405162461bcd60e51b8152602060048201526011602482015270496e76616c69642063616e64696461746560781b604482015260640161030b565b600084815260026020908152604080832033808552908352818420805460ff191660019081179091558885526003845282852091855290835281842087905587845282528083208684529091528120600401805491610f7c83611b42565b90915550506000848152602081905260408120600701805491610f9e83611b42565b90915550506040513390849086907fd91ecafccf238642dccd41161308b3eebe62a12bc5819daf5164780c221ec95b90600090a450505050565b6005546001600160a01b031633146110025760405162461bcd60e51b815260040161030b90611aea565b8360008111801561101557506004548111155b6110315760405162461bcd60e51b815260040161030b90611a7f565b6000858152602081905260409020600381015442106110a65760405162461bcd60e51b815260206004820152602b60248201527f43616e6e6f74206164642063616e6469646174657320616674657220656c656360448201526a74696f6e2073746172747360a81b606482015260840161030b565b6006810180549060006110b883611b42565b90915550506040805160a08101825260068301548082526020808301898152838501899052606084018890526000608085018190528b8152600180845286822094825293909252939020825181559251919291908201906111199082611baa565b506040820151600282019061112e9082611baa565b50606082015160038201906111439082611baa565b5060808201518160040155905050857f503cfceb0fb2178c5fb47ff394c816e4075abc8066c3dcb16d08a76847ee6e168260060154878760405161118993929190611c8e565b60405180910390a2505050505050565b6005546001600160a01b031633146111c35760405162461bcd60e51b815260040161030b90611aea565b816000811180156111d657506004548111155b6111f25760405162461bcd60e51b815260040161030b90611a7f565b60008381526020818152604091829020600501805460ff1916851515908117909155915191825284917f550243ff1a84cc99f7f82bfd2e29380f33523ca72cde0783141c25ed8f4dede3910160405180910390a2505050565b60608160008111801561126057506004548111155b61127c5760405162461bcd60e51b815260040161030b90611a7f565b600083815260208190526040812060060154908167ffffffffffffffff8111156112a8576112a861179b565b6040519080825280602002602001820160405280156112d1578160200160208202803683370190505b50905060015b828111611336576000868152600160208181526040808420858552909152909120600401549083906113099084611cc3565b8151811061131957611319611cdc565b60209081029190910101528061132e81611b42565b9150506112d7565b509250505b50919050565b60608160008111801561135657506004548111155b6113725760405162461bcd60e51b815260040161030b90611a7f565b600083815260208190526040812060060154908167ffffffffffffffff81111561139e5761139e61179b565b60405190808252806020026020018201604052801561140157816020015b6113ee6040518060a0016040528060008152602001606081526020016060815260200160608152602001600081525090565b8152602001906001900390816113bc5790505b50905060015b828111611336576000868152600160208181526040808420858552825292839020835160a081019094528054845291820180549184019161144790611ab6565b80601f016020809104026020016040519081016040528092919081815260200182805461147390611ab6565b80156114c05780601f10611495576101008083540402835291602001916114c0565b820191906000526020600020905b8154815290600101906020018083116114a357829003601f168201915b505050505081526020016002820180546114d990611ab6565b80601f016020809104026020016040519081016040528092919081815260200182805461150590611ab6565b80156115525780601f1061152757610100808354040283529160200191611552565b820191906000526020600020905b81548152906001019060200180831161153557829003601f168201915b5050505050815260200160038201805461156b90611ab6565b80601f016020809104026020016040519081016040528092919081815260200182805461159790611ab6565b80156115e45780601f106115b9576101008083540402835291602001916115e4565b820191906000526020600020905b8154815290600101906020018083116115c757829003601f168201915b50505050508152602001600482015481525050826001836116059190611cc3565b8151811061161557611615611cdc565b6020026020010181905250808061162b90611b42565b915050611407565b6000806040838503121561164657600080fd5b8235915060208301356001600160a01b038116811461166457600080fd5b809150509250929050565b6000806040838503121561168257600080fd5b50508035926020909101359150565b6000815180845260005b818110156116b75760208185018101518683018201520161169b565b506000602082860101526020601f19601f83011685010191505092915050565b85815260a0602082015260006116f060a0830187611691565b82810360408401526117028187611691565b905082810360608401526117168186611691565b9150508260808301529695505050505050565b60006020828403121561173b57600080fd5b5035919050565b8881526101006020820152600061175d61010083018a611691565b828103604084015261176f818a611691565b60608401989098525050608081019490945291151560a084015260c083015260e0909101529392505050565b634e487b7160e01b600052604160045260246000fd5b600082601f8301126117c257600080fd5b813567ffffffffffffffff8111156117dc576117dc61179b565b604051601f8201601f19908116603f0116810167ffffffffffffffff8111828210171561180b5761180b61179b565b60405281815283820160200185101561182357600080fd5b816020850160208301376000918101602001919091529392505050565b6000806000806080858703121561185657600080fd5b843567ffffffffffffffff81111561186d57600080fd5b611879878288016117b1565b945050602085013567ffffffffffffffff81111561189657600080fd5b6118a2878288016117b1565b949794965050505060408301359260600135919050565b600080600080608085870312156118cf57600080fd5b84359350602085013567ffffffffffffffff8111156118ed57600080fd5b6118f9878288016117b1565b935050604085013567ffffffffffffffff81111561191657600080fd5b611922878288016117b1565b925050606085013567ffffffffffffffff81111561193f57600080fd5b61194b878288016117b1565b91505092959194509250565b6000806040838503121561196a57600080fd5b823591506020830135801515811461166457600080fd5b602080825282518282018190526000918401906040840190835b818110156119b957835183526020938401939092019160010161199b565b509095945050505050565b6000602082016020835280845180835260408501915060408160051b86010192506020860160005b82811015611a7357603f19878603018452815180518652602081015160a06020880152611a1c60a0880182611691565b905060408201518782036040890152611a358282611691565b91505060608201518782036060890152611a4f8282611691565b608093840151989093019790975250945060209384019391909101906001016119ec565b50929695505050505050565b60208082526017908201527f456c656374696f6e20646f6573206e6f74206578697374000000000000000000604082015260600190565b600181811c90821680611aca57607f821691505b60208210810361133b57634e487b7160e01b600052602260045260246000fd5b60208082526022908201527f4f6e6c792061646d696e2063616e20706572666f726d2074686973206163746960408201526137b760f11b606082015260800190565b634e487b7160e01b600052601160045260246000fd5b600060018201611b5457611b54611b2c565b5060010190565b601f821115611ba557806000526020600020601f840160051c81016020851015611b825750805b601f840160051c820191505b81811015611ba25760008155600101611b8e565b50505b505050565b815167ffffffffffffffff811115611bc457611bc461179b565b611bd881611bd28454611ab6565b84611b5b565b6020601f821160018114611c0c5760008315611bf45750848201515b600019600385901b1c1916600184901b178455611ba2565b600084815260208120601f198516915b82811015611c3c5787850151825560209485019460019092019101611c1c565b5084821015611c5a5786840151600019600387901b60f8161c191681555b50505050600190811b01905550565b606081526000611c7c6060830186611691565b60208301949094525060400152919050565b838152606060208201526000611ca76060830185611691565b8281036040840152611cb98185611691565b9695505050505050565b81810381811115611cd657611cd6611b2c565b92915050565b634e487b7160e01b600052603260045260246000fdfea2646970667358221220e9343cff40fd3905cc5d1c02f0740d247b68233bc9fd7e7ed1ebcfc0ad2888ea64736f6c634300081c0033",
  "linkReferences": {},
  "deployedLinkReferences": {}
}