{
  "abi": [
    {
      "inputs": [],
      "stateMutability": "nonpayable",
      "type": "constructor"
    },
    {
      "anonymous": false,
      "inputs": [
        {
          "indexed": true,
          "internalType": "uint256",
          "name": "electionId",
          "type": "uint256"
        },
        {
          "indexed": false,
          "internalType": "uint256",
          "name": "candidateId",
          "type": "uint256"
        },
        {
          "indexed": false,
          "internalType": "string",
          "name": "name",
          "type": "string"
        },
        {
          "indexed": false,
          "internalType": "string",
          "name": "party",
          "type": "string"
        }
      ],
      "name": "CandidateAdded",
      "type": "event"
    },
    {
      "anonymous": false,
      "inputs": [
        {
          "indexed": true,
          "internalType": "uint256",
          "name": "electionId",
          "type": "uint256"
        },
        {
          "indexed": false,
          "internalType": "string",
          "name": "name",
          "type": "string"
        },
        {
          "indexed": false,
          "internalType": "uint256",
          "name": "startTime",
          "type": "uint256"
        },
        {
          "indexed": false,
          "internalType": "uint256",
          "name": "endTime",
          "type": "uint256"
        }
      ],
      "name": "ElectionCreated",
      "type": "event"
    },
    {
      "anonymous": false,
      "inputs": [
        {
          "indexed": true,
          "internalType": "uint256",
          "name": "electionId",
          "type": "uint256"
        },
        {
          "indexed": false,
          "internalType": "bool",
          "name": "isActive",
          "type": "bool"
        }
      ],
      "name": "ElectionStatusChanged",
      "type": "event"
    },
    {
      "anonymous": false,
      "inputs": [
        {
          "indexed": true,
          "internalType": "uint256",
          "name": "electionId",
          "type": "uint256"
        },
        {
          "indexed": true,
          "internalType": "uint256",
          "name": "candidateId",
          "type": "uint256"
        },
        {
          "indexed": true,
          "internalType": "address",
          "name": "voter",
          "type": "address"
        }
      ],
      "name": "Voted",
      "type": "event"
    },
    {
      "anonymous": false,
      "inputs": [
        {
          "indexed": true,
          "internalType": "uint256",
          "name": "electionId",
          "type": "uint256"
        },
        {
          "indexed": true,
          "internalType": "uint256",
          "name": "candidateId",
          "type": "uint256"
        },
        {
          "indexed": true,
          "internalType": "address",
          "name": "voter",
          "type": "address"
        },
        {
          "indexed": false,
          "internalType": "address",
          "name": "submittedBy",
          "type": "address"
        }
      ],
      "name": "VotedFor",
      "type": "event"
    },
    {
      "inputs": [
        {
          "internalType": "uint256",
          "name": "_electionId",
          "type": "uint256"
        },
        {
          "internalType": "string",
          "name": "_name",
          "type": "string"
        },
        {
          "internalType": "string",
          "name": "_party",
          "type": "string"
        },
        {
          "internalType": "string",
          "name": "_imageUrl",
          "type": "string"
        }
      ],
      "name": "addCandidate",
      "outputs": [],
      "stateMutability": "nonpayable",
      "type": "function"
    },
    {
      "inputs": [],
      "name": "admin",
      "outputs": [
        {
          "internalType": "address",
          "name": "",
          "type": "address"
        }
      ],
      "stateMutability": "view",
      "type": "function"
    },
    {
      "inputs": [
        {
          "internalType": "uint256",
          "name": "",
          "type": "uint256"
        },
        {
          "internalType": "uint256",
          "name": "",
          "type": "uint256"
        }
      ],
      "name": "candidates",
      "outputs": [
        {
          "internalType": "uint256",
          "name": "id",
          "type": "uint256"
        },
        {
          "internalType": "string",
          "name": "name",
          "type": "string"
        },
        {
          "internalType": "string",
          "name": "party",
          "type": "string"
        },
        {
          "internalType": "string",
          "name": "imageUrl",
          "type": "string"
        },
        {
          "internalType": "uint256",
          "name": "voteCount",
          "type": "uint256"
        }
      ],
      "stateMutability": "view",
      "type": "function"
    },
    {
      "inputs": [
        {
          "internalType": "string",
          "name": "_name",
          "type": "string"
        },
        {
          "internalType": "string",
          "name": "_description",
          "type": "string"
        },
        {
          "internalType": "uint256",
          "name": "_startTime",
          "type": "uint256"
        },
        {
          "internalType": "uint256",
          "name": "_endTime",
          "type": "uint256"
        }
      ],
      "name": "createElection",
      "outputs": [
        {
          "internalType": "uint256",
          "name": "",
          "type": "uint256"
        }
      ],
      "stateMutability": "nonpayable",
      "type": "function"
    },
    {
      "inputs": [],
      "name": "electionCount",
      "outputs": [
        {
          "internalType": "uint256",
          "name": "",
          "type": "uint256"
        }
      ],
      "stateMutability": "view",
      "type": "function"
    },
    {
      "inputs": [
        {
          "internalType": "uint256",
          "name": "",
          "type": "uint256"
        }
      ],
      "name": "elections",
      "outputs": [
        {
          "internalType": "uint256",
          "name": "id",
          "type": "uint256"
        },
        {
          "internalType": "string",
          "name": "name",
          "type": "string"
        },
        {
          "internalType": "string",
          "name": "description",
          "type": "string"
        },
        {
          "internalType": "uint256",
          "name": "startTime",
          "type": "uint256"
        },
        {
          "internalType": "uint256",
          "name": "endTime",
          "type": "uint256"
        },
        {
          "internalType": "bool",
          "name": "isActive",
          "type": "bool"
        },
        {
          "internalType": "uint256",
          "name": "candidateCount",
          "type": "uint256"
        },
        {
          "internalType": "uint256",
          "name": "totalVotes",
          "type": "uint256"
        }
      ],
      "stateMutability": "view",
      "type": "function"
    },
    {
      "inputs": [
        {
          "internalType": "uint256",
          "name": "_electionId",
          "type": "uint256"
        }
      ],
      "name": "getAllCandidates",
      "outputs": [
        {
          "components": [
            {
              "internalType": "uint256",
              "name": "id",
              "type": "uint256"
            },
            {
              "internalType": "string",
              "name": "name",
              "type": "string"
            },
            {
              "internalType": "string",
              "name": "party",
              "type": "string"
            },
            {
              "internalType": "string",
              "name": "imageUrl",
              "type": "string"
            },
            {
              "internalType": "uint256",
              "name": "voteCount",
              "type": "uint256"
            }
          ],
          "internalType": "struct Voting.Candidate[]",
          "name": "",
          "type": "tuple[]"
        }
      ],
      "stateMutability": "view",
      "type": "function"
    },
    {
      "inputs": [
        {
          "internalType": "uint256",
          "name": "_electionId",
          "type": "uint256"
        },
        {
          "internalType": "uint256",
          "name": "_candidateId",
          "type": "uint256"
        }
      ],
      "name": "getCandidate",
      "outputs": [
        {
          "internalType": "uint256",
          "name": "id",
          "type": "uint256"
        },
        {
          "internalType": "string",
          "name": "name",
          "type": "string"
        },
        {
          "internalType": "string",
          "name": "party",
          "type": "string"
        },
        {
          "internalType": "string",
          "name": "imageUrl",
          "type": "string"
        },
        {
          "internalType": "uint256",
          "name": "voteCount",
          "type": "uint256"
        }
      ],
      "stateMutability": "view",
      "type": "function"
    },
    {
      "inputs": [
        {
          "internalType": "uint256",
          "name": "_electionId",
          "type": "uint256"
        }
      ],
      "name": "getElection",
      "outputs": [
        {
          "internalType": "uint256",
          "name": "id",
          "type": "uint256"
        },
        {
          "internalType": "string",
          "name": "name",
          "type": "string"
        },
        {
          "internalType": "string",
          "name": "description",
          "type": "string"
        },
        {
          "internalType": "uint256",
          "name": "startTime",
          "type": "uint256"
        },
        {
          "internalType": "uint256",
          "name": "endTime",
          "type": "uint256"
        },
        {
          "internalType": "bool",
          "name": "isActive",
          "type": "bool"
        },
        {
          "internalType": "uint256",
          "name": "candidateCount",
          "type": "uint256"
        },
        {
          "internalType": "uint256",
          "name": "totalVotes",
          "type": "uint256"
        }
      ],
      "stateMutability": "view",
      "type": "function"
    },
    {
      "inputs": [
        {
          "internalType": "uint256",
          "name": "_electionId",
          "type": "uint256"
        }
      ],
      "name": "getElectionResults",
      "outputs": [
        {
          "internalType": "uint256[]",
          "name": "",
          "type": "uint256[]"
        }
      ],
      "stateMutability": "view",
      "type": "function"
    },
    {
      "inputs": [
        {
          "internalType": "uint256",
          "name": "_electionId",
          "type": "uint256"
        },
        {
          "internalType": "address",
          "name": "_voter",
          "type": "address"
        }
      ],
      "name": "getVoterChoice",
      "outputs": [
        {
          "internalType": "uint256",
          "name": "",
          "type": "uint256"
        }
      ],
      "stateMutability": "view",
      "type": "function"
    },
    {
      "inputs": [
        {
          "internalType": "uint256",
          "name": "",
          "type": "uint256"
        },
        {
          "internalType": "address",
          "name": "",
          "type": "address"
        }
      ],
      "name": "hasVoted",
      "outputs": [
        {
          "internalType": "bool",
          "name": "",
          "type": "bool"
        }
      ],
      "stateMutability": "view",
      "type": "function"
    },
    {
      "inputs": [
        {
          "internalType": "uint256",
          "name": "_electionId",
          "type": "uint256"
        },
        {
          "internalType": "address",
          "name": "_voter",
          "type": "address"
        }
      ],
      "name": "hasVotedInElection",
      "outputs": [
        {
          "internalType": "bool",
          "name": "",
          "type": "bool"
        }
      ],
      "stateMutability": "view",
      "type": "function"
    },
    {
      "inputs": [
        {
          "internalType": "uint256",
          "name": "_electionId",
          "type": "uint256"
        },
        {
          "internalType": "bool",
          "name": "_isActive",
          "type": "bool"
        }
      ],
      "name": "setElectionStatus",
      "outputs": [],
      "stateMutability": "nonpayable",
      "type": "function"
    },
    {
      "inputs": [
        {
          "internalType": "uint256",
          "name": "_electionId",
          "type": "uint256"
        },
        {
          "internalType": "uint256",
          "name": "_candidateId",
          "type": "uint256"
        }
      ],
      "name": "vote",
      "outputs": [],
      "stateMutability": "nonpayable",
      "type": "function"
    },
    {
      "inputs": [
        {
          "internalType": "uint256",
          "name": "_electionId",
          "type": "uint256"
        },
        {
          "internalType": "uint256",
          "name": "_candidateId",
          "type": "uint256"
        },
        {
          "internalType": "address",
          "name": "_voter",
          "type": "address"
        }
      ],
      "name": "voteFor",
      "outputs": [],
      "stateMutability": "nonpayable",
      "type": "function"
    },
    {
      "inputs": [
        {
          "internalType": "uint256",
          "name": "",
          "type": "uint256"
        },
        {
          "internalType": "address",
          "name": "",
          "type": "address"
        }
      ],
      "name": "voterChoice",
      "outputs": [
        {
          "internalType": "uint256",
          "name": "",
          "type": "uint256"
        }
      ],
      "stateMutability": "view",
      "type": "function"
    }
  ],
  "devdoc": {
    "details": "Smart contract untuk sistem voting terdesentralisasi dengan multiple elections",
    "kind": "dev",
    "methods": {
      "addCandidate(uint256,string,string,string)": {
        "details": "Menambahkan kandidat ke election"
      },
      "createElection(string,string,uint256,uint256)": {
        "details": "Membuat election baru"
      },
      "getAllCandidates(uint256)": {
        "details": "Mendapatkan semua kandidat dalam election"
      },
      "getCandidate(uint256,uint256)": {
        "details": "Mendapatkan detail kandidat"
      },
      "getElection(uint256)": {
        "details": "Mendapatkan detail election"
      },
      "getElectionResults(uint256)": {
        "details": "Mendapatkan hasil election (vote counts untuk semua kandidat)"
      },
      "getVoterChoice(uint256,address)": {
        "details": "Mendapatkan pilihan voter"
      },
      "hasVotedInElection(uint256,address)": {
        "details": "Cek apakah voter sudah voting di election tertentu"
      },
      "setElectionStatus(uint256,bool)": {
        "details": "Mengubah status election (active/inactive)"
      },
      "vote(uint256,uint256)": {
        "details": "Melakukan voting langsung (voter membayar gas sendiri)"
      },
      "voteFor(uint256,uint256,address)": {
        "details": "Melakukan voting atas nama voter (admin membayar gas) Ini memungkinkan gasless voting dimana admin submit transaksi atas nama user"
      }
    },
    "title": "Voting",
    "version": 1
  },
  "evm": {
    "assembly": "    /* \"Voting.sol\":177:9432  contract Voting {... */\n  mstore(0x40, 0x80)\n    /* \"Voting.sol\":2312:2363  constructor() {... */\n  callvalue\n  dup1\n  iszero\n  tag_1\n  jumpi\n  0x00\n  dup1\n  revert\ntag_1:\n  pop\n    /* \"Voting.sol\":2337:2342  admin */\n  0x05\n    /* \"Voting.sol\":2337:2355  admin = msg.sender */\n  dup1\n  sload\n  not(sub(shl(0xa0, 0x01), 0x01))\n  and\n    /* \"Voting.sol\":2345:2355  msg.sender */\n  caller\n    /* \"Voting.sol\":2337:2355  admin = msg.sender */\n  or\n  swap1\n  sstore\n    /* \"Voting.sol\":177:9432  contract Voting {... */\n  dataSize(sub_0)\n  dup1\n  dataOffset(sub_0)\n  0x00\n  codecopy\n  0x00\n  return\nstop\n\nsub_0: assembly {\n        /* \"Voting.sol\":177:9432  contract Voting {... */\n      mstore(0x40, 0x80)\n      callvalue\n      dup1\n      iszero\n      tag_1\n      jumpi\n      0x00\n      dup1\n      revert\n    tag_1:\n      pop\n      jumpi(tag_2, lt(calldatasize, 0x04))\n      shr(0xe0, calldataload(0x00))\n      dup1\n      0x997d2830\n      gt\n      tag_20\n      jumpi\n      dup1\n      0xce4a2743\n      gt\n      tag_21\n      jumpi\n      dup1\n      0xe8ededa6\n      gt\n      tag_22\n      jumpi\n      dup1\n      0xe8ededa6\n      eq\n      tag_17\n      jumpi\n      dup1\n      0xf851a440\n      eq\n      tag_18\n      jumpi\n      dup1\n      0xf9ded646\n      eq\n      tag_19\n      jumpi\n      0x00\n      dup1\n      revert\n    tag_22:\n      dup1\n      0xce4a2743\n      eq\n      tag_15\n      jumpi\n      dup1\n      0xd5617ecf\n      eq\n      tag_16\n      jumpi\n      0x00\n      dup1\n      revert\n    tag_21:\n      dup1\n      0x997d2830\n      eq\n      tag_11\n      jumpi\n      dup1\n      0x9d710777\n      eq\n      tag_12\n      jumpi\n      dup1\n      0xaaecca52\n      eq\n      tag_13\n      jumpi\n      dup1\n      0xb384abef\n      eq\n      tag_14\n      jumpi\n      0x00\n      dup1\n      revert\n    tag_20:\n      dup1\n      0x5bc261fa\n      gt\n      tag_23\n      jumpi\n      dup1\n      0x5bc261fa\n      eq\n      tag_7\n      jumpi\n      dup1\n      0x5e6fef01\n      eq\n      tag_8\n      jumpi\n      dup1\n      0x7ad36e84\n      eq\n      tag_9\n      jumpi\n      dup1\n      0x7de14242\n      eq\n      tag_10\n      jumpi\n      0x00\n      dup1\n      revert\n    tag_23:\n      dup1\n      0x0eac27f4\n      eq\n      tag_3\n      jumpi\n      dup1\n      0x43859632\n      eq\n      tag_4\n      jumpi\n      dup1\n      0x4bd46448\n      eq\n      tag_5\n      jumpi\n      dup1\n      0x51477141\n      eq\n      tag_6\n      jumpi\n    tag_2:\n      0x00\n      dup1\n      revert\n        /* \"Voting.sol\":8575:8869  function getVoterChoice(uint256 _electionId, address _voter)... */\n    tag_3:\n      tag_24\n      tag_25\n      calldatasize\n      0x04\n      tag_26\n      jump\t// in\n    tag_25:\n      tag_27\n      jump\t// in\n    tag_24:\n      mload(0x40)\n        /* \"#utility.yul\":620:645   */\n      swap1\n      dup2\n      mstore\n        /* \"#utility.yul\":608:610   */\n      0x20\n        /* \"#utility.yul\":593:611   */\n      add\n        /* \"Voting.sol\":8575:8869  function getVoterChoice(uint256 _electionId, address _voter)... */\n    tag_28:\n      mload(0x40)\n      dup1\n      swap2\n      sub\n      swap1\n      return\n        /* \"Voting.sol\":856:916  mapping(uint256 => mapping(address => bool)) public hasVoted */\n    tag_4:\n      tag_30\n      tag_31\n      calldatasize\n      0x04\n      tag_26\n      jump\t// in\n    tag_31:\n      0x02\n      0x20\n      swap1\n      dup2\n      mstore\n      0x00\n      swap3\n      dup4\n      mstore\n      0x40\n      dup1\n      dup5\n      keccak256\n      swap1\n      swap2\n      mstore\n      swap1\n      dup3\n      mstore\n      swap1\n      keccak256\n      sload\n      0xff\n      and\n      dup2\n      jump\n    tag_30:\n      mload(0x40)\n        /* \"#utility.yul\":821:835   */\n      swap1\n      iszero\n        /* \"#utility.yul\":814:836   */\n      iszero\n        /* \"#utility.yul\":796:837   */\n      dup2\n      mstore\n        /* \"#utility.yul\":784:786   */\n      0x20\n        /* \"#utility.yul\":769:787   */\n      add\n        /* \"Voting.sol\":856:916  mapping(uint256 => mapping(address => bool)) public hasVoted */\n      tag_28\n        /* \"#utility.yul\":656:843   */\n      jump\n        /* \"Voting.sol\":6236:6830  function getCandidate(uint256 _electionId, uint256 _candidateId)... */\n    tag_5:\n      tag_35\n      tag_36\n      calldatasize\n      0x04\n      tag_37\n      jump\t// in\n    tag_36:\n      tag_38\n      jump\t// in\n    tag_35:\n      mload(0x40)\n      tag_28\n      swap6\n      swap5\n      swap4\n      swap3\n      swap2\n      swap1\n      tag_40\n      jump\t// in\n        /* \"Voting.sol\":958:1024  mapping(uint256 => mapping(address => uint256)) public voterChoice */\n    tag_6:\n      tag_24\n      tag_42\n      calldatasize\n      0x04\n      tag_26\n      jump\t// in\n    tag_42:\n      0x03\n      0x20\n      swap1\n      dup2\n      mstore\n      0x00\n      swap3\n      dup4\n      mstore\n      0x40\n      dup1\n      dup5\n      keccak256\n      swap1\n      swap2\n      mstore\n      swap1\n      dup3\n      mstore\n      swap1\n      keccak256\n      sload\n      dup2\n      jump\n        /* \"Voting.sol\":8294:8510  function hasVotedInElection(uint256 _electionId, address _voter)... */\n    tag_7:\n      tag_30\n      tag_46\n      calldatasize\n      0x04\n      tag_26\n      jump\t// in\n    tag_46:\n      tag_47\n      jump\t// in\n        /* \"Voting.sol\":688:733  mapping(uint256 => Election) public elections */\n    tag_8:\n      tag_49\n      tag_50\n      calldatasize\n      0x04\n      tag_51\n      jump\t// in\n    tag_50:\n      tag_52\n      jump\t// in\n    tag_49:\n      mload(0x40)\n      tag_28\n      swap9\n      swap8\n      swap7\n      swap6\n      swap5\n      swap4\n      swap3\n      swap2\n      swap1\n      tag_54\n      jump\t// in\n        /* \"Voting.sol\":2424:3316  function createElection(... */\n    tag_9:\n      tag_24\n      tag_56\n      calldatasize\n      0x04\n      tag_57\n      jump\t// in\n    tag_56:\n      tag_58\n      jump\t// in\n        /* \"Voting.sol\":740:807  mapping(uint256 => mapping(uint256 => Candidate)) public candidates */\n    tag_10:\n      tag_35\n      tag_61\n      calldatasize\n      0x04\n      tag_37\n      jump\t// in\n    tag_61:\n      tag_62\n      jump\t// in\n        /* \"Voting.sol\":1075:1103  uint256 public electionCount */\n    tag_11:\n      tag_24\n      sload(0x04)\n      dup2\n      jump\n        /* \"Voting.sol\":7449:8204  function getElection(uint256 _electionId)... */\n    tag_12:\n      tag_49\n      tag_68\n      calldatasize\n      0x04\n      tag_51\n      jump\t// in\n    tag_68:\n      tag_69\n      jump\t// in\n        /* \"Voting.sol\":5062:5819  function voteFor(uint256 _electionId, uint256 _candidateId, address _voter) ... */\n    tag_13:\n      tag_71\n      tag_72\n      calldatasize\n      0x04\n      tag_73\n      jump\t// in\n    tag_72:\n      tag_74\n      jump\t// in\n    tag_71:\n      stop\n        /* \"Voting.sol\":4235:4884  function vote(uint256 _electionId, uint256 _candidateId) ... */\n    tag_14:\n      tag_71\n      tag_76\n      calldatasize\n      0x04\n      tag_37\n      jump\t// in\n    tag_76:\n      tag_77\n      jump\t// in\n        /* \"Voting.sol\":3388:4141  function addCandidate(... */\n    tag_15:\n      tag_71\n      tag_79\n      calldatasize\n      0x04\n      tag_80\n      jump\t// in\n    tag_79:\n      tag_81\n      jump\t// in\n        /* \"Voting.sol\":5901:6169  function setElectionStatus(uint256 _electionId, bool _isActive) ... */\n    tag_16:\n      tag_71\n      tag_83\n      calldatasize\n      0x04\n      tag_84\n      jump\t// in\n    tag_83:\n      tag_85\n      jump\t// in\n        /* \"Voting.sol\":8970:9429  function getElectionResults(uint256 _electionId)... */\n    tag_17:\n      tag_86\n      tag_87\n      calldatasize\n      0x04\n      tag_51\n      jump\t// in\n    tag_87:\n      tag_88\n      jump\t// in\n    tag_86:\n      mload(0x40)\n      tag_28\n      swap2\n      swap1\n      tag_90\n      jump\t// in\n        /* \"Voting.sol\":1110:1130  address public admin */\n    tag_18:\n      sload(0x05)\n      tag_91\n      swap1\n      sub(shl(0xa0, 0x01), 0x01)\n      and\n      dup2\n      jump\n    tag_91:\n      mload(0x40)\n      sub(shl(0xa0, 0x01), 0x01)\n        /* \"#utility.yul\":6958:7013   */\n      swap1\n      swap2\n      and\n        /* \"#utility.yul\":6940:7014   */\n      dup2\n      mstore\n        /* \"#utility.yul\":6928:6930   */\n      0x20\n        /* \"#utility.yul\":6913:6931   */\n      add\n        /* \"Voting.sol\":1110:1130  address public admin */\n      tag_28\n        /* \"#utility.yul\":6794:7020   */\n      jump\n        /* \"Voting.sol\":6911:7382  function getAllCandidates(uint256 _electionId)... */\n    tag_19:\n      tag_95\n      tag_96\n      calldatasize\n      0x04\n      tag_51\n      jump\t// in\n    tag_96:\n      tag_97\n      jump\t// in\n    tag_95:\n      mload(0x40)\n      tag_28\n      swap2\n      swap1\n      tag_99\n      jump\t// in\n        /* \"Voting.sol\":8575:8869  function getVoterChoice(uint256 _electionId, address _voter)... */\n    tag_27:\n        /* \"Voting.sol\":8721:8728  uint256 */\n      0x00\n        /* \"Voting.sol\":8690:8701  _electionId */\n      dup3\n        /* \"Voting.sol\":1883:1884  0 */\n      0x00\n        /* \"Voting.sol\":1869:1880  _electionId */\n      dup2\n        /* \"Voting.sol\":1869:1884  _electionId > 0 */\n      gt\n        /* \"Voting.sol\":1869:1916  _electionId > 0 && _electionId <= electionCount */\n      dup1\n      iszero\n      tag_101\n      jumpi\n      pop\n        /* \"Voting.sol\":1903:1916  electionCount */\n      sload(0x04)\n        /* \"Voting.sol\":1888:1899  _electionId */\n      dup2\n        /* \"Voting.sol\":1888:1916  _electionId <= electionCount */\n      gt\n      iszero\n        /* \"Voting.sol\":1869:1916  _electionId > 0 && _electionId <= electionCount */\n    tag_101:\n        /* \"Voting.sol\":1861:1944  require(_electionId > 0 && _electionId <= electionCount, \"Election does not exist\") */\n      tag_102\n      jumpi\n      mload(0x40)\n      shl(0xe5, 0x461bcd)\n      dup2\n      mstore\n        /* \"#utility.yul\":8785:8787   */\n      0x20\n        /* \"Voting.sol\":1861:1944  require(_electionId > 0 && _electionId <= electionCount, \"Election does not exist\") */\n      0x04\n      dup3\n      add\n        /* \"#utility.yul\":8767:8788   */\n      mstore\n        /* \"#utility.yul\":8824:8826   */\n      0x17\n        /* \"#utility.yul\":8804:8822   */\n      0x24\n      dup3\n      add\n        /* \"#utility.yul\":8797:8827   */\n      mstore\n      shl(0x4a, 0x115b1958dd1a5bdb88191bd95cc81b9bdd08195e1a5cdd)\n        /* \"#utility.yul\":8843:8861   */\n      0x44\n      dup3\n      add\n        /* \"#utility.yul\":8836:8889   */\n      mstore\n        /* \"#utility.yul\":8906:8924   */\n      0x64\n      add\n        /* \"Voting.sol\":1861:1944  require(_electionId > 0 && _electionId <= electionCount, \"Election does not exist\") */\n    tag_103:\n      mload(0x40)\n      dup1\n      swap2\n      sub\n      swap1\n      revert\n    tag_102:\n        /* \"Voting.sol\":8754:8775  hasVoted[_electionId] */\n      0x00\n      dup5\n      dup2\n      mstore\n        /* \"Voting.sol\":8754:8762  hasVoted */\n      0x02\n        /* \"Voting.sol\":8754:8775  hasVoted[_electionId] */\n      0x20\n      swap1\n      dup2\n      mstore\n      0x40\n      dup1\n      dup4\n      keccak256\n      sub(shl(0xa0, 0x01), 0x01)\n        /* \"Voting.sol\":8754:8783  hasVoted[_electionId][_voter] */\n      dup8\n      and\n      dup5\n      mstore\n      swap1\n      swap2\n      mstore\n      swap1\n      keccak256\n      sload\n      0xff\n      and\n        /* \"Voting.sol\":8746:8811  require(hasVoted[_electionId][_voter], \"Voter has not voted yet\") */\n      tag_106\n      jumpi\n      mload(0x40)\n      shl(0xe5, 0x461bcd)\n      dup2\n      mstore\n        /* \"#utility.yul\":9137:9139   */\n      0x20\n        /* \"Voting.sol\":8746:8811  require(hasVoted[_electionId][_voter], \"Voter has not voted yet\") */\n      0x04\n      dup3\n      add\n        /* \"#utility.yul\":9119:9140   */\n      mstore\n        /* \"#utility.yul\":9176:9178   */\n      0x17\n        /* \"#utility.yul\":9156:9174   */\n      0x24\n      dup3\n      add\n        /* \"#utility.yul\":9149:9179   */\n      mstore\n        /* \"#utility.yul\":9215:9240   */\n      0x566f74657220686173206e6f7420766f74656420796574000000000000000000\n        /* \"#utility.yul\":9195:9213   */\n      0x44\n      dup3\n      add\n        /* \"#utility.yul\":9188:9241   */\n      mstore\n        /* \"#utility.yul\":9258:9276   */\n      0x64\n      add\n        /* \"Voting.sol\":8746:8811  require(hasVoted[_electionId][_voter], \"Voter has not voted yet\") */\n      tag_103\n        /* \"#utility.yul\":8935:9282   */\n      jump\n        /* \"Voting.sol\":8746:8811  require(hasVoted[_electionId][_voter], \"Voter has not voted yet\") */\n    tag_106:\n      pop\n      pop\n        /* \"Voting.sol\":8829:8853  voterChoice[_electionId] */\n      0x00\n      swap2\n      dup3\n      mstore\n        /* \"Voting.sol\":8829:8840  voterChoice */\n      0x03\n        /* \"Voting.sol\":8829:8853  voterChoice[_electionId] */\n      0x20\n      swap1\n      dup2\n      mstore\n      0x40\n      dup1\n      dup5\n      keccak256\n      sub(shl(0xa0, 0x01), 0x01)\n        /* \"Voting.sol\":8829:8861  voterChoice[_electionId][_voter] */\n      swap4\n      swap1\n      swap4\n      and\n      dup5\n      mstore\n      swap2\n      swap1\n      mstore\n      swap1\n      keccak256\n      sload\n      swap1\n        /* \"Voting.sol\":8575:8869  function getVoterChoice(uint256 _electionId, address _voter)... */\n      jump\t// out\n        /* \"Voting.sol\":6236:6830  function getCandidate(uint256 _electionId, uint256 _candidateId)... */\n    tag_38:\n        /* \"Voting.sol\":6400:6410  uint256 id */\n      0x00\n        /* \"Voting.sol\":6425:6443  string memory name */\n      0x60\n        /* \"Voting.sol\":6458:6477  string memory party */\n      dup1\n        /* \"Voting.sol\":6492:6514  string memory imageUrl */\n      0x60\n        /* \"Voting.sol\":6529:6546  uint256 voteCount */\n      0x00\n        /* \"Voting.sol\":6355:6366  _electionId */\n      dup7\n        /* \"Voting.sol\":1883:1884  0 */\n      0x00\n        /* \"Voting.sol\":1869:1880  _electionId */\n      dup2\n        /* \"Voting.sol\":1869:1884  _electionId > 0 */\n      gt\n        /* \"Voting.sol\":1869:1916  _electionId > 0 && _electionId <= electionCount */\n      dup1\n      iszero\n      tag_110\n      jumpi\n      pop\n        /* \"Voting.sol\":1903:1916  electionCount */\n      sload(0x04)\n        /* \"Voting.sol\":1888:1899  _electionId */\n      dup2\n        /* \"Voting.sol\":1888:1916  _electionId <= electionCount */\n      gt\n      iszero\n        /* \"Voting.sol\":1869:1916  _electionId > 0 && _electionId <= electionCount */\n    tag_110:\n        /* \"Voting.sol\":1861:1944  require(_electionId > 0 && _electionId <= electionCount, \"Election does not exist\") */\n      tag_111\n      jumpi\n      mload(0x40)\n      shl(0xe5, 0x461bcd)\n      dup2\n      mstore\n        /* \"#utility.yul\":8785:8787   */\n      0x20\n        /* \"Voting.sol\":1861:1944  require(_electionId > 0 && _electionId <= electionCount, \"Election does not exist\") */\n      0x04\n      dup3\n      add\n        /* \"#utility.yul\":8767:8788   */\n      mstore\n        /* \"#utility.yul\":8824:8826   */\n      0x17\n        /* \"#utility.yul\":8804:8822   */\n      0x24\n      dup3\n      add\n        /* \"#utility.yul\":8797:8827   */\n      mstore\n      shl(0x4a, 0x115b1958dd1a5bdb88191bd95cc81b9bdd08195e1a5cdd)\n        /* \"#utility.yul\":8843:8861   */\n      0x44\n      dup3\n      add\n        /* \"#utility.yul\":8836:8889   */\n      mstore\n        /* \"#utility.yul\":8906:8924   */\n      0x64\n      add\n        /* \"Voting.sol\":1861:1944  require(_electionId > 0 && _electionId <= electionCount, \"Election does not exist\") */\n      tag_103\n        /* \"#utility.yul\":8583:8930   */\n      jump\n        /* \"Voting.sol\":1861:1944  require(_electionId > 0 && _electionId <= electionCount, \"Election does not exist\") */\n    tag_111:\n        /* \"Voting.sol\":6574:6600  Candidate memory candidate */\n      0x00\n        /* \"Voting.sol\":6603:6626  candidates[_electionId] */\n      dup9\n      dup2\n      mstore\n        /* \"Voting.sol\":6603:6613  candidates */\n      0x01\n        /* \"Voting.sol\":6603:6626  candidates[_electionId] */\n      0x20\n      dup2\n      dup2\n      mstore\n      0x40\n      dup1\n      dup5\n      keccak256\n        /* \"Voting.sol\":6603:6640  candidates[_electionId][_candidateId] */\n      dup12\n      dup6\n      mstore\n      dup3\n      mstore\n      dup1\n      dup5\n      keccak256\n        /* \"Voting.sol\":6574:6640  Candidate memory candidate = candidates[_electionId][_candidateId] */\n      dup2\n      mload\n      0xa0\n      dup2\n      add\n      swap1\n      swap3\n      mstore\n      dup1\n      sload\n      dup3\n      mstore\n      swap3\n      dup4\n      add\n      dup1\n      sload\n      swap2\n      swap4\n        /* \"Voting.sol\":6603:6640  candidates[_electionId][_candidateId] */\n      swap3\n        /* \"Voting.sol\":6574:6640  Candidate memory candidate = candidates[_electionId][_candidateId] */\n      dup5\n      add\n      swap2\n      tag_114\n      swap1\n      tag_115\n      jump\t// in\n    tag_114:\n      dup1\n      0x1f\n      add\n      0x20\n      dup1\n      swap2\n      div\n      mul\n      0x20\n      add\n      mload(0x40)\n      swap1\n      dup2\n      add\n      0x40\n      mstore\n      dup1\n      swap3\n      swap2\n      swap1\n      dup2\n      dup2\n      mstore\n      0x20\n      add\n      dup3\n      dup1\n      sload\n      tag_116\n      swap1\n      tag_115\n      jump\t// in\n    tag_116:\n      dup1\n      iszero\n      tag_117\n      jumpi\n      dup1\n      0x1f\n      lt\n      tag_118\n      jumpi\n      0x0100\n      dup1\n      dup4\n      sload\n      div\n      mul\n      dup4\n      mstore\n      swap2\n      0x20\n      add\n      swap2\n      jump(tag_117)\n    tag_118:\n      dup3\n      add\n      swap2\n      swap1\n      0x00\n      mstore\n      keccak256(0x00, 0x20)\n      swap1\n    tag_119:\n      dup2\n      sload\n      dup2\n      mstore\n      swap1\n      0x01\n      add\n      swap1\n      0x20\n      add\n      dup1\n      dup4\n      gt\n      tag_119\n      jumpi\n      dup3\n      swap1\n      sub\n      0x1f\n      and\n      dup3\n      add\n      swap2\n    tag_117:\n      pop\n      pop\n      pop\n      pop\n      pop\n      dup2\n      mstore\n      0x20\n      add\n      0x02\n      dup3\n      add\n      dup1\n      sload\n      tag_120\n      swap1\n      tag_115\n      jump\t// in\n    tag_120:\n      dup1\n      0x1f\n      add\n      0x20\n      dup1\n      swap2\n      div\n      mul\n      0x20\n      add\n      mload(0x40)\n      swap1\n      dup2\n      add\n      0x40\n      mstore\n      dup1\n      swap3\n      swap2\n      swap1\n      dup2\n      dup2\n      mstore\n      0x20\n      add\n      dup3\n      dup1\n      sload\n      tag_121\n      swap1\n      tag_115\n      jump\t// in\n    tag_121:\n      dup1\n      iszero\n      tag_122\n      jumpi\n      dup1\n      0x1f\n      lt\n      tag_123\n      jumpi\n      0x0100\n      dup1\n      dup4\n      sload\n      div\n      mul\n      dup4\n      mstore\n      swap2\n      0x20\n      add\n      swap2\n      jump(tag_122)\n    tag_123:\n      dup3\n      add\n      swap2\n      swap1\n      0x00\n      mstore\n      keccak256(0x00, 0x20)\n      swap1\n    tag_124:\n      dup2\n      sload\n      dup2\n      mstore\n      swap1\n      0x01\n      add\n      swap1\n      0x20\n      add\n      dup1\n      dup4\n      gt\n      tag_124\n      jumpi\n      dup3\n      swap1\n      sub\n      0x1f\n      and\n      dup3\n      add\n      swap2\n    tag_122:\n      pop\n      pop\n      pop\n      pop\n      pop\n      dup2\n      mstore\n      0x20\n      add\n      0x03\n      dup3\n      add\n      dup1\n      sload\n      tag_125\n      swap1\n      tag_115\n      jump\t// in\n    tag_125:\n      dup1\n      0x1f\n      add\n      0x20\n      dup1\n      swap2\n      div\n      mul\n      0x20\n      add\n      mload(0x40)\n      swap1\n      dup2\n      add\n      0x40\n      mstore\n      dup1\n      swap3\n      swap2\n      swap1\n      dup2\n      dup2\n      mstore\n      0x20\n      add\n      dup3\n      dup1\n      sload\n      tag_126\n      swap1\n      tag_115\n      jump\t// in\n    tag_126:\n      dup1\n      iszero\n      tag_127\n      jumpi\n      dup1\n      0x1f\n      lt\n      tag_128\n      jumpi\n      0x0100\n      dup1\n      dup4\n      sload\n      div\n      mul\n      dup4\n      mstore\n      swap2\n      0x20\n      add\n      swap2\n      jump(tag_127)\n    tag_128:\n      dup3\n      add\n      swap2\n      swap1\n      0x00\n      mstore\n      keccak256(0x00, 0x20)\n      swap1\n    tag_129:\n      dup2\n      sload\n      dup2\n      mstore\n      swap1\n      0x01\n      add\n      swap1\n      0x20\n      add\n      dup1\n      dup4\n      gt\n      tag_129\n      jumpi\n      dup3\n      swap1\n      sub\n      0x1f\n      and\n      dup3\n      add\n      swap2\n    tag_127:\n      pop\n      pop\n      pop\n      swap2\n      dup4\n      mstore\n      pop\n      pop\n      0x04\n      swap2\n      swap1\n      swap2\n      add\n      sload\n      0x20\n      swap2\n      dup3\n      add\n      mstore\n        /* \"Voting.sol\":6673:6685  candidate.id */\n      dup2\n      mload\n        /* \"Voting.sol\":6700:6714  candidate.name */\n      swap1\n      dup3\n      add\n      mload\n        /* \"Voting.sol\":6729:6744  candidate.party */\n      0x40\n      dup4\n      add\n      mload\n        /* \"Voting.sol\":6759:6777  candidate.imageUrl */\n      0x60\n      dup5\n      add\n      mload\n        /* \"Voting.sol\":6792:6811  candidate.voteCount */\n      0x80\n      swap1\n      swap5\n      add\n      mload\n        /* \"Voting.sol\":6673:6685  candidate.id */\n      swap3\n      swap14\n        /* \"Voting.sol\":6700:6714  candidate.name */\n      swap2\n      swap13\n      pop\n        /* \"Voting.sol\":6729:6744  candidate.party */\n      swap11\n      pop\n        /* \"Voting.sol\":6759:6777  candidate.imageUrl */\n      swap2\n      swap9\n      pop\n        /* \"Voting.sol\":6792:6811  candidate.voteCount */\n      swap7\n      pop\n        /* \"Voting.sol\":6236:6830  function getCandidate(uint256 _electionId, uint256 _candidateId)... */\n      swap5\n      pop\n      pop\n      pop\n      pop\n      pop\n      jump\t// out\n        /* \"Voting.sol\":8294:8510  function hasVotedInElection(uint256 _electionId, address _voter)... */\n    tag_47:\n        /* \"Voting.sol\":8444:8448  bool */\n      0x00\n        /* \"Voting.sol\":8413:8424  _electionId */\n      dup3\n        /* \"Voting.sol\":1883:1884  0 */\n      0x00\n        /* \"Voting.sol\":1869:1880  _electionId */\n      dup2\n        /* \"Voting.sol\":1869:1884  _electionId > 0 */\n      gt\n        /* \"Voting.sol\":1869:1916  _electionId > 0 && _electionId <= electionCount */\n      dup1\n      iszero\n      tag_131\n      jumpi\n      pop\n        /* \"Voting.sol\":1903:1916  electionCount */\n      sload(0x04)\n        /* \"Voting.sol\":1888:1899  _electionId */\n      dup2\n        /* \"Voting.sol\":1888:1916  _electionId <= electionCount */\n      gt\n      iszero\n        /* \"Voting.sol\":1869:1916  _electionId > 0 && _electionId <= electionCount */\n    tag_131:\n        /* \"Voting.sol\":1861:1944  require(_electionId > 0 && _electionId <= electionCount, \"Election does not exist\") */\n      tag_132\n      jumpi\n      mload(0x40)\n      shl(0xe5, 0x461bcd)\n      dup2\n      mstore\n        /* \"#utility.yul\":8785:8787   */\n      0x20\n        /* \"Voting.sol\":1861:1944  require(_electionId > 0 && _electionId <= electionCount, \"Election does not exist\") */\n      0x04\n      dup3\n      add\n        /* \"#utility.yul\":8767:8788   */\n      mstore\n        /* \"#utility.yul\":8824:8826   */\n      0x17\n        /* \"#utility.yul\":8804:8822   */\n      0x24\n      dup3\n      add\n        /* \"#utility.yul\":8797:8827   */\n      mstore\n      shl(0x4a, 0x115b1958dd1a5bdb88191bd95cc81b9bdd08195e1a5cdd)\n        /* \"#utility.yul\":8843:8861   */\n      0x44\n      dup3\n      add\n        /* \"#utility.yul\":8836:8889   */\n      mstore\n        /* \"#utility.yul\":8906:8924   */\n      0x64\n      add\n        /* \"Voting.sol\":1861:1944  require(_electionId > 0 && _electionId <= electionCount, \"Election does not exist\") */\n      tag_103\n        /* \"#utility.yul\":8583:8930   */\n      jump\n        /* \"Voting.sol\":1861:1944  require(_electionId > 0 && _electionId <= electionCount, \"Election does not exist\") */\n    tag_132:\n      pop\n      pop\n        /* \"Voting.sol\":8473:8494  hasVoted[_electionId] */\n      0x00\n      swap2\n      dup3\n      mstore\n        /* \"Voting.sol\":8473:8481  hasVoted */\n      0x02\n        /* \"Voting.sol\":8473:8494  hasVoted[_electionId] */\n      0x20\n      swap1\n      dup2\n      mstore\n      0x40\n      dup1\n      dup5\n      keccak256\n      sub(shl(0xa0, 0x01), 0x01)\n        /* \"Voting.sol\":8473:8502  hasVoted[_electionId][_voter] */\n      swap4\n      swap1\n      swap4\n      and\n      dup5\n      mstore\n      swap2\n      swap1\n      mstore\n      swap1\n      keccak256\n      sload\n      0xff\n      and\n      swap1\n        /* \"Voting.sol\":8294:8510  function hasVotedInElection(uint256 _electionId, address _voter)... */\n      jump\t// out\n        /* \"Voting.sol\":688:733  mapping(uint256 => Election) public elections */\n    tag_52:\n      0x00\n      0x20\n      dup2\n      swap1\n      mstore\n      swap1\n      dup2\n      mstore\n      0x40\n      swap1\n      keccak256\n      dup1\n      sload\n      0x01\n      dup3\n      add\n      dup1\n      sload\n      swap2\n      swap3\n      swap2\n      tag_135\n      swap1\n      tag_115\n      jump\t// in\n    tag_135:\n      dup1\n      0x1f\n      add\n      0x20\n      dup1\n      swap2\n      div\n      mul\n      0x20\n      add\n      mload(0x40)\n      swap1\n      dup2\n      add\n      0x40\n      mstore\n      dup1\n      swap3\n      swap2\n      swap1\n      dup2\n      dup2\n      mstore\n      0x20\n      add\n      dup3\n      dup1\n      sload\n      tag_136\n      swap1\n      tag_115\n      jump\t// in\n    tag_136:\n      dup1\n      iszero\n      tag_137\n      jumpi\n      dup1\n      0x1f\n      lt\n      tag_138\n      jumpi\n      0x0100\n      dup1\n      dup4\n      sload\n      div\n      mul\n      dup4\n      mstore\n      swap2\n      0x20\n      add\n      swap2\n      jump(tag_137)\n    tag_138:\n      dup3\n      add\n      swap2\n      swap1\n      0x00\n      mstore\n      keccak256(0x00, 0x20)\n      swap1\n    tag_139:\n      dup2\n      sload\n      dup2\n      mstore\n      swap1\n      0x01\n      add\n      swap1\n      0x20\n      add\n      dup1\n      dup4\n      gt\n      tag_139\n      jumpi\n      dup3\n      swap1\n      sub\n      0x1f\n      and\n      dup3\n      add\n      swap2\n    tag_137:\n      pop\n      pop\n      pop\n      pop\n      pop\n      swap1\n      dup1\n      0x02\n      add\n      dup1\n      sload\n      tag_140\n      swap1\n      tag_115\n      jump\t// in\n    tag_140:\n      dup1\n      0x1f\n      add\n      0x20\n      dup1\n      swap2\n      div\n      mul\n      0x20\n      add\n      mload(0x40)\n      swap1\n      dup2\n      add\n      0x40\n      mstore\n      dup1\n      swap3\n      swap2\n      swap1\n      dup2\n      dup2\n      mstore\n      0x20\n      add\n      dup3\n      dup1\n      sload\n      tag_141\n      swap1\n      tag_115\n      jump\t// in\n    tag_141:\n      dup1\n      iszero\n      tag_142\n      jumpi\n      dup1\n      0x1f\n      lt\n      tag_143\n      jumpi\n      0x0100\n      dup1\n      dup4\n      sload\n      div\n      mul\n      dup4\n      mstore\n      swap2\n      0x20\n      add\n      swap2\n      jump(tag_142)\n    tag_143:\n      dup3\n      add\n      swap2\n      swap1\n      0x00\n      mstore\n      keccak256(0x00, 0x20)\n      swap1\n    tag_144:\n      dup2\n      sload\n      dup2\n      mstore\n      swap1\n      0x01\n      add\n      swap1\n      0x20\n      add\n      dup1\n      dup4\n      gt\n      tag_144\n      jumpi\n      dup3\n      swap1\n      sub\n      0x1f\n      and\n      dup3\n      add\n      swap2\n    tag_142:\n      pop\n      pop\n      pop\n      0x03\n      dup5\n      add\n      sload\n      0x04\n      dup6\n      add\n      sload\n      0x05\n      dup7\n      add\n      sload\n      0x06\n      dup8\n      add\n      sload\n      0x07\n      swap1\n      swap8\n      add\n      sload\n      swap6\n      swap7\n      swap3\n      swap6\n      swap2\n      swap5\n      pop\n      0xff\n      and\n      swap3\n      pop\n      dup9\n      jump\t// out\n        /* \"Voting.sol\":2424:3316  function createElection(... */\n    tag_58:\n        /* \"Voting.sol\":1733:1738  admin */\n      sload(0x05)\n        /* \"Voting.sol\":2604:2611  uint256 */\n      0x00\n      swap1\n      sub(shl(0xa0, 0x01), 0x01)\n        /* \"Voting.sol\":1733:1738  admin */\n      and\n        /* \"Voting.sol\":1719:1729  msg.sender */\n      caller\n        /* \"Voting.sol\":1719:1738  msg.sender == admin */\n      eq\n        /* \"Voting.sol\":1711:1777  require(msg.sender == admin, \"Only admin can perform this action\") */\n      tag_146\n      jumpi\n      mload(0x40)\n      shl(0xe5, 0x461bcd)\n      dup2\n      mstore\n        /* \"#utility.yul\":9874:9876   */\n      0x20\n        /* \"Voting.sol\":1711:1777  require(msg.sender == admin, \"Only admin can perform this action\") */\n      0x04\n      dup3\n      add\n        /* \"#utility.yul\":9856:9877   */\n      mstore\n        /* \"#utility.yul\":9913:9915   */\n      0x22\n        /* \"#utility.yul\":9893:9911   */\n      0x24\n      dup3\n      add\n        /* \"#utility.yul\":9886:9916   */\n      mstore\n        /* \"#utility.yul\":9952:9986   */\n      0x4f6e6c792061646d696e2063616e20706572666f726d20746869732061637469\n        /* \"#utility.yul\":9932:9950   */\n      0x44\n      dup3\n      add\n        /* \"#utility.yul\":9925:9987   */\n      mstore\n      shl(0xf1, 0x37b7)\n        /* \"#utility.yul\":10003:10021   */\n      0x64\n      dup3\n      add\n        /* \"#utility.yul\":9996:10028   */\n      mstore\n        /* \"#utility.yul\":10045:10064   */\n      0x84\n      add\n        /* \"Voting.sol\":1711:1777  require(msg.sender == admin, \"Only admin can perform this action\") */\n      tag_103\n        /* \"#utility.yul\":9672:10070   */\n      jump\n        /* \"Voting.sol\":1711:1777  require(msg.sender == admin, \"Only admin can perform this action\") */\n    tag_146:\n        /* \"Voting.sol\":2645:2653  _endTime */\n      dup2\n        /* \"Voting.sol\":2632:2642  _startTime */\n      dup4\n        /* \"Voting.sol\":2632:2653  _startTime < _endTime */\n      lt\n        /* \"Voting.sol\":2624:2676  require(_startTime < _endTime, \"Invalid time range\") */\n      tag_150\n      jumpi\n      mload(0x40)\n      shl(0xe5, 0x461bcd)\n      dup2\n      mstore\n        /* \"#utility.yul\":10277:10279   */\n      0x20\n        /* \"Voting.sol\":2624:2676  require(_startTime < _endTime, \"Invalid time range\") */\n      0x04\n      dup3\n      add\n        /* \"#utility.yul\":10259:10280   */\n      mstore\n        /* \"#utility.yul\":10316:10318   */\n      0x12\n        /* \"#utility.yul\":10296:10314   */\n      0x24\n      dup3\n      add\n        /* \"#utility.yul\":10289:10319   */\n      mstore\n        /* \"#utility.yul\":10355:10375   */\n      0x496e76616c69642074696d652072616e67650000000000000000000000000000\n        /* \"#utility.yul\":10335:10353   */\n      0x44\n      dup3\n      add\n        /* \"#utility.yul\":10328:10376   */\n      mstore\n        /* \"#utility.yul\":10393:10411   */\n      0x64\n      add\n        /* \"Voting.sol\":2624:2676  require(_startTime < _endTime, \"Invalid time range\") */\n      tag_103\n        /* \"#utility.yul\":10075:10417   */\n      jump\n        /* \"Voting.sol\":2624:2676  require(_startTime < _endTime, \"Invalid time range\") */\n    tag_150:\n        /* \"Voting.sol\":2709:2724  block.timestamp */\n      timestamp\n        /* \"Voting.sol\":2695:2705  _startTime */\n      dup4\n        /* \"Voting.sol\":2695:2724  _startTime >= block.timestamp */\n      lt\n      iszero\n        /* \"Voting.sol\":2687:2761  require(_startTime >= block.timestamp, \"Start time must be in the future\") */\n      tag_153\n      jumpi\n      mload(0x40)\n      shl(0xe5, 0x461bcd)\n      dup2\n      mstore\n        /* \"#utility.yul\":10624:10626   */\n      0x20\n        /* \"Voting.sol\":2687:2761  require(_startTime >= block.timestamp, \"Start time must be in the future\") */\n      0x04\n      dup3\n      add\n        /* \"#utility.yul\":10606:10627   */\n      dup2\n      swap1\n      mstore\n        /* \"#utility.yul\":10643:10661   */\n      0x24\n      dup3\n      add\n        /* \"#utility.yul\":10636:10666   */\n      mstore\n        /* \"#utility.yul\":10702:10736   */\n      0x53746172742074696d65206d75737420626520696e2074686520667574757265\n        /* \"#utility.yul\":10682:10700   */\n      0x44\n      dup3\n      add\n        /* \"#utility.yul\":10675:10737   */\n      mstore\n        /* \"#utility.yul\":10754:10772   */\n      0x64\n      add\n        /* \"Voting.sol\":2687:2761  require(_startTime >= block.timestamp, \"Start time must be in the future\") */\n      tag_103\n        /* \"#utility.yul\":10422:10778   */\n      jump\n        /* \"Voting.sol\":2687:2761  require(_startTime >= block.timestamp, \"Start time must be in the future\") */\n    tag_153:\n        /* \"Voting.sol\":2782:2795  electionCount */\n      0x04\n        /* \"Voting.sol\":2782:2797  electionCount++ */\n      dup1\n      sload\n      swap1\n        /* \"Voting.sol\":2782:2795  electionCount */\n      0x00\n        /* \"Voting.sol\":2782:2797  electionCount++ */\n      tag_156\n      dup4\n      tag_157\n      jump\t// in\n    tag_156:\n      swap1\n      swap2\n      sstore\n      pop\n      pop\n        /* \"Voting.sol\":2859:2872  electionCount */\n      sload(0x04)\n        /* \"Voting.sol\":2818:2846  Election storage newElection */\n      0x00\n        /* \"Voting.sol\":2849:2873  elections[electionCount] */\n      dup2\n      dup2\n      mstore\n      0x20\n      dup2\n      swap1\n      mstore\n      0x40\n      swap1\n      keccak256\n        /* \"Voting.sol\":2884:2914  newElection.id = electionCount */\n      swap1\n      dup2\n      sstore\n        /* \"Voting.sol\":2925:2941  newElection.name */\n      0x01\n      dup2\n      add\n        /* \"Voting.sol\":2925:2949  newElection.name = _name */\n      tag_158\n        /* \"Voting.sol\":2944:2949  _name */\n      dup8\n        /* \"Voting.sol\":2925:2941  newElection.name */\n      dup3\n        /* \"Voting.sol\":2925:2949  newElection.name = _name */\n      tag_159\n      jump\t// in\n    tag_158:\n      pop\n        /* \"Voting.sol\":2960:2983  newElection.description */\n      0x02\n      dup2\n      add\n        /* \"Voting.sol\":2960:2998  newElection.description = _description */\n      tag_160\n        /* \"Voting.sol\":2986:2998  _description */\n      dup7\n        /* \"Voting.sol\":2960:2983  newElection.description */\n      dup3\n        /* \"Voting.sol\":2960:2998  newElection.description = _description */\n      tag_159\n      jump\t// in\n    tag_160:\n      pop\n        /* \"Voting.sol\":3009:3030  newElection.startTime */\n      0x03\n      dup2\n      add\n        /* \"Voting.sol\":3009:3043  newElection.startTime = _startTime */\n      dup5\n      swap1\n      sstore\n        /* \"Voting.sol\":3054:3073  newElection.endTime */\n      0x04\n      dup1\n      dup3\n      add\n        /* \"Voting.sol\":3054:3084  newElection.endTime = _endTime */\n      dup5\n      swap1\n      sstore\n        /* \"Voting.sol\":3095:3115  newElection.isActive */\n      0x05\n      dup3\n      add\n        /* \"Voting.sol\":3095:3122  newElection.isActive = true */\n      dup1\n      sload\n      not(0xff)\n      and\n        /* \"Voting.sol\":3118:3122  true */\n      0x01\n        /* \"Voting.sol\":3095:3122  newElection.isActive = true */\n      or\n      swap1\n      sstore\n      0x00\n        /* \"Voting.sol\":3133:3159  newElection.candidateCount */\n      0x06\n      dup4\n      add\n        /* \"Voting.sol\":3133:3163  newElection.candidateCount = 0 */\n      dup2\n      swap1\n      sstore\n        /* \"Voting.sol\":3174:3196  newElection.totalVotes */\n      0x07\n      dup4\n      add\n        /* \"Voting.sol\":3174:3200  newElection.totalVotes = 0 */\n      sstore\n        /* \"Voting.sol\":3234:3247  electionCount */\n      sload\n        /* \"Voting.sol\":3218:3277  ElectionCreated(electionCount, _name, _startTime, _endTime) */\n      mload(0x40)\n      0xe7a0aae5d733e07e246dea86213a1ac1b0aa8554bde889bb75c12752f44e53d9\n      swap1\n      tag_161\n      swap1\n        /* \"Voting.sol\":3249:3254  _name */\n      dup10\n      swap1\n        /* \"Voting.sol\":3033:3043  _startTime */\n      dup9\n      swap1\n        /* \"Voting.sol\":3076:3084  _endTime */\n      dup9\n      swap1\n        /* \"Voting.sol\":3218:3277  ElectionCreated(electionCount, _name, _startTime, _endTime) */\n      tag_162\n      jump\t// in\n    tag_161:\n      mload(0x40)\n      dup1\n      swap2\n      sub\n      swap1\n      log2\n      pop\n      pop\n        /* \"Voting.sol\":3295:3308  electionCount */\n      sload(0x04)\n        /* \"Voting.sol\":2424:3316  function createElection(... */\n      swap5\n      swap4\n      pop\n      pop\n      pop\n      pop\n      jump\t// out\n        /* \"Voting.sol\":740:807  mapping(uint256 => mapping(uint256 => Candidate)) public candidates */\n    tag_62:\n      0x01\n      0x20\n      dup2\n      dup2\n      mstore\n      0x00\n      swap4\n      dup5\n      mstore\n      0x40\n      dup1\n      dup6\n      keccak256\n      swap1\n      swap2\n      mstore\n      swap2\n      dup4\n      mstore\n      swap2\n      keccak256\n      dup1\n      sload\n      swap2\n      dup2\n      add\n      dup1\n      sload\n      tag_163\n      swap1\n      tag_115\n      jump\t// in\n    tag_163:\n      dup1\n      0x1f\n      add\n      0x20\n      dup1\n      swap2\n      div\n      mul\n      0x20\n      add\n      mload(0x40)\n      swap1\n      dup2\n      add\n      0x40\n      mstore\n      dup1\n      swap3\n      swap2\n      swap1\n      dup2\n      dup2\n      mstore\n      0x20\n      add\n      dup3\n      dup1\n      sload\n      tag_164\n      swap1\n      tag_115\n      jump\t// in\n    tag_164:\n      dup1\n      iszero\n      tag_165\n      jumpi\n      dup1\n      0x1f\n      lt\n      tag_166\n      jumpi\n      0x0100\n      dup1\n      dup4\n      sload\n      div\n      mul\n      dup4\n      mstore\n      swap2\n      0x20\n      add\n      swap2\n      jump(tag_165)\n    tag_166:\n      dup3\n      add\n      swap2\n      swap1\n      0x00\n      mstore\n      keccak256(0x00, 0x20)\n      swap1\n    tag_167:\n      dup2\n      sload\n      dup2\n      mstore\n      swap1\n      0x01\n      add\n      swap1\n      0x20\n      add\n      dup1\n      dup4\n      gt\n      tag_167\n      jumpi\n      dup3\n      swap1\n      sub\n      0x1f\n      and\n      dup3\n      add\n      swap2\n    tag_165:\n      pop\n      pop\n      pop\n      pop\n      pop\n      swap1\n      dup1\n      0x02\n      add\n      dup1\n      sload\n      tag_168\n      swap1\n      tag_115\n      jump\t// in\n    tag_168:\n      dup1\n      0x1f\n      add\n      0x20\n      dup1\n      swap2\n      div\n      mul\n      0x20\n      add\n      mload(0x40)\n      swap1\n      dup2\n      add\n      0x40\n      mstore\n      dup1\n      swap3\n      swap2\n      swap1\n      dup2\n      dup2\n      mstore\n      0x20\n      add\n      dup3\n      dup1\n      sload\n      tag_169\n      swap1\n      tag_115\n      jump\t// in\n    tag_169:\n      dup1\n      iszero\n      tag_170\n      jumpi\n      dup1\n      0x1f\n      lt\n      tag_171\n      jumpi\n      0x0100\n      dup1\n      dup4\n      sload\n      div\n      mul\n      dup4\n      mstore\n      swap2\n      0x20\n      add\n      swap2\n      jump(tag_170)\n    tag_171:\n      dup3\n      add\n      swap2\n      swap1\n      0x00\n      mstore\n      keccak256(0x00, 0x20)\n      swap1\n    tag_172:\n      dup2\n      sload\n      dup2\n      mstore\n      swap1\n      0x01\n      add\n      swap1\n      0x20\n      add\n      dup1\n      dup4\n      gt\n      tag_172\n      jumpi\n      dup3\n      swap1\n      sub\n      0x1f\n      and\n      dup3\n      add\n      swap2\n    tag_170:\n      pop\n      pop\n      pop\n      pop\n      pop\n      swap1\n      dup1\n      0x03\n      add\n      dup1\n      sload\n      tag_173\n      swap1\n      tag_115\n      jump\t// in\n    tag_173:\n      dup1\n      0x1f\n      add\n      0x20\n      dup1\n      swap2\n      div\n      mul\n      0x20\n      add\n      mload(0x40)\n      swap1\n      dup2\n      add\n      0x40\n      mstore\n      dup1\n      swap3\n      swap2\n      swap1\n      dup2\n      dup2\n      mstore\n      0x20\n      add\n      dup3\n      dup1\n      sload\n      tag_174\n      swap1\n      tag_115\n      jump\t// in\n    tag_174:\n      dup1\n      iszero\n      tag_175\n      jumpi\n      dup1\n      0x1f\n      lt\n      tag_176\n      jumpi\n      0x0100\n      dup1\n      dup4\n      sload\n      div\n      mul\n      dup4\n      mstore\n      swap2\n      0x20\n      add\n      swap2\n      jump(tag_175)\n    tag_176:\n      dup3\n      add\n      swap2\n      swap1\n      0x00\n      mstore\n      keccak256(0x00, 0x20)\n      swap1\n    tag_177:\n      dup2\n      sload\n      dup2\n      mstore\n      swap1\n      0x01\n      add\n      swap1\n      0x20\n      add\n      dup1\n      dup4\n      gt\n      tag_177\n      jumpi\n      dup3\n      swap1\n      sub\n      0x1f\n      and\n      dup3\n      add\n      swap2\n    tag_175:\n      pop\n      pop\n      pop\n      pop\n      pop\n      swap1\n      dup1\n      0x04\n      add\n      sload\n      swap1\n      pop\n      dup6\n      jump\t// out\n        /* \"Voting.sol\":7449:8204  function getElection(uint256 _electionId)... */\n    tag_69:\n        /* \"Voting.sol\":7590:7600  uint256 id */\n      0x00\n        /* \"Voting.sol\":7615:7633  string memory name */\n      0x60\n        /* \"Voting.sol\":7648:7673  string memory description */\n      dup1\n        /* \"Voting.sol\":7688:7705  uint256 startTime */\n      0x00\n        /* \"Voting.sol\":7720:7735  uint256 endTime */\n      dup1\n        /* \"Voting.sol\":7750:7763  bool isActive */\n      0x00\n        /* \"Voting.sol\":7778:7800  uint256 candidateCount */\n      dup1\n        /* \"Voting.sol\":7815:7833  uint256 totalVotes */\n      0x00\n        /* \"Voting.sol\":7545:7556  _electionId */\n      dup9\n        /* \"Voting.sol\":1883:1884  0 */\n      0x00\n        /* \"Voting.sol\":1869:1880  _electionId */\n      dup2\n        /* \"Voting.sol\":1869:1884  _electionId > 0 */\n      gt\n        /* \"Voting.sol\":1869:1916  _electionId > 0 && _electionId <= electionCount */\n      dup1\n      iszero\n      tag_179\n      jumpi\n      pop\n        /* \"Voting.sol\":1903:1916  electionCount */\n      sload(0x04)\n        /* \"Voting.sol\":1888:1899  _electionId */\n      dup2\n        /* \"Voting.sol\":1888:1916  _electionId <= electionCount */\n      gt\n      iszero\n        /* \"Voting.sol\":1869:1916  _electionId > 0 && _electionId <= electionCount */\n    tag_179:\n        /* \"Voting.sol\":1861:1944  require(_electionId > 0 && _electionId <= electionCount, \"Election does not exist\") */\n      tag_180\n      jumpi\n      mload(0x40)\n      shl(0xe5, 0x461bcd)\n      dup2\n      mstore\n        /* \"#utility.yul\":8785:8787   */\n      0x20\n        /* \"Voting.sol\":1861:1944  require(_electionId > 0 && _electionId <= electionCount, \"Election does not exist\") */\n      0x04\n      dup3\n      add\n        /* \"#utility.yul\":8767:8788   */\n      mstore\n        /* \"#utility.yul\":8824:8826   */\n      0x17\n        /* \"#utility.yul\":8804:8822   */\n      0x24\n      dup3\n      add\n        /* \"#utility.yul\":8797:8827   */\n      mstore\n      shl(0x4a, 0x115b1958dd1a5bdb88191bd95cc81b9bdd08195e1a5cdd)\n        /* \"#utility.yul\":8843:8861   */\n      0x44\n      dup3\n      add\n        /* \"#utility.yul\":8836:8889   */\n      mstore\n        /* \"#utility.yul\":8906:8924   */\n      0x64\n      add\n        /* \"Voting.sol\":1861:1944  require(_electionId > 0 && _electionId <= electionCount, \"Election does not exist\") */\n      tag_103\n        /* \"#utility.yul\":8583:8930   */\n      jump\n        /* \"Voting.sol\":1861:1944  require(_electionId > 0 && _electionId <= electionCount, \"Election does not exist\") */\n    tag_180:\n        /* \"Voting.sol\":7861:7885  Election memory election */\n      0x00\n        /* \"Voting.sol\":7888:7897  elections */\n      dup1\n        /* \"Voting.sol\":7888:7910  elections[_electionId] */\n      0x00\n        /* \"Voting.sol\":7898:7909  _electionId */\n      dup13\n        /* \"Voting.sol\":7888:7910  elections[_electionId] */\n      dup2\n      mstore\n      0x20\n      add\n      swap1\n      dup2\n      mstore\n      0x20\n      add\n      0x00\n      keccak256\n        /* \"Voting.sol\":7861:7910  Election memory election = elections[_electionId] */\n      mload(0x40)\n      dup1\n      0x0100\n      add\n      0x40\n      mstore\n      swap1\n      dup2\n      0x00\n      dup3\n      add\n      sload\n      dup2\n      mstore\n      0x20\n      add\n      0x01\n      dup3\n      add\n      dup1\n      sload\n      tag_183\n      swap1\n      tag_115\n      jump\t// in\n    tag_183:\n      dup1\n      0x1f\n      add\n      0x20\n      dup1\n      swap2\n      div\n      mul\n      0x20\n      add\n      mload(0x40)\n      swap1\n      dup2\n      add\n      0x40\n      mstore\n      dup1\n      swap3\n      swap2\n      swap1\n      dup2\n      dup2\n      mstore\n      0x20\n      add\n      dup3\n      dup1\n      sload\n      tag_184\n      swap1\n      tag_115\n      jump\t// in\n    tag_184:\n      dup1\n      iszero\n      tag_185\n      jumpi\n      dup1\n      0x1f\n      lt\n      tag_186\n      jumpi\n      0x0100\n      dup1\n      dup4\n      sload\n      div\n      mul\n      dup4\n      mstore\n      swap2\n      0x20\n      add\n      swap2\n      jump(tag_185)\n    tag_186:\n      dup3\n      add\n      swap2\n      swap1\n      0x00\n      mstore\n      keccak256(0x00, 0x20)\n      swap1\n    tag_187:\n      dup2\n      sload\n      dup2\n      mstore\n      swap1\n      0x01\n      add\n      swap1\n      0x20\n      add\n      dup1\n      dup4\n      gt\n      tag_187\n      jumpi\n      dup3\n      swap1\n      sub\n      0x1f\n      and\n      dup3\n      add\n      swap2\n    tag_185:\n      pop\n      pop\n      pop\n      pop\n      pop\n      dup2\n      mstore\n      0x20\n      add\n      0x02\n      dup3\n      add\n      dup1\n      sload\n      tag_188\n      swap1\n      tag_115\n      jump\t// in\n    tag_188:\n      dup1\n      0x1f\n      add\n      0x20\n      dup1\n      swap2\n      div\n      mul\n      0x20\n      add\n      mload(0x40)\n      swap1\n      dup2\n      add\n      0x40\n      mstore\n      dup1\n      swap3\n      swap2\n      swap1\n      dup2\n      dup2\n      mstore\n      0x20\n      add\n      dup3\n      dup1\n      sload\n      tag_189\n      swap1\n      tag_115\n      jump\t// in\n    tag_189:\n      dup1\n      iszero\n      tag_190\n      jumpi\n      dup1\n      0x1f\n      lt\n      tag_191\n      jumpi\n      0x0100\n      dup1\n      dup4\n      sload\n      div\n      mul\n      dup4\n      mstore\n      swap2\n      0x20\n      add\n      swap2\n      jump(tag_190)\n    tag_191:\n      dup3\n      add\n      swap2\n      swap1\n      0x00\n      mstore\n      keccak256(0x00, 0x20)\n      swap1\n    tag_192:\n      dup2\n      sload\n      dup2\n      mstore\n      swap1\n      0x01\n      add\n      swap1\n      0x20\n      add\n      dup1\n      dup4\n      gt\n      tag_192\n      jumpi\n      dup3\n      swap1\n      sub\n      0x1f\n      and\n      dup3\n      add\n      swap2\n    tag_190:\n      pop\n      pop\n      pop\n      pop\n      pop\n      dup2\n      mstore\n      0x20\n      add\n      0x03\n      dup3\n      add\n      sload\n      dup2\n      mstore\n      0x20\n      add\n      0x04\n      dup3\n      add\n      sload\n      dup2\n      mstore\n      0x20\n      add\n      0x05\n      dup3\n      add\n      0x00\n      swap1\n      sload\n      swap1\n      0x0100\n      exp\n      swap1\n      div\n      0xff\n      and\n      iszero\n      iszero\n      iszero\n      iszero\n      dup2\n      mstore\n      0x20\n      add\n      0x06\n      dup3\n      add\n      sload\n      dup2\n      mstore\n      0x20\n      add\n      0x07\n      dup3\n      add\n      sload\n      dup2\n      mstore\n      pop\n      pop\n      swap1\n      pop\n        /* \"Voting.sol\":7943:7951  election */\n      dup1\n        /* \"Voting.sol\":7943:7954  election.id */\n      0x00\n      add\n      mload\n        /* \"Voting.sol\":7969:7977  election */\n      dup2\n        /* \"Voting.sol\":7969:7982  election.name */\n      0x20\n      add\n      mload\n        /* \"Voting.sol\":7997:8005  election */\n      dup3\n        /* \"Voting.sol\":7997:8017  election.description */\n      0x40\n      add\n      mload\n        /* \"Voting.sol\":8032:8040  election */\n      dup4\n        /* \"Voting.sol\":8032:8050  election.startTime */\n      0x60\n      add\n      mload\n        /* \"Voting.sol\":8065:8073  election */\n      dup5\n        /* \"Voting.sol\":8065:8081  election.endTime */\n      0x80\n      add\n      mload\n        /* \"Voting.sol\":8096:8104  election */\n      dup6\n        /* \"Voting.sol\":8096:8113  election.isActive */\n      0xa0\n      add\n      mload\n        /* \"Voting.sol\":8128:8136  election */\n      dup7\n        /* \"Voting.sol\":8128:8151  election.candidateCount */\n      0xc0\n      add\n      mload\n        /* \"Voting.sol\":8166:8174  election */\n      dup8\n        /* \"Voting.sol\":8166:8185  election.totalVotes */\n      0xe0\n      add\n      mload\n        /* \"Voting.sol\":7921:8196  return (... */\n      swap10\n      pop\n      swap10\n      pop\n      swap10\n      pop\n      swap10\n      pop\n      swap10\n      pop\n      swap10\n      pop\n      swap10\n      pop\n      swap10\n      pop\n      pop\n        /* \"Voting.sol\":7449:8204  function getElection(uint256 _electionId)... */\n      pop\n      swap2\n      swap4\n      swap6\n      swap8\n      pop\n      swap2\n      swap4\n      swap6\n      swap8\n      jump\t// out\n        /* \"Voting.sol\":5062:5819  function voteFor(uint256 _electionId, uint256 _candidateId, address _voter) ... */\n    tag_74:\n        /* \"Voting.sol\":1733:1738  admin */\n      and(sub(shl(0xa0, 0x01), 0x01), sload(0x05))\n        /* \"Voting.sol\":1719:1729  msg.sender */\n      caller\n        /* \"Voting.sol\":1719:1738  msg.sender == admin */\n      eq\n        /* \"Voting.sol\":1711:1777  require(msg.sender == admin, \"Only admin can perform this action\") */\n      tag_194\n      jumpi\n      mload(0x40)\n      shl(0xe5, 0x461bcd)\n      dup2\n      mstore\n        /* \"#utility.yul\":9874:9876   */\n      0x20\n        /* \"Voting.sol\":1711:1777  require(msg.sender == admin, \"Only admin can perform this action\") */\n      0x04\n      dup3\n      add\n        /* \"#utility.yul\":9856:9877   */\n      mstore\n        /* \"#utility.yul\":9913:9915   */\n      0x22\n        /* \"#utility.yul\":9893:9911   */\n      0x24\n      dup3\n      add\n        /* \"#utility.yul\":9886:9916   */\n      mstore\n        /* \"#utility.yul\":9952:9986   */\n      0x4f6e6c792061646d696e2063616e20706572666f726d20746869732061637469\n        /* \"#utility.yul\":9932:9950   */\n      0x44\n      dup3\n      add\n        /* \"#utility.yul\":9925:9987   */\n      mstore\n      shl(0xf1, 0x37b7)\n        /* \"#utility.yul\":10003:10021   */\n      0x64\n      dup3\n      add\n        /* \"#utility.yul\":9996:10028   */\n      mstore\n        /* \"#utility.yul\":10045:10064   */\n      0x84\n      add\n        /* \"Voting.sol\":1711:1777  require(msg.sender == admin, \"Only admin can perform this action\") */\n      tag_103\n        /* \"#utility.yul\":9672:10070   */\n      jump\n        /* \"Voting.sol\":1711:1777  require(msg.sender == admin, \"Only admin can perform this action\") */\n    tag_194:\n        /* \"Voting.sol\":5199:5210  _electionId */\n      dup3\n        /* \"Voting.sol\":1883:1884  0 */\n      0x00\n        /* \"Voting.sol\":1869:1880  _electionId */\n      dup2\n        /* \"Voting.sol\":1869:1884  _electionId > 0 */\n      gt\n        /* \"Voting.sol\":1869:1916  _electionId > 0 && _electionId <= electionCount */\n      dup1\n      iszero\n      tag_197\n      jumpi\n      pop\n        /* \"Voting.sol\":1903:1916  electionCount */\n      sload(0x04)\n        /* \"Voting.sol\":1888:1899  _electionId */\n      dup2\n        /* \"Voting.sol\":1888:1916  _electionId <= electionCount */\n      gt\n      iszero\n        /* \"Voting.sol\":1869:1916  _electionId > 0 && _electionId <= electionCount */\n    tag_197:\n        /* \"Voting.sol\":1861:1944  require(_electionId > 0 && _electionId <= electionCount, \"Election does not exist\") */\n      tag_198\n      jumpi\n      mload(0x40)\n      shl(0xe5, 0x461bcd)\n      dup2\n      mstore\n        /* \"#utility.yul\":8785:8787   */\n      0x20\n        /* \"Voting.sol\":1861:1944  require(_electionId > 0 && _electionId <= electionCount, \"Election does not exist\") */\n      0x04\n      dup3\n      add\n        /* \"#utility.yul\":8767:8788   */\n      mstore\n        /* \"#utility.yul\":8824:8826   */\n      0x17\n        /* \"#utility.yul\":8804:8822   */\n      0x24\n      dup3\n      add\n        /* \"#utility.yul\":8797:8827   */\n      mstore\n      shl(0x4a, 0x115b1958dd1a5bdb88191bd95cc81b9bdd08195e1a5cdd)\n        /* \"#utility.yul\":8843:8861   */\n      0x44\n      dup3\n      add\n        /* \"#utility.yul\":8836:8889   */\n      mstore\n        /* \"#utility.yul\":8906:8924   */\n      0x64\n      add\n        /* \"Voting.sol\":1861:1944  require(_electionId > 0 && _electionId <= electionCount, \"Election does not exist\") */\n      tag_103\n        /* \"#utility.yul\":8583:8930   */\n      jump\n        /* \"Voting.sol\":1861:1944  require(_electionId > 0 && _electionId <= electionCount, \"Election does not exist\") */\n    tag_198:\n        /* \"Voting.sol\":2036:2045  elections */\n      0x00\n        /* \"Voting.sol\":2036:2058  elections[_electionId] */\n      dup5\n      dup2\n      mstore\n      0x20\n      dup2\n      swap1\n      mstore\n      0x40\n      swap1\n      keccak256\n        /* \"Voting.sol\":2036:2067  elections[_electionId].isActive */\n      0x05\n      add\n      sload\n        /* \"Voting.sol\":5237:5248  _electionId */\n      dup5\n      swap1\n        /* \"Voting.sol\":2036:2067  elections[_electionId].isActive */\n      0xff\n      and\n        /* \"Voting.sol\":2028:2094  require(elections[_electionId].isActive, \"Election is not active\") */\n      tag_201\n      jumpi\n      mload(0x40)\n      shl(0xe5, 0x461bcd)\n      dup2\n      mstore\n        /* \"#utility.yul\":13794:13796   */\n      0x20\n        /* \"Voting.sol\":2028:2094  require(elections[_electionId].isActive, \"Election is not active\") */\n      0x04\n      dup3\n      add\n        /* \"#utility.yul\":13776:13797   */\n      mstore\n        /* \"#utility.yul\":13833:13835   */\n      0x16\n        /* \"#utility.yul\":13813:13831   */\n      0x24\n      dup3\n      add\n        /* \"#utility.yul\":13806:13836   */\n      mstore\n        /* \"#utility.yul\":13872:13896   */\n      0x456c656374696f6e206973206e6f742061637469766500000000000000000000\n        /* \"#utility.yul\":13852:13870   */\n      0x44\n      dup3\n      add\n        /* \"#utility.yul\":13845:13897   */\n      mstore\n        /* \"#utility.yul\":13914:13932   */\n      0x64\n      add\n        /* \"Voting.sol\":2028:2094  require(elections[_electionId].isActive, \"Election is not active\") */\n      tag_103\n        /* \"#utility.yul\":13592:13938   */\n      jump\n        /* \"Voting.sol\":2028:2094  require(elections[_electionId].isActive, \"Election is not active\") */\n    tag_201:\n        /* \"Voting.sol\":2132:2141  elections */\n      0x00\n        /* \"Voting.sol\":2132:2154  elections[_electionId] */\n      dup2\n      dup2\n      mstore\n      0x20\n      dup2\n      swap1\n      mstore\n      0x40\n      swap1\n      keccak256\n        /* \"Voting.sol\":2132:2164  elections[_electionId].startTime */\n      0x03\n      add\n      sload\n        /* \"Voting.sol\":2113:2128  block.timestamp */\n      timestamp\n        /* \"Voting.sol\":2113:2164  block.timestamp >= elections[_electionId].startTime */\n      lt\n      iszero\n        /* \"Voting.sol\":2105:2193  require(block.timestamp >= elections[_electionId].startTime, \"Election has not started\") */\n      tag_204\n      jumpi\n      mload(0x40)\n      shl(0xe5, 0x461bcd)\n      dup2\n      mstore\n        /* \"#utility.yul\":14145:14147   */\n      0x20\n        /* \"Voting.sol\":2105:2193  require(block.timestamp >= elections[_electionId].startTime, \"Election has not started\") */\n      0x04\n      dup3\n      add\n        /* \"#utility.yul\":14127:14148   */\n      mstore\n        /* \"#utility.yul\":14184:14186   */\n      0x18\n        /* \"#utility.yul\":14164:14182   */\n      0x24\n      dup3\n      add\n        /* \"#utility.yul\":14157:14187   */\n      mstore\n        /* \"#utility.yul\":14223:14249   */\n      0x456c656374696f6e20686173206e6f7420737461727465640000000000000000\n        /* \"#utility.yul\":14203:14221   */\n      0x44\n      dup3\n      add\n        /* \"#utility.yul\":14196:14250   */\n      mstore\n        /* \"#utility.yul\":14267:14285   */\n      0x64\n      add\n        /* \"Voting.sol\":2105:2193  require(block.timestamp >= elections[_electionId].startTime, \"Election has not started\") */\n      tag_103\n        /* \"#utility.yul\":13943:14291   */\n      jump\n        /* \"Voting.sol\":2105:2193  require(block.timestamp >= elections[_electionId].startTime, \"Election has not started\") */\n    tag_204:\n        /* \"Voting.sol\":2231:2240  elections */\n      0x00\n        /* \"Voting.sol\":2231:2253  elections[_electionId] */\n      dup2\n      dup2\n      mstore\n      0x20\n      dup2\n      swap1\n      mstore\n      0x40\n      swap1\n      keccak256\n        /* \"Voting.sol\":2231:2261  elections[_electionId].endTime */\n      0x04\n      add\n      sload\n        /* \"Voting.sol\":2212:2227  block.timestamp */\n      timestamp\n        /* \"Voting.sol\":2212:2261  block.timestamp <= elections[_electionId].endTime */\n      gt\n      iszero\n        /* \"Voting.sol\":2204:2284  require(block.timestamp <= elections[_electionId].endTime, \"Election has ended\") */\n      tag_207\n      jumpi\n      mload(0x40)\n      shl(0xe5, 0x461bcd)\n      dup2\n      mstore\n        /* \"#utility.yul\":14498:14500   */\n      0x20\n        /* \"Voting.sol\":2204:2284  require(block.timestamp <= elections[_electionId].endTime, \"Election has ended\") */\n      0x04\n      dup3\n      add\n        /* \"#utility.yul\":14480:14501   */\n      mstore\n        /* \"#utility.yul\":14537:14539   */\n      0x12\n        /* \"#utility.yul\":14517:14535   */\n      0x24\n      dup3\n      add\n        /* \"#utility.yul\":14510:14540   */\n      mstore\n        /* \"#utility.yul\":14576:14596   */\n      0x456c656374696f6e2068617320656e6465640000000000000000000000000000\n        /* \"#utility.yul\":14556:14574   */\n      0x44\n      dup3\n      add\n        /* \"#utility.yul\":14549:14597   */\n      mstore\n        /* \"#utility.yul\":14614:14632   */\n      0x64\n      add\n        /* \"Voting.sol\":2204:2284  require(block.timestamp <= elections[_electionId].endTime, \"Election has ended\") */\n      tag_103\n        /* \"#utility.yul\":14296:14638   */\n      jump\n        /* \"Voting.sol\":2204:2284  require(block.timestamp <= elections[_electionId].endTime, \"Election has ended\") */\n    tag_207:\n      sub(shl(0xa0, 0x01), 0x01)\n        /* \"Voting.sol\":5275:5295  _voter != address(0) */\n      dup4\n      and\n        /* \"Voting.sol\":5267:5321  require(_voter != address(0), \"Invalid voter address\") */\n      tag_211\n      jumpi\n      mload(0x40)\n      shl(0xe5, 0x461bcd)\n      dup2\n      mstore\n        /* \"#utility.yul\":14845:14847   */\n      0x20\n        /* \"Voting.sol\":5267:5321  require(_voter != address(0), \"Invalid voter address\") */\n      0x04\n      dup3\n      add\n        /* \"#utility.yul\":14827:14848   */\n      mstore\n        /* \"#utility.yul\":14884:14886   */\n      0x15\n        /* \"#utility.yul\":14864:14882   */\n      0x24\n      dup3\n      add\n        /* \"#utility.yul\":14857:14887   */\n      mstore\n        /* \"#utility.yul\":14923:14946   */\n      0x496e76616c696420766f74657220616464726573730000000000000000000000\n        /* \"#utility.yul\":14903:14921   */\n      0x44\n      dup3\n      add\n        /* \"#utility.yul\":14896:14947   */\n      mstore\n        /* \"#utility.yul\":14964:14982   */\n      0x64\n      add\n        /* \"Voting.sol\":5267:5321  require(_voter != address(0), \"Invalid voter address\") */\n      tag_103\n        /* \"#utility.yul\":14643:14988   */\n      jump\n        /* \"Voting.sol\":5267:5321  require(_voter != address(0), \"Invalid voter address\") */\n    tag_211:\n        /* \"Voting.sol\":5341:5362  hasVoted[_electionId] */\n      0x00\n      dup6\n      dup2\n      mstore\n        /* \"Voting.sol\":5341:5349  hasVoted */\n      0x02\n        /* \"Voting.sol\":5341:5362  hasVoted[_electionId] */\n      0x20\n      swap1\n      dup2\n      mstore\n      0x40\n      dup1\n      dup4\n      keccak256\n      sub(shl(0xa0, 0x01), 0x01)\n        /* \"Voting.sol\":5341:5370  hasVoted[_electionId][_voter] */\n      dup8\n      and\n      dup5\n      mstore\n      swap1\n      swap2\n      mstore\n      swap1\n      keccak256\n      sload\n      0xff\n      and\n        /* \"Voting.sol\":5340:5370  !hasVoted[_electionId][_voter] */\n      iszero\n        /* \"Voting.sol\":5332:5411  require(!hasVoted[_electionId][_voter], \"Voter already voted in this election\") */\n      tag_214\n      jumpi\n      mload(0x40)\n      shl(0xe5, 0x461bcd)\n      dup2\n      mstore\n        /* \"#utility.yul\":15195:15197   */\n      0x20\n        /* \"Voting.sol\":5332:5411  require(!hasVoted[_electionId][_voter], \"Voter already voted in this election\") */\n      0x04\n      dup3\n      add\n        /* \"#utility.yul\":15177:15198   */\n      mstore\n        /* \"#utility.yul\":15234:15236   */\n      0x24\n        /* \"#utility.yul\":15214:15232   */\n      dup1\n      dup3\n      add\n        /* \"#utility.yul\":15207:15237   */\n      mstore\n        /* \"#utility.yul\":15273:15307   */\n      0x566f74657220616c726561647920766f74656420696e207468697320656c6563\n        /* \"#utility.yul\":15253:15271   */\n      0x44\n      dup3\n      add\n        /* \"#utility.yul\":15246:15308   */\n      mstore\n      shl(0xe1, 0x3a34b7b7)\n        /* \"#utility.yul\":15324:15342   */\n      0x64\n      dup3\n      add\n        /* \"#utility.yul\":15317:15351   */\n      mstore\n        /* \"#utility.yul\":15368:15387   */\n      0x84\n      add\n        /* \"Voting.sol\":5332:5411  require(!hasVoted[_electionId][_voter], \"Voter already voted in this election\") */\n      tag_103\n        /* \"#utility.yul\":14993:15393   */\n      jump\n        /* \"Voting.sol\":5332:5411  require(!hasVoted[_electionId][_voter], \"Voter already voted in this election\") */\n    tag_214:\n        /* \"Voting.sol\":5445:5446  0 */\n      0x00\n        /* \"Voting.sol\":5430:5442  _candidateId */\n      dup5\n        /* \"Voting.sol\":5430:5446  _candidateId > 0 */\n      gt\n        /* \"Voting.sol\":5430:5503  _candidateId > 0 && _candidateId <= elections[_electionId].candidateCount */\n      dup1\n      iszero\n      tag_217\n      jumpi\n      pop\n        /* \"Voting.sol\":5466:5475  elections */\n      0x00\n        /* \"Voting.sol\":5466:5488  elections[_electionId] */\n      dup6\n      dup2\n      mstore\n      0x20\n      dup2\n      swap1\n      mstore\n      0x40\n      swap1\n      keccak256\n        /* \"Voting.sol\":5466:5503  elections[_electionId].candidateCount */\n      0x06\n      add\n      sload\n        /* \"Voting.sol\":5450:5503  _candidateId <= elections[_electionId].candidateCount */\n      dup5\n      gt\n      iszero\n        /* \"Voting.sol\":5430:5503  _candidateId > 0 && _candidateId <= elections[_electionId].candidateCount */\n    tag_217:\n        /* \"Voting.sol\":5422:5525  require(_candidateId > 0 && _candidateId <= elections[_electionId].candidateCount, \"Invalid candidate\") */\n      tag_218\n      jumpi\n      mload(0x40)\n      shl(0xe5, 0x461bcd)\n      dup2\n      mstore\n        /* \"#utility.yul\":15600:15602   */\n      0x20\n        /* \"Voting.sol\":5422:5525  require(_candidateId > 0 && _candidateId <= elections[_electionId].candidateCount, \"Invalid candidate\") */\n      0x04\n      dup3\n      add\n        /* \"#utility.yul\":15582:15603   */\n      mstore\n        /* \"#utility.yul\":15639:15641   */\n      0x11\n        /* \"#utility.yul\":15619:15637   */\n      0x24\n      dup3\n      add\n        /* \"#utility.yul\":15612:15642   */\n      mstore\n        /* \"#utility.yul\":15678:15697   */\n      0x496e76616c69642063616e646964617465000000000000000000000000000000\n        /* \"#utility.yul\":15658:15676   */\n      0x44\n      dup3\n      add\n        /* \"#utility.yul\":15651:15698   */\n      mstore\n        /* \"#utility.yul\":15715:15733   */\n      0x64\n      add\n        /* \"Voting.sol\":5422:5525  require(_candidateId > 0 && _candidateId <= elections[_electionId].candidateCount, \"Invalid candidate\") */\n      tag_103\n        /* \"#utility.yul\":15398:15739   */\n      jump\n        /* \"Voting.sol\":5422:5525  require(_candidateId > 0 && _candidateId <= elections[_electionId].candidateCount, \"Invalid candidate\") */\n    tag_218:\n        /* \"Voting.sol\":5538:5559  hasVoted[_electionId] */\n      0x00\n      dup6\n      dup2\n      mstore\n        /* \"Voting.sol\":5538:5546  hasVoted */\n      0x02\n        /* \"Voting.sol\":5538:5559  hasVoted[_electionId] */\n      0x20\n      swap1\n      dup2\n      mstore\n      0x40\n      dup1\n      dup4\n      keccak256\n      sub(shl(0xa0, 0x01), 0x01)\n        /* \"Voting.sol\":5538:5567  hasVoted[_electionId][_voter] */\n      dup8\n      and\n      dup1\n      dup6\n      mstore\n      swap1\n      dup4\n      mstore\n      dup2\n      dup5\n      keccak256\n        /* \"Voting.sol\":5538:5574  hasVoted[_electionId][_voter] = true */\n      dup1\n      sload\n      not(0xff)\n      and\n        /* \"Voting.sol\":5570:5574  true */\n      0x01\n        /* \"Voting.sol\":5538:5574  hasVoted[_electionId][_voter] = true */\n      swap1\n      dup2\n      or\n      swap1\n      swap2\n      sstore\n        /* \"Voting.sol\":5585:5609  voterChoice[_electionId] */\n      dup10\n      dup6\n      mstore\n        /* \"Voting.sol\":5585:5596  voterChoice */\n      0x03\n        /* \"Voting.sol\":5585:5609  voterChoice[_electionId] */\n      dup5\n      mstore\n      dup3\n      dup6\n      keccak256\n        /* \"Voting.sol\":5585:5617  voterChoice[_electionId][_voter] */\n      swap2\n      dup6\n      mstore\n      swap1\n      dup4\n      mstore\n      dup2\n      dup5\n      keccak256\n        /* \"Voting.sol\":5585:5632  voterChoice[_electionId][_voter] = _candidateId */\n      dup9\n      swap1\n      sstore\n        /* \"Voting.sol\":5643:5666  candidates[_electionId] */\n      dup9\n      dup5\n      mstore\n      dup3\n      mstore\n      dup1\n      dup4\n      keccak256\n        /* \"Voting.sol\":5643:5680  candidates[_electionId][_candidateId] */\n      dup8\n      dup5\n      mstore\n      swap1\n      swap2\n      mstore\n      dup2\n      keccak256\n        /* \"Voting.sol\":5643:5690  candidates[_electionId][_candidateId].voteCount */\n      0x04\n      add\n        /* \"Voting.sol\":5643:5692  candidates[_electionId][_candidateId].voteCount++ */\n      dup1\n      sload\n      swap2\n      tag_221\n      dup4\n      tag_157\n      jump\t// in\n    tag_221:\n      swap1\n      swap2\n      sstore\n      pop\n      pop\n        /* \"Voting.sol\":5703:5712  elections */\n      0x00\n        /* \"Voting.sol\":5703:5725  elections[_electionId] */\n      dup6\n      dup2\n      mstore\n      0x20\n      dup2\n      swap1\n      mstore\n      0x40\n      dup2\n      keccak256\n        /* \"Voting.sol\":5703:5736  elections[_electionId].totalVotes */\n      0x07\n      add\n        /* \"Voting.sol\":5703:5738  elections[_electionId].totalVotes++ */\n      dup1\n      sload\n      swap2\n      tag_222\n      dup4\n      tag_157\n      jump\t// in\n    tag_222:\n      swap1\n      swap2\n      sstore\n      pop\n      pop\n        /* \"Voting.sol\":5756:5811  VotedFor(_electionId, _candidateId, _voter, msg.sender) */\n      mload(0x40)\n        /* \"Voting.sol\":5800:5810  msg.sender */\n      caller\n        /* \"#utility.yul\":6940:7014   */\n      dup2\n      mstore\n      sub(shl(0xa0, 0x01), 0x01)\n        /* \"Voting.sol\":5756:5811  VotedFor(_electionId, _candidateId, _voter, msg.sender) */\n      dup5\n      and\n      swap1\n        /* \"Voting.sol\":5778:5790  _candidateId */\n      dup6\n      swap1\n        /* \"Voting.sol\":5765:5776  _electionId */\n      dup8\n      swap1\n        /* \"Voting.sol\":5756:5811  VotedFor(_electionId, _candidateId, _voter, msg.sender) */\n      0xd3e6eda9bc73c3b587a96869f115e313f174e89a2291a06dc9502c609068c435\n      swap1\n        /* \"#utility.yul\":6928:6930   */\n      0x20\n        /* \"#utility.yul\":6913:6931   */\n      add\n        /* \"Voting.sol\":5756:5811  VotedFor(_electionId, _candidateId, _voter, msg.sender) */\n      mload(0x40)\n      dup1\n      swap2\n      sub\n      swap1\n      log4\n        /* \"Voting.sol\":1955:1956  _ */\n      pop\n        /* \"Voting.sol\":1788:1789  _ */\n      pop\n        /* \"Voting.sol\":5062:5819  function voteFor(uint256 _electionId, uint256 _candidateId, address _voter) ... */\n      pop\n      pop\n      pop\n      jump\t// out\n        /* \"Voting.sol\":4235:4884  function vote(uint256 _electionId, uint256 _candidateId) ... */\n    tag_77:\n        /* \"Voting.sol\":4334:4345  _electionId */\n      dup2\n        /* \"Voting.sol\":1883:1884  0 */\n      0x00\n        /* \"Voting.sol\":1869:1880  _electionId */\n      dup2\n        /* \"Voting.sol\":1869:1884  _electionId > 0 */\n      gt\n        /* \"Voting.sol\":1869:1916  _electionId > 0 && _electionId <= electionCount */\n      dup1\n      iszero\n      tag_225\n      jumpi\n      pop\n        /* \"Voting.sol\":1903:1916  electionCount */\n      sload(0x04)\n        /* \"Voting.sol\":1888:1899  _electionId */\n      dup2\n        /* \"Voting.sol\":1888:1916  _electionId <= electionCount */\n      gt\n      iszero\n        /* \"Voting.sol\":1869:1916  _electionId > 0 && _electionId <= electionCount */\n    tag_225:\n        /* \"Voting.sol\":1861:1944  require(_electionId > 0 && _electionId <= electionCount, \"Election does not exist\") */\n      tag_226\n      jumpi\n      mload(0x40)\n      shl(0xe5, 0x461bcd)\n      dup2\n      mstore\n        /* \"#utility.yul\":8785:8787   */\n      0x20\n        /* \"Voting.sol\":1861:1944  require(_electionId > 0 && _electionId <= electionCount, \"Election does not exist\") */\n      0x04\n      dup3\n      add\n        /* \"#utility.yul\":8767:8788   */\n      mstore\n        /* \"#utility.yul\":8824:8826   */\n      0x17\n        /* \"#utility.yul\":8804:8822   */\n      0x24\n      dup3\n      add\n        /* \"#utility.yul\":8797:8827   */\n      mstore\n      shl(0x4a, 0x115b1958dd1a5bdb88191bd95cc81b9bdd08195e1a5cdd)\n        /* \"#utility.yul\":8843:8861   */\n      0x44\n      dup3\n      add\n        /* \"#utility.yul\":8836:8889   */\n      mstore\n        /* \"#utility.yul\":8906:8924   */\n      0x64\n      add\n        /* \"Voting.sol\":1861:1944  require(_electionId > 0 && _electionId <= electionCount, \"Election does not exist\") */\n      tag_103\n        /* \"#utility.yul\":8583:8930   */\n      jump\n        /* \"Voting.sol\":1861:1944  require(_electionId > 0 && _electionId <= electionCount, \"Election does not exist\") */\n    tag_226:\n        /* \"Voting.sol\":2036:2045  elections */\n      0x00\n        /* \"Voting.sol\":2036:2058  elections[_electionId] */\n      dup4\n      dup2\n      mstore\n      0x20\n      dup2\n      swap1\n      mstore\n      0x40\n      swap1\n      keccak256\n        /* \"Voting.sol\":2036:2067  elections[_electionId].isActive */\n      0x05\n      add\n      sload\n        /* \"Voting.sol\":4372:4383  _electionId */\n      dup4\n      swap1\n        /* \"Voting.sol\":2036:2067  elections[_electionId].isActive */\n      0xff\n      and\n        /* \"Voting.sol\":2028:2094  require(elections[_electionId].isActive, \"Election is not active\") */\n      tag_229\n      jumpi\n      mload(0x40)\n      shl(0xe5, 0x461bcd)\n      dup2\n      mstore\n        /* \"#utility.yul\":13794:13796   */\n      0x20\n        /* \"Voting.sol\":2028:2094  require(elections[_electionId].isActive, \"Election is not active\") */\n      0x04\n      dup3\n      add\n        /* \"#utility.yul\":13776:13797   */\n      mstore\n        /* \"#utility.yul\":13833:13835   */\n      0x16\n        /* \"#utility.yul\":13813:13831   */\n      0x24\n      dup3\n      add\n        /* \"#utility.yul\":13806:13836   */\n      mstore\n        /* \"#utility.yul\":13872:13896   */\n      0x456c656374696f6e206973206e6f742061637469766500000000000000000000\n        /* \"#utility.yul\":13852:13870   */\n      0x44\n      dup3\n      add\n        /* \"#utility.yul\":13845:13897   */\n      mstore\n        /* \"#utility.yul\":13914:13932   */\n      0x64\n      add\n        /* \"Voting.sol\":2028:2094  require(elections[_electionId].isActive, \"Election is not active\") */\n      tag_103\n        /* \"#utility.yul\":13592:13938   */\n      jump\n        /* \"Voting.sol\":2028:2094  require(elections[_electionId].isActive, \"Election is not active\") */\n    tag_229:\n        /* \"Voting.sol\":2132:2141  elections */\n      0x00\n        /* \"Voting.sol\":2132:2154  elections[_electionId] */\n      dup2\n      dup2\n      mstore\n      0x20\n      dup2\n      swap1\n      mstore\n      0x40\n      swap1\n      keccak256\n        /* \"Voting.sol\":2132:2164  elections[_electionId].startTime */\n      0x03\n      add\n      sload\n        /* \"Voting.sol\":2113:2128  block.timestamp */\n      timestamp\n        /* \"Voting.sol\":2113:2164  block.timestamp >= elections[_electionId].startTime */\n      lt\n      iszero\n        /* \"Voting.sol\":2105:2193  require(block.timestamp >= elections[_electionId].startTime, \"Election has not started\") */\n      tag_231\n      jumpi\n      mload(0x40)\n      shl(0xe5, 0x461bcd)\n      dup2\n      mstore\n        /* \"#utility.yul\":14145:14147   */\n      0x20\n        /* \"Voting.sol\":2105:2193  require(block.timestamp >= elections[_electionId].startTime, \"Election has not started\") */\n      0x04\n      dup3\n      add\n        /* \"#utility.yul\":14127:14148   */\n      mstore\n        /* \"#utility.yul\":14184:14186   */\n      0x18\n        /* \"#utility.yul\":14164:14182   */\n      0x24\n      dup3\n      add\n        /* \"#utility.yul\":14157:14187   */\n      mstore\n        /* \"#utility.yul\":14223:14249   */\n      0x456c656374696f6e20686173206e6f7420737461727465640000000000000000\n        /* \"#utility.yul\":14203:14221   */\n      0x44\n      dup3\n      add\n        /* \"#utility.yul\":14196:14250   */\n      mstore\n        /* \"#utility.yul\":14267:14285   */\n      0x64\n      add\n        /* \"Voting.sol\":2105:2193  require(block.timestamp >= elections[_electionId].startTime, \"Election has not started\") */\n      tag_103\n        /* \"#utility.yul\":13943:14291   */\n      jump\n        /* \"Voting.sol\":2105:2193  require(block.timestamp >= elections[_electionId].startTime, \"Election has not started\") */\n    tag_231:\n        /* \"Voting.sol\":2231:2240  elections */\n      0x00\n        /* \"Voting.sol\":2231:2253  elections[_electionId] */\n      dup2\n      dup2\n      mstore\n      0x20\n      dup2\n      swap1\n      mstore\n      0x40\n      swap1\n      keccak256\n        /* \"Voting.sol\":2231:2261  elections[_electionId].endTime */\n      0x04\n      add\n      sload\n        /* \"Voting.sol\":2212:2227  block.timestamp */\n      timestamp\n        /* \"Voting.sol\":2212:2261  block.timestamp <= elections[_electionId].endTime */\n      gt\n      iszero\n        /* \"Voting.sol\":2204:2284  require(block.timestamp <= elections[_electionId].endTime, \"Election has ended\") */\n      tag_233\n      jumpi\n      mload(0x40)\n      shl(0xe5, 0x461bcd)\n      dup2\n      mstore\n        /* \"#utility.yul\":14498:14500   */\n      0x20\n        /* \"Voting.sol\":2204:2284  require(block.timestamp <= elections[_electionId].endTime, \"Election has ended\") */\n      0x04\n      dup3\n      add\n        /* \"#utility.yul\":14480:14501   */\n      mstore\n        /* \"#utility.yul\":14537:14539   */\n      0x12\n        /* \"#utility.yul\":14517:14535   */\n      0x24\n      dup3\n      add\n        /* \"#utility.yul\":14510:14540   */\n      mstore\n        /* \"#utility.yul\":14576:14596   */\n      0x456c656374696f6e2068617320656e6465640000000000000000000000000000\n        /* \"#utility.yul\":14556:14574   */\n      0x44\n      dup3\n      add\n        /* \"#utility.yul\":14549:14597   */\n      mstore\n        /* \"#utility.yul\":14614:14632   */\n      0x64\n      add\n        /* \"Voting.sol\":2204:2284  require(block.timestamp <= elections[_electionId].endTime, \"Election has ended\") */\n      tag_103\n        /* \"#utility.yul\":14296:14638   */\n      jump\n        /* \"Voting.sol\":2204:2284  require(block.timestamp <= elections[_electionId].endTime, \"Election has ended\") */\n    tag_233:\n        /* \"Voting.sol\":4411:4432  hasVoted[_electionId] */\n      0x00\n      dup5\n      dup2\n      mstore\n        /* \"Voting.sol\":4411:4419  hasVoted */\n      0x02\n        /* \"Voting.sol\":4411:4432  hasVoted[_electionId] */\n      0x20\n      swap1\n      dup2\n      mstore\n      0x40\n      dup1\n      dup4\n      keccak256\n        /* \"Voting.sol\":4433:4443  msg.sender */\n      caller\n        /* \"Voting.sol\":4411:4444  hasVoted[_electionId][msg.sender] */\n      dup5\n      mstore\n      swap1\n      swap2\n      mstore\n      swap1\n      keccak256\n      sload\n      0xff\n      and\n        /* \"Voting.sol\":4410:4444  !hasVoted[_electionId][msg.sender] */\n      iszero\n        /* \"Voting.sol\":4402:4479  require(!hasVoted[_electionId][msg.sender], \"Already voted in this election\") */\n      tag_236\n      jumpi\n      mload(0x40)\n      shl(0xe5, 0x461bcd)\n      dup2\n      mstore\n        /* \"#utility.yul\":15946:15948   */\n      0x20\n        /* \"Voting.sol\":4402:4479  require(!hasVoted[_electionId][msg.sender], \"Already voted in this election\") */\n      0x04\n      dup3\n      add\n        /* \"#utility.yul\":15928:15949   */\n      mstore\n        /* \"#utility.yul\":15985:15987   */\n      0x1e\n        /* \"#utility.yul\":15965:15983   */\n      0x24\n      dup3\n      add\n        /* \"#utility.yul\":15958:15988   */\n      mstore\n        /* \"#utility.yul\":16024:16056   */\n      0x416c726561647920766f74656420696e207468697320656c656374696f6e0000\n        /* \"#utility.yul\":16004:16022   */\n      0x44\n      dup3\n      add\n        /* \"#utility.yul\":15997:16057   */\n      mstore\n        /* \"#utility.yul\":16074:16092   */\n      0x64\n      add\n        /* \"Voting.sol\":4402:4479  require(!hasVoted[_electionId][msg.sender], \"Already voted in this election\") */\n      tag_103\n        /* \"#utility.yul\":15744:16098   */\n      jump\n        /* \"Voting.sol\":4402:4479  require(!hasVoted[_electionId][msg.sender], \"Already voted in this election\") */\n    tag_236:\n        /* \"Voting.sol\":4513:4514  0 */\n      0x00\n        /* \"Voting.sol\":4498:4510  _candidateId */\n      dup4\n        /* \"Voting.sol\":4498:4514  _candidateId > 0 */\n      gt\n        /* \"Voting.sol\":4498:4571  _candidateId > 0 && _candidateId <= elections[_electionId].candidateCount */\n      dup1\n      iszero\n      tag_239\n      jumpi\n      pop\n        /* \"Voting.sol\":4534:4543  elections */\n      0x00\n        /* \"Voting.sol\":4534:4556  elections[_electionId] */\n      dup5\n      dup2\n      mstore\n      0x20\n      dup2\n      swap1\n      mstore\n      0x40\n      swap1\n      keccak256\n        /* \"Voting.sol\":4534:4571  elections[_electionId].candidateCount */\n      0x06\n      add\n      sload\n        /* \"Voting.sol\":4518:4571  _candidateId <= elections[_electionId].candidateCount */\n      dup4\n      gt\n      iszero\n        /* \"Voting.sol\":4498:4571  _candidateId > 0 && _candidateId <= elections[_electionId].candidateCount */\n    tag_239:\n        /* \"Voting.sol\":4490:4593  require(_candidateId > 0 && _candidateId <= elections[_electionId].candidateCount, \"Invalid candidate\") */\n      tag_240\n      jumpi\n      mload(0x40)\n      shl(0xe5, 0x461bcd)\n      dup2\n      mstore\n        /* \"#utility.yul\":15600:15602   */\n      0x20\n        /* \"Voting.sol\":4490:4593  require(_candidateId > 0 && _candidateId <= elections[_electionId].candidateCount, \"Invalid candidate\") */\n      0x04\n      dup3\n      add\n        /* \"#utility.yul\":15582:15603   */\n      mstore\n        /* \"#utility.yul\":15639:15641   */\n      0x11\n        /* \"#utility.yul\":15619:15637   */\n      0x24\n      dup3\n      add\n        /* \"#utility.yul\":15612:15642   */\n      mstore\n        /* \"#utility.yul\":15678:15697   */\n      0x496e76616c69642063616e646964617465000000000000000000000000000000\n        /* \"#utility.yul\":15658:15676   */\n      0x44\n      dup3\n      add\n        /* \"#utility.yul\":15651:15698   */\n      mstore\n        /* \"#utility.yul\":15715:15733   */\n      0x64\n      add\n        /* \"Voting.sol\":4490:4593  require(_candidateId > 0 && _candidateId <= elections[_electionId].candidateCount, \"Invalid candidate\") */\n      tag_103\n        /* \"#utility.yul\":15398:15739   */\n      jump\n        /* \"Voting.sol\":4490:4593  require(_candidateId > 0 && _candidateId <= elections[_electionId].candidateCount, \"Invalid candidate\") */\n    tag_240:\n        /* \"Voting.sol\":4606:4627  hasVoted[_electionId] */\n      0x00\n      dup5\n      dup2\n      mstore\n        /* \"Voting.sol\":4606:4614  hasVoted */\n      0x02\n        /* \"Voting.sol\":4606:4627  hasVoted[_electionId] */\n      0x20\n      swap1\n      dup2\n      mstore\n      0x40\n      dup1\n      dup4\n      keccak256\n        /* \"Voting.sol\":4628:4638  msg.sender */\n      caller\n        /* \"Voting.sol\":4606:4639  hasVoted[_electionId][msg.sender] */\n      dup1\n      dup6\n      mstore\n      swap1\n      dup4\n      mstore\n      dup2\n      dup5\n      keccak256\n        /* \"Voting.sol\":4606:4646  hasVoted[_electionId][msg.sender] = true */\n      dup1\n      sload\n      not(0xff)\n      and\n        /* \"Voting.sol\":4642:4646  true */\n      0x01\n        /* \"Voting.sol\":4606:4646  hasVoted[_electionId][msg.sender] = true */\n      swap1\n      dup2\n      or\n      swap1\n      swap2\n      sstore\n        /* \"Voting.sol\":4657:4681  voterChoice[_electionId] */\n      dup9\n      dup6\n      mstore\n        /* \"Voting.sol\":4657:4668  voterChoice */\n      0x03\n        /* \"Voting.sol\":4657:4681  voterChoice[_electionId] */\n      dup5\n      mstore\n      dup3\n      dup6\n      keccak256\n        /* \"Voting.sol\":4657:4693  voterChoice[_electionId][msg.sender] */\n      swap2\n      dup6\n      mstore\n      swap1\n      dup4\n      mstore\n      dup2\n      dup5\n      keccak256\n        /* \"Voting.sol\":4657:4708  voterChoice[_electionId][msg.sender] = _candidateId */\n      dup8\n      swap1\n      sstore\n        /* \"Voting.sol\":4719:4742  candidates[_electionId] */\n      dup8\n      dup5\n      mstore\n      dup3\n      mstore\n      dup1\n      dup4\n      keccak256\n        /* \"Voting.sol\":4719:4756  candidates[_electionId][_candidateId] */\n      dup7\n      dup5\n      mstore\n      swap1\n      swap2\n      mstore\n      dup2\n      keccak256\n        /* \"Voting.sol\":4719:4766  candidates[_electionId][_candidateId].voteCount */\n      0x04\n      add\n        /* \"Voting.sol\":4719:4768  candidates[_electionId][_candidateId].voteCount++ */\n      dup1\n      sload\n      swap2\n      tag_242\n      dup4\n      tag_157\n      jump\t// in\n    tag_242:\n      swap1\n      swap2\n      sstore\n      pop\n      pop\n        /* \"Voting.sol\":4779:4788  elections */\n      0x00\n        /* \"Voting.sol\":4779:4801  elections[_electionId] */\n      dup5\n      dup2\n      mstore\n      0x20\n      dup2\n      swap1\n      mstore\n      0x40\n      dup2\n      keccak256\n        /* \"Voting.sol\":4779:4812  elections[_electionId].totalVotes */\n      0x07\n      add\n        /* \"Voting.sol\":4779:4814  elections[_electionId].totalVotes++ */\n      dup1\n      sload\n      swap2\n      tag_243\n      dup4\n      tag_157\n      jump\t// in\n    tag_243:\n      swap1\n      swap2\n      sstore\n      pop\n      pop\n        /* \"Voting.sol\":4832:4876  Voted(_electionId, _candidateId, msg.sender) */\n      mload(0x40)\n        /* \"Voting.sol\":4865:4875  msg.sender */\n      caller\n      swap1\n        /* \"Voting.sol\":4851:4863  _candidateId */\n      dup5\n      swap1\n        /* \"Voting.sol\":4838:4849  _electionId */\n      dup7\n      swap1\n        /* \"Voting.sol\":4832:4876  Voted(_electionId, _candidateId, msg.sender) */\n      0xd91ecafccf238642dccd41161308b3eebe62a12bc5819daf5164780c221ec95b\n      swap1\n      0x00\n      swap1\n      log4\n        /* \"Voting.sol\":1955:1956  _ */\n      pop\n        /* \"Voting.sol\":4235:4884  function vote(uint256 _electionId, uint256 _candidateId) ... */\n      pop\n      pop\n      pop\n      jump\t// out\n        /* \"Voting.sol\":3388:4141  function addCandidate(... */\n    tag_81:\n        /* \"Voting.sol\":1733:1738  admin */\n      and(sub(shl(0xa0, 0x01), 0x01), sload(0x05))\n        /* \"Voting.sol\":1719:1729  msg.sender */\n      caller\n        /* \"Voting.sol\":1719:1738  msg.sender == admin */\n      eq\n        /* \"Voting.sol\":1711:1777  require(msg.sender == admin, \"Only admin can perform this action\") */\n      tag_245\n      jumpi\n      mload(0x40)\n      shl(0xe5, 0x461bcd)\n      dup2\n      mstore\n        /* \"#utility.yul\":9874:9876   */\n      0x20\n        /* \"Voting.sol\":1711:1777  require(msg.sender == admin, \"Only admin can perform this action\") */\n      0x04\n      dup3\n      add\n        /* \"#utility.yul\":9856:9877   */\n      mstore\n        /* \"#utility.yul\":9913:9915   */\n      0x22\n        /* \"#utility.yul\":9893:9911   */\n      0x24\n      dup3\n      add\n        /* \"#utility.yul\":9886:9916   */\n      mstore\n        /* \"#utility.yul\":9952:9986   */\n      0x4f6e6c792061646d696e2063616e20706572666f726d20746869732061637469\n        /* \"#utility.yul\":9932:9950   */\n      0x44\n      dup3\n      add\n        /* \"#utility.yul\":9925:9987   */\n      mstore\n      shl(0xf1, 0x37b7)\n        /* \"#utility.yul\":10003:10021   */\n      0x64\n      dup3\n      add\n        /* \"#utility.yul\":9996:10028   */\n      mstore\n        /* \"#utility.yul\":10045:10064   */\n      0x84\n      add\n        /* \"Voting.sol\":1711:1777  require(msg.sender == admin, \"Only admin can perform this action\") */\n      tag_103\n        /* \"#utility.yul\":9672:10070   */\n      jump\n        /* \"Voting.sol\":1711:1777  require(msg.sender == admin, \"Only admin can perform this action\") */\n    tag_245:\n        /* \"Voting.sol\":3574:3585  _electionId */\n      dup4\n        /* \"Voting.sol\":1883:1884  0 */\n      0x00\n        /* \"Voting.sol\":1869:1880  _electionId */\n      dup2\n        /* \"Voting.sol\":1869:1884  _electionId > 0 */\n      gt\n        /* \"Voting.sol\":1869:1916  _electionId > 0 && _electionId <= electionCount */\n      dup1\n      iszero\n      tag_248\n      jumpi\n      pop\n        /* \"Voting.sol\":1903:1916  electionCount */\n      sload(0x04)\n        /* \"Voting.sol\":1888:1899  _electionId */\n      dup2\n        /* \"Voting.sol\":1888:1916  _electionId <= electionCount */\n      gt\n      iszero\n        /* \"Voting.sol\":1869:1916  _electionId > 0 && _electionId <= electionCount */\n    tag_248:\n        /* \"Voting.sol\":1861:1944  require(_electionId > 0 && _electionId <= electionCount, \"Election does not exist\") */\n      tag_249\n      jumpi\n      mload(0x40)\n      shl(0xe5, 0x461bcd)\n      dup2\n      mstore\n        /* \"#utility.yul\":8785:8787   */\n      0x20\n        /* \"Voting.sol\":1861:1944  require(_electionId > 0 && _electionId <= electionCount, \"Election does not exist\") */\n      0x04\n      dup3\n      add\n        /* \"#utility.yul\":8767:8788   */\n      mstore\n        /* \"#utility.yul\":8824:8826   */\n      0x17\n        /* \"#utility.yul\":8804:8822   */\n      0x24\n      dup3\n      add\n        /* \"#utility.yul\":8797:8827   */\n      mstore\n      shl(0x4a, 0x115b1958dd1a5bdb88191bd95cc81b9bdd08195e1a5cdd)\n        /* \"#utility.yul\":8843:8861   */\n      0x44\n      dup3\n      add\n        /* \"#utility.yul\":8836:8889   */\n      mstore\n        /* \"#utility.yul\":8906:8924   */\n      0x64\n      add\n        /* \"Voting.sol\":1861:1944  require(_electionId > 0 && _electionId <= electionCount, \"Election does not exist\") */\n      tag_103\n        /* \"#utility.yul\":8583:8930   */\n      jump\n        /* \"Voting.sol\":1861:1944  require(_electionId > 0 && _electionId <= electionCount, \"Election does not exist\") */\n    tag_249:\n        /* \"Voting.sol\":3598:3623  Election storage election */\n      0x00\n        /* \"Voting.sol\":3626:3648  elections[_electionId] */\n      dup6\n      dup2\n      mstore\n      0x20\n      dup2\n      swap1\n      mstore\n      0x40\n      swap1\n      keccak256\n        /* \"Voting.sol\":3685:3703  election.startTime */\n      0x03\n      dup2\n      add\n      sload\n        /* \"Voting.sol\":3667:3682  block.timestamp */\n      timestamp\n        /* \"Voting.sol\":3667:3703  block.timestamp < election.startTime */\n      lt\n        /* \"Voting.sol\":3659:3751  require(block.timestamp < election.startTime, \"Cannot add candidates after election starts\") */\n      tag_252\n      jumpi\n      mload(0x40)\n      shl(0xe5, 0x461bcd)\n      dup2\n      mstore\n        /* \"#utility.yul\":16305:16307   */\n      0x20\n        /* \"Voting.sol\":3659:3751  require(block.timestamp < election.startTime, \"Cannot add candidates after election starts\") */\n      0x04\n      dup3\n      add\n        /* \"#utility.yul\":16287:16308   */\n      mstore\n        /* \"#utility.yul\":16344:16346   */\n      0x2b\n        /* \"#utility.yul\":16324:16342   */\n      0x24\n      dup3\n      add\n        /* \"#utility.yul\":16317:16347   */\n      mstore\n        /* \"#utility.yul\":16383:16417   */\n      0x43616e6e6f74206164642063616e6469646174657320616674657220656c6563\n        /* \"#utility.yul\":16363:16381   */\n      0x44\n      dup3\n      add\n        /* \"#utility.yul\":16356:16418   */\n      mstore\n        /* \"#utility.yul\":16454:16467   */\n      0x74696f6e20737461727473000000000000000000000000000000000000000000\n        /* \"#utility.yul\":16434:16452   */\n      0x64\n      dup3\n      add\n        /* \"#utility.yul\":16427:16468   */\n      mstore\n        /* \"#utility.yul\":16485:16504   */\n      0x84\n      add\n        /* \"Voting.sol\":3659:3751  require(block.timestamp < election.startTime, \"Cannot add candidates after election starts\") */\n      tag_103\n        /* \"#utility.yul\":16103:16510   */\n      jump\n        /* \"Voting.sol\":3659:3751  require(block.timestamp < election.startTime, \"Cannot add candidates after election starts\") */\n    tag_252:\n        /* \"Voting.sol\":3772:3795  election.candidateCount */\n      0x06\n      dup2\n      add\n        /* \"Voting.sol\":3772:3797  election.candidateCount++ */\n      dup1\n      sload\n      swap1\n        /* \"Voting.sol\":3772:3795  election.candidateCount */\n      0x00\n        /* \"Voting.sol\":3772:3797  election.candidateCount++ */\n      tag_255\n      dup4\n      tag_157\n      jump\t// in\n    tag_255:\n      swap1\n      swap2\n      sstore\n      pop\n      pop\n        /* \"Voting.sol\":3869:4048  Candidate({... */\n      0x40\n      dup1\n      mload\n      0xa0\n      dup2\n      add\n      dup3\n      mstore\n        /* \"Voting.sol\":3898:3921  election.candidateCount */\n      0x06\n      dup4\n      add\n      sload\n        /* \"Voting.sol\":3869:4048  Candidate({... */\n      dup1\n      dup3\n      mstore\n      0x20\n      dup1\n      dup4\n      add\n      dup10\n      dup2\n      mstore\n      dup4\n      dup6\n      add\n      dup10\n      swap1\n      mstore\n      0x60\n      dup5\n      add\n      dup9\n      swap1\n      mstore\n      0x00\n      0x80\n      dup6\n      add\n      dup2\n      swap1\n      mstore\n        /* \"Voting.sol\":3818:3841  candidates[_electionId] */\n      dup12\n      dup2\n      mstore\n        /* \"Voting.sol\":3818:3828  candidates */\n      0x01\n        /* \"Voting.sol\":3818:3841  candidates[_electionId] */\n      dup1\n      dup5\n      mstore\n      dup7\n      dup3\n      keccak256\n        /* \"Voting.sol\":3818:3866  candidates[_electionId][election.candidateCount] */\n      swap5\n      dup3\n      mstore\n      swap4\n      swap1\n      swap3\n      mstore\n      swap4\n      swap1\n      keccak256\n        /* \"Voting.sol\":3818:4048  candidates[_electionId][election.candidateCount] = Candidate({... */\n      dup3\n      mload\n      dup2\n      sstore\n      swap3\n      mload\n        /* \"Voting.sol\":3869:4048  Candidate({... */\n      swap2\n      swap3\n        /* \"Voting.sol\":3818:3866  candidates[_electionId][election.candidateCount] */\n      swap2\n        /* \"Voting.sol\":3818:4048  candidates[_electionId][election.candidateCount] = Candidate({... */\n      swap1\n      dup3\n      add\n      swap1\n      tag_256\n      swap1\n      dup3\n      tag_159\n      jump\t// in\n    tag_256:\n      pop\n      0x40\n      dup3\n      add\n      mload\n      0x02\n      dup3\n      add\n      swap1\n      tag_257\n      swap1\n      dup3\n      tag_159\n      jump\t// in\n    tag_257:\n      pop\n      0x60\n      dup3\n      add\n      mload\n      0x03\n      dup3\n      add\n      swap1\n      tag_258\n      swap1\n      dup3\n      tag_159\n      jump\t// in\n    tag_258:\n      pop\n      0x80\n      dup3\n      add\n      mload\n      dup2\n      0x04\n      add\n      sstore\n      swap1\n      pop\n      pop\n        /* \"Voting.sol\":4081:4092  _electionId */\n      dup6\n        /* \"Voting.sol\":4066:4133  CandidateAdded(_electionId, election.candidateCount, _name, _party) */\n      0x503cfceb0fb2178c5fb47ff394c816e4075abc8066c3dcb16d08a76847ee6e16\n        /* \"Voting.sol\":4094:4102  election */\n      dup3\n        /* \"Voting.sol\":4094:4117  election.candidateCount */\n      0x06\n      add\n      sload\n        /* \"Voting.sol\":4119:4124  _name */\n      dup8\n        /* \"Voting.sol\":4126:4132  _party */\n      dup8\n        /* \"Voting.sol\":4066:4133  CandidateAdded(_electionId, election.candidateCount, _name, _party) */\n      mload(0x40)\n      tag_259\n      swap4\n      swap3\n      swap2\n      swap1\n      tag_260\n      jump\t// in\n    tag_259:\n      mload(0x40)\n      dup1\n      swap2\n      sub\n      swap1\n      log2\n        /* \"Voting.sol\":3587:4141  {... */\n      pop\n        /* \"Voting.sol\":1788:1789  _ */\n      pop\n        /* \"Voting.sol\":3388:4141  function addCandidate(... */\n      pop\n      pop\n      pop\n      pop\n      jump\t// out\n        /* \"Voting.sol\":5901:6169  function setElectionStatus(uint256 _electionId, bool _isActive) ... */\n    tag_85:\n        /* \"Voting.sol\":1733:1738  admin */\n      and(sub(shl(0xa0, 0x01), 0x01), sload(0x05))\n        /* \"Voting.sol\":1719:1729  msg.sender */\n      caller\n        /* \"Voting.sol\":1719:1738  msg.sender == admin */\n      eq\n        /* \"Voting.sol\":1711:1777  require(msg.sender == admin, \"Only admin can perform this action\") */\n      tag_262\n      jumpi\n      mload(0x40)\n      shl(0xe5, 0x461bcd)\n      dup2\n      mstore\n        /* \"#utility.yul\":9874:9876   */\n      0x20\n        /* \"Voting.sol\":1711:1777  require(msg.sender == admin, \"Only admin can perform this action\") */\n      0x04\n      dup3\n      add\n        /* \"#utility.yul\":9856:9877   */\n      mstore\n        /* \"#utility.yul\":9913:9915   */\n      0x22\n        /* \"#utility.yul\":9893:9911   */\n      0x24\n      dup3\n      add\n        /* \"#utility.yul\":9886:9916   */\n      mstore\n        /* \"#utility.yul\":9952:9986   */\n      0x4f6e6c792061646d696e2063616e20706572666f726d20746869732061637469\n        /* \"#utility.yul\":9932:9950   */\n      0x44\n      dup3\n      add\n        /* \"#utility.yul\":9925:9987   */\n      mstore\n      shl(0xf1, 0x37b7)\n        /* \"#utility.yul\":10003:10021   */\n      0x64\n      dup3\n      add\n        /* \"#utility.yul\":9996:10028   */\n      mstore\n        /* \"#utility.yul\":10045:10064   */\n      0x84\n      add\n        /* \"Voting.sol\":1711:1777  require(msg.sender == admin, \"Only admin can perform this action\") */\n      tag_103\n        /* \"#utility.yul\":9672:10070   */\n      jump\n        /* \"Voting.sol\":1711:1777  require(msg.sender == admin, \"Only admin can perform this action\") */\n    tag_262:\n        /* \"Voting.sol\":6027:6038  _electionId */\n      dup2\n        /* \"Voting.sol\":1883:1884  0 */\n      0x00\n        /* \"Voting.sol\":1869:1880  _electionId */\n      dup2\n        /* \"Voting.sol\":1869:1884  _electionId > 0 */\n      gt\n        /* \"Voting.sol\":1869:1916  _electionId > 0 && _electionId <= electionCount */\n      dup1\n      iszero\n      tag_265\n      jumpi\n      pop\n        /* \"Voting.sol\":1903:1916  electionCount */\n      sload(0x04)\n        /* \"Voting.sol\":1888:1899  _electionId */\n      dup2\n        /* \"Voting.sol\":1888:1916  _electionId <= electionCount */\n      gt\n      iszero\n        /* \"Voting.sol\":1869:1916  _electionId > 0 && _electionId <= electionCount */\n    tag_265:\n        /* \"Voting.sol\":1861:1944  require(_electionId > 0 && _electionId <= electionCount, \"Election does not exist\") */\n      tag_266\n      jumpi\n      mload(0x40)\n      shl(0xe5, 0x461bcd)\n      dup2\n      mstore\n        /* \"#utility.yul\":8785:8787   */\n      0x20\n        /* \"Voting.sol\":1861:1944  require(_electionId > 0 && _electionId <= electionCount, \"Election does not exist\") */\n      0x04\n      dup3\n      add\n        /* \"#utility.yul\":8767:8788   */\n      mstore\n        /* \"#utility.yul\":8824:8826   */\n      0x17\n        /* \"#utility.yul\":8804:8822   */\n      0x24\n      dup3\n      add\n        /* \"#utility.yul\":8797:8827   */\n      mstore\n      shl(0x4a, 0x115b1958dd1a5bdb88191bd95cc81b9bdd08195e1a5cdd)\n        /* \"#utility.yul\":8843:8861   */\n      0x44\n      dup3\n      add\n        /* \"#utility.yul\":8836:8889   */\n      mstore\n        /* \"#utility.yul\":8906:8924   */\n      0x64\n      add\n        /* \"Voting.sol\":1861:1944  require(_electionId > 0 && _electionId <= electionCount, \"Election does not exist\") */\n      tag_103\n        /* \"#utility.yul\":8583:8930   */\n      jump\n        /* \"Voting.sol\":1861:1944  require(_electionId > 0 && _electionId <= electionCount, \"Election does not exist\") */\n    tag_266:\n        /* \"Voting.sol\":6057:6066  elections */\n      0x00\n        /* \"Voting.sol\":6057:6079  elections[_electionId] */\n      dup4\n      dup2\n      mstore\n      0x20\n      dup2\n      dup2\n      mstore\n      0x40\n      swap2\n      dup3\n      swap1\n      keccak256\n        /* \"Voting.sol\":6057:6088  elections[_electionId].isActive */\n      0x05\n      add\n        /* \"Voting.sol\":6057:6100  elections[_electionId].isActive = _isActive */\n      dup1\n      sload\n      not(0xff)\n      and\n      dup6\n      iszero\n      iszero\n      swap1\n      dup2\n      or\n      swap1\n      swap2\n      sstore\n        /* \"Voting.sol\":6116:6161  ElectionStatusChanged(_electionId, _isActive) */\n      swap2\n      mload\n        /* \"#utility.yul\":796:837   */\n      swap2\n      dup3\n      mstore\n        /* \"Voting.sol\":6057:6079  elections[_electionId] */\n      dup5\n      swap2\n        /* \"Voting.sol\":6116:6161  ElectionStatusChanged(_electionId, _isActive) */\n      0x550243ff1a84cc99f7f82bfd2e29380f33523ca72cde0783141c25ed8f4dede3\n      swap2\n        /* \"#utility.yul\":769:787   */\n      add\n        /* \"Voting.sol\":6116:6161  ElectionStatusChanged(_electionId, _isActive) */\n      mload(0x40)\n      dup1\n      swap2\n      sub\n      swap1\n      log2\n        /* \"Voting.sol\":1788:1789  _ */\n      pop\n        /* \"Voting.sol\":5901:6169  function setElectionStatus(uint256 _electionId, bool _isActive) ... */\n      pop\n      pop\n      jump\t// out\n        /* \"Voting.sol\":8970:9429  function getElectionResults(uint256 _electionId)... */\n    tag_88:\n        /* \"Voting.sol\":9104:9120  uint256[] memory */\n      0x60\n        /* \"Voting.sol\":9073:9084  _electionId */\n      dup2\n        /* \"Voting.sol\":1883:1884  0 */\n      0x00\n        /* \"Voting.sol\":1869:1880  _electionId */\n      dup2\n        /* \"Voting.sol\":1869:1884  _electionId > 0 */\n      gt\n        /* \"Voting.sol\":1869:1916  _electionId > 0 && _electionId <= electionCount */\n      dup1\n      iszero\n      tag_271\n      jumpi\n      pop\n        /* \"Voting.sol\":1903:1916  electionCount */\n      sload(0x04)\n        /* \"Voting.sol\":1888:1899  _electionId */\n      dup2\n        /* \"Voting.sol\":1888:1916  _electionId <= electionCount */\n      gt\n      iszero\n        /* \"Voting.sol\":1869:1916  _electionId > 0 && _electionId <= electionCount */\n    tag_271:\n        /* \"Voting.sol\":1861:1944  require(_electionId > 0 && _electionId <= electionCount, \"Election does not exist\") */\n      tag_272\n      jumpi\n      mload(0x40)\n      shl(0xe5, 0x461bcd)\n      dup2\n      mstore\n        /* \"#utility.yul\":8785:8787   */\n      0x20\n        /* \"Voting.sol\":1861:1944  require(_electionId > 0 && _electionId <= electionCount, \"Election does not exist\") */\n      0x04\n      dup3\n      add\n        /* \"#utility.yul\":8767:8788   */\n      mstore\n        /* \"#utility.yul\":8824:8826   */\n      0x17\n        /* \"#utility.yul\":8804:8822   */\n      0x24\n      dup3\n      add\n        /* \"#utility.yul\":8797:8827   */\n      mstore\n      shl(0x4a, 0x115b1958dd1a5bdb88191bd95cc81b9bdd08195e1a5cdd)\n        /* \"#utility.yul\":8843:8861   */\n      0x44\n      dup3\n      add\n        /* \"#utility.yul\":8836:8889   */\n      mstore\n        /* \"#utility.yul\":8906:8924   */\n      0x64\n      add\n        /* \"Voting.sol\":1861:1944  require(_electionId > 0 && _electionId <= electionCount, \"Election does not exist\") */\n      tag_103\n        /* \"#utility.yul\":8583:8930   */\n      jump\n        /* \"Voting.sol\":1861:1944  require(_electionId > 0 && _electionId <= electionCount, \"Election does not exist\") */\n    tag_272:\n        /* \"Voting.sol\":9138:9151  uint256 count */\n      0x00\n        /* \"Voting.sol\":9154:9176  elections[_electionId] */\n      dup4\n      dup2\n      mstore\n      0x20\n      dup2\n      swap1\n      mstore\n      0x40\n      dup2\n      keccak256\n        /* \"Voting.sol\":9154:9191  elections[_electionId].candidateCount */\n      0x06\n      add\n      sload\n      swap1\n      dup2\n        /* \"Voting.sol\":9229:9249  new uint256[](count) */\n      0xffffffffffffffff\n      dup2\n      gt\n      iszero\n      tag_276\n      jumpi\n      tag_276\n      tag_277\n      jump\t// in\n    tag_276:\n      mload(0x40)\n      swap1\n      dup1\n      dup3\n      mstore\n      dup1\n      0x20\n      mul\n      0x20\n      add\n      dup3\n      add\n      0x40\n      mstore\n      dup1\n      iszero\n      tag_278\n      jumpi\n      dup2\n      0x20\n      add\n      0x20\n      dup3\n      mul\n      dup1\n      calldatasize\n      dup4\n      calldatacopy\n      add\n      swap1\n      pop\n    tag_278:\n      pop\n        /* \"Voting.sol\":9202:9249  uint256[] memory results = new uint256[](count) */\n      swap1\n      pop\n        /* \"Voting.sol\":9287:9288  1 */\n      0x01\n        /* \"Voting.sol\":9270:9387  for (uint256 i = 1; i <= count; i++) {... */\n    tag_279:\n        /* \"Voting.sol\":9295:9300  count */\n      dup3\n        /* \"Voting.sol\":9290:9291  i */\n      dup2\n        /* \"Voting.sol\":9290:9300  i <= count */\n      gt\n        /* \"Voting.sol\":9270:9387  for (uint256 i = 1; i <= count; i++) {... */\n      tag_280\n      jumpi\n        /* \"Voting.sol\":9339:9362  candidates[_electionId] */\n      0x00\n      dup7\n      dup2\n      mstore\n        /* \"Voting.sol\":9339:9349  candidates */\n      0x01\n        /* \"Voting.sol\":9339:9362  candidates[_electionId] */\n      0x20\n      dup2\n      dup2\n      mstore\n      0x40\n      dup1\n      dup5\n      keccak256\n        /* \"Voting.sol\":9339:9365  candidates[_electionId][i] */\n      dup6\n      dup6\n      mstore\n      swap1\n      swap2\n      mstore\n      swap1\n      swap2\n      keccak256\n        /* \"Voting.sol\":9339:9375  candidates[_electionId][i].voteCount */\n      0x04\n      add\n      sload\n      swap1\n        /* \"Voting.sol\":9322:9329  results */\n      dup4\n      swap1\n        /* \"Voting.sol\":9330:9335  i - 1 */\n      tag_282\n      swap1\n        /* \"Voting.sol\":9363:9364  i */\n      dup5\n        /* \"Voting.sol\":9330:9335  i - 1 */\n      tag_283\n      jump\t// in\n    tag_282:\n        /* \"Voting.sol\":9322:9336  results[i - 1] */\n      dup2\n      mload\n      dup2\n      lt\n      tag_285\n      jumpi\n      tag_285\n      tag_286\n      jump\t// in\n    tag_285:\n      0x20\n      swap1\n      dup2\n      mul\n      swap2\n      swap1\n      swap2\n      add\n      add\n        /* \"Voting.sol\":9322:9375  results[i - 1] = candidates[_electionId][i].voteCount */\n      mstore\n        /* \"Voting.sol\":9302:9305  i++ */\n      dup1\n      tag_287\n      dup2\n      tag_157\n      jump\t// in\n    tag_287:\n      swap2\n      pop\n      pop\n        /* \"Voting.sol\":9270:9387  for (uint256 i = 1; i <= count; i++) {... */\n      jump(tag_279)\n    tag_280:\n      pop\n        /* \"Voting.sol\":9414:9421  results */\n      swap3\n      pop\n      pop\n        /* \"Voting.sol\":1955:1956  _ */\n    tag_274:\n        /* \"Voting.sol\":8970:9429  function getElectionResults(uint256 _electionId)... */\n      pop\n      swap2\n      swap1\n      pop\n      jump\t// out\n        /* \"Voting.sol\":6911:7382  function getAllCandidates(uint256 _electionId)... */\n    tag_97:\n        /* \"Voting.sol\":7043:7061  Candidate[] memory */\n      0x60\n        /* \"Voting.sol\":7012:7023  _electionId */\n      dup2\n        /* \"Voting.sol\":1883:1884  0 */\n      0x00\n        /* \"Voting.sol\":1869:1880  _electionId */\n      dup2\n        /* \"Voting.sol\":1869:1884  _electionId > 0 */\n      gt\n        /* \"Voting.sol\":1869:1916  _electionId > 0 && _electionId <= electionCount */\n      dup1\n      iszero\n      tag_289\n      jumpi\n      pop\n        /* \"Voting.sol\":1903:1916  electionCount */\n      sload(0x04)\n        /* \"Voting.sol\":1888:1899  _electionId */\n      dup2\n        /* \"Voting.sol\":1888:1916  _electionId <= electionCount */\n      gt\n      iszero\n        /* \"Voting.sol\":1869:1916  _electionId > 0 && _electionId <= electionCount */\n    tag_289:\n        /* \"Voting.sol\":1861:1944  require(_electionId > 0 && _electionId <= electionCount, \"Election does not exist\") */\n      tag_290\n      jumpi\n      mload(0x40)\n      shl(0xe5, 0x461bcd)\n      dup2\n      mstore\n        /* \"#utility.yul\":8785:8787   */\n      0x20\n        /* \"Voting.sol\":1861:1944  require(_electionId > 0 && _electionId <= electionCount, \"Election does not exist\") */\n      0x04\n      dup3\n      add\n        /* \"#utility.yul\":8767:8788   */\n      mstore\n        /* \"#utility.yul\":8824:8826   */\n      0x17\n        /* \"#utility.yul\":8804:8822   */\n      0x24\n      dup3\n      add\n        /* \"#utility.yul\":8797:8827   */\n      mstore\n      shl(0x4a, 0x115b1958dd1a5bdb88191bd95cc81b9bdd08195e1a5cdd)\n        /* \"#utility.yul\":8843:8861   */\n      0x44\n      dup3\n      add\n        /* \"#utility.yul\":8836:8889   */\n      mstore\n        /* \"#utility.yul\":8906:8924   */\n      0x64\n      add\n        /* \"Voting.sol\":1861:1944  require(_electionId > 0 && _electionId <= electionCount, \"Election does not exist\") */\n      tag_103\n        /* \"#utility.yul\":8583:8930   */\n      jump\n        /* \"Voting.sol\":1861:1944  require(_electionId > 0 && _electionId <= electionCount, \"Election does not exist\") */\n    tag_290:\n        /* \"Voting.sol\":7079:7092  uint256 count */\n      0x00\n        /* \"Voting.sol\":7095:7117  elections[_electionId] */\n      dup4\n      dup2\n      mstore\n      0x20\n      dup2\n      swap1\n      mstore\n      0x40\n      dup2\n      keccak256\n        /* \"Voting.sol\":7095:7132  elections[_electionId].candidateCount */\n      0x06\n      add\n      sload\n      swap1\n      dup2\n        /* \"Voting.sol\":7178:7200  new Candidate[](count) */\n      0xffffffffffffffff\n      dup2\n      gt\n      iszero\n      tag_294\n      jumpi\n      tag_294\n      tag_277\n      jump\t// in\n    tag_294:\n      mload(0x40)\n      swap1\n      dup1\n      dup3\n      mstore\n      dup1\n      0x20\n      mul\n      0x20\n      add\n      dup3\n      add\n      0x40\n      mstore\n      dup1\n      iszero\n      tag_295\n      jumpi\n      dup2\n      0x20\n      add\n    tag_296:\n      tag_297\n      mload(0x40)\n      dup1\n      0xa0\n      add\n      0x40\n      mstore\n      dup1\n      0x00\n      dup2\n      mstore\n      0x20\n      add\n      0x60\n      dup2\n      mstore\n      0x20\n      add\n      0x60\n      dup2\n      mstore\n      0x20\n      add\n      0x60\n      dup2\n      mstore\n      0x20\n      add\n      0x00\n      dup2\n      mstore\n      pop\n      swap1\n      jump\n    tag_297:\n      dup2\n      mstore\n      0x20\n      add\n      swap1\n      0x01\n      swap1\n      sub\n      swap1\n      dup2\n      tag_296\n      jumpi\n      swap1\n      pop\n    tag_295:\n      pop\n        /* \"Voting.sol\":7143:7200  Candidate[] memory allCandidates = new Candidate[](count) */\n      swap1\n      pop\n        /* \"Voting.sol\":7238:7239  1 */\n      0x01\n        /* \"Voting.sol\":7221:7334  for (uint256 i = 1; i <= count; i++) {... */\n    tag_299:\n        /* \"Voting.sol\":7246:7251  count */\n      dup3\n        /* \"Voting.sol\":7241:7242  i */\n      dup2\n        /* \"Voting.sol\":7241:7251  i <= count */\n      gt\n        /* \"Voting.sol\":7221:7334  for (uint256 i = 1; i <= count; i++) {... */\n      tag_280\n      jumpi\n        /* \"Voting.sol\":7296:7319  candidates[_electionId] */\n      0x00\n      dup7\n      dup2\n      mstore\n        /* \"Voting.sol\":7296:7306  candidates */\n      0x01\n        /* \"Voting.sol\":7296:7319  candidates[_electionId] */\n      0x20\n      dup2\n      dup2\n      mstore\n      0x40\n      dup1\n      dup5\n      keccak256\n        /* \"Voting.sol\":7296:7322  candidates[_electionId][i] */\n      dup6\n      dup6\n      mstore\n      dup3\n      mstore\n      swap3\n      dup4\n      swap1\n      keccak256\n        /* \"Voting.sol\":7273:7322  allCandidates[i - 1] = candidates[_electionId][i] */\n      dup4\n      mload\n      0xa0\n      dup2\n      add\n      swap1\n      swap5\n      mstore\n      dup1\n      sload\n      dup5\n      mstore\n      swap2\n      dup3\n      add\n      dup1\n      sload\n      swap2\n      dup5\n      add\n      swap2\n      tag_302\n      swap1\n      tag_115\n      jump\t// in\n    tag_302:\n      dup1\n      0x1f\n      add\n      0x20\n      dup1\n      swap2\n      div\n      mul\n      0x20\n      add\n      mload(0x40)\n      swap1\n      dup2\n      add\n      0x40\n      mstore\n      dup1\n      swap3\n      swap2\n      swap1\n      dup2\n      dup2\n      mstore\n      0x20\n      add\n      dup3\n      dup1\n      sload\n      tag_303\n      swap1\n      tag_115\n      jump\t// in\n    tag_303:\n      dup1\n      iszero\n      tag_304\n      jumpi\n      dup1\n      0x1f\n      lt\n      tag_305\n      jumpi\n      0x0100\n      dup1\n      dup4\n      sload\n      div\n      mul\n      dup4\n      mstore\n      swap2\n      0x20\n      add\n      swap2\n      jump(tag_304)\n    tag_305:\n      dup3\n      add\n      swap2\n      swap1\n      0x00\n      mstore\n      keccak256(0x00, 0x20)\n      swap1\n    tag_306:\n      dup2\n      sload\n      dup2\n      mstore\n      swap1\n      0x01\n      add\n      swap1\n      0x20\n      add\n      dup1\n      dup4\n      gt\n      tag_306\n      jumpi\n      dup3\n      swap1\n      sub\n      0x1f\n      and\n      dup3\n      add\n      swap2\n    tag_304:\n      pop\n      pop\n      pop\n      pop\n      pop\n      dup2\n      mstore\n      0x20\n      add\n      0x02\n      dup3\n      add\n      dup1\n      sload\n      tag_307\n      swap1\n      tag_115\n      jump\t// in\n    tag_307:\n      dup1\n      0x1f\n      add\n      0x20\n      dup1\n      swap2\n      div\n      mul\n      0x20\n      add\n      mload(0x40)\n      swap1\n      dup2\n      add\n      0x40\n      mstore\n      dup1\n      swap3\n      swap2\n      swap1\n      dup2\n      dup2\n      mstore\n      0x20\n      add\n      dup3\n      dup1\n      sload\n      tag_308\n      swap1\n      tag_115\n      jump\t// in\n    tag_308:\n      dup1\n      iszero\n      tag_309\n      jumpi\n      dup1\n      0x1f\n      lt\n      tag_310\n      jumpi\n      0x0100\n      dup1\n      dup4\n      sload\n      div\n      mul\n      dup4\n      mstore\n      swap2\n      0x20\n      add\n      swap2\n      jump(tag_309)\n    tag_310:\n      dup3\n      add\n      swap2\n      swap1\n      0x00\n      mstore\n      keccak256(0x00, 0x20)\n      swap1\n    tag_311:\n      dup2\n      sload\n      dup2\n      mstore\n      swap1\n      0x01\n      add\n      swap1\n      0x20\n      add\n      dup1\n      dup4\n      gt\n      tag_311\n      jumpi\n      dup3\n      swap1\n      sub\n      0x1f\n      and\n      dup3\n      add\n      swap2\n    tag_309:\n      pop\n      pop\n      pop\n      pop\n      pop\n      dup2\n      mstore\n      0x20\n      add\n      0x03\n      dup3\n      add\n      dup1\n      sload\n      tag_312\n      swap1\n      tag_115\n      jump\t// in\n    tag_312:\n      dup1\n      0x1f\n      add\n      0x20\n      dup1\n      swap2\n      div\n      mul\n      0x20\n      add\n      mload(0x40)\n      swap1\n      dup2\n      add\n      0x40\n      mstore\n      dup1\n      swap3\n      swap2\n      swap1\n      dup2\n      dup2\n      mstore\n      0x20\n      add\n      dup3\n      dup1\n      sload\n      tag_313\n      swap1\n      tag_115\n      jump\t// in\n    tag_313:\n      dup1\n      iszero\n      tag_314\n      jumpi\n      dup1\n      0x1f\n      lt\n      tag_315\n      jumpi\n      0x0100\n      dup1\n      dup4\n      sload\n      div\n      mul\n      dup4\n      mstore\n      swap2\n      0x20\n      add\n      swap2\n      jump(tag_314)\n    tag_315:\n      dup3\n      add\n      swap2\n      swap1\n      0x00\n      mstore\n      keccak256(0x00, 0x20)\n      swap1\n    tag_316:\n      dup2\n      sload\n      dup2\n      mstore\n      swap1\n      0x01\n      add\n      swap1\n      0x20\n      add\n      dup1\n      dup4\n      gt\n      tag_316\n      jumpi\n      dup3\n      swap1\n      sub\n      0x1f\n      and\n      dup3\n      add\n      swap2\n    tag_314:\n      pop\n      pop\n      pop\n      pop\n      pop\n      dup2\n      mstore\n      0x20\n      add\n      0x04\n      dup3\n      add\n      sload\n      dup2\n      mstore\n      pop\n      pop\n        /* \"Voting.sol\":7273:7286  allCandidates */\n      dup3\n        /* \"Voting.sol\":7291:7292  1 */\n      0x01\n        /* \"Voting.sol\":7287:7288  i */\n      dup4\n        /* \"Voting.sol\":7287:7292  i - 1 */\n      tag_317\n      swap2\n      swap1\n      tag_283\n      jump\t// in\n    tag_317:\n        /* \"Voting.sol\":7273:7293  allCandidates[i - 1] */\n      dup2\n      mload\n      dup2\n      lt\n      tag_319\n      jumpi\n      tag_319\n      tag_286\n      jump\t// in\n    tag_319:\n      0x20\n      mul\n      0x20\n      add\n      add\n        /* \"Voting.sol\":7273:7322  allCandidates[i - 1] = candidates[_electionId][i] */\n      dup2\n      swap1\n      mstore\n      pop\n        /* \"Voting.sol\":7253:7256  i++ */\n      dup1\n      dup1\n      tag_320\n      swap1\n      tag_157\n      jump\t// in\n    tag_320:\n      swap2\n      pop\n      pop\n        /* \"Voting.sol\":7221:7334  for (uint256 i = 1; i <= count; i++) {... */\n      jump(tag_299)\n        /* \"#utility.yul\":14:210   */\n    tag_321:\n        /* \"#utility.yul\":82:102   */\n      dup1\n      calldataload\n      sub(shl(0xa0, 0x01), 0x01)\n        /* \"#utility.yul\":131:185   */\n      dup2\n      and\n        /* \"#utility.yul\":121:186   */\n      dup2\n      eq\n        /* \"#utility.yul\":111:204   */\n      tag_330\n      jumpi\n        /* \"#utility.yul\":200:201   */\n      0x00\n        /* \"#utility.yul\":197:198   */\n      dup1\n        /* \"#utility.yul\":190:202   */\n      revert\n        /* \"#utility.yul\":111:204   */\n    tag_330:\n        /* \"#utility.yul\":14:210   */\n      swap2\n      swap1\n      pop\n      jump\t// out\n        /* \"#utility.yul\":215:469   */\n    tag_26:\n        /* \"#utility.yul\":283:289   */\n      0x00\n        /* \"#utility.yul\":291:297   */\n      dup1\n        /* \"#utility.yul\":344:346   */\n      0x40\n        /* \"#utility.yul\":332:341   */\n      dup4\n        /* \"#utility.yul\":323:330   */\n      dup6\n        /* \"#utility.yul\":319:342   */\n      sub\n        /* \"#utility.yul\":315:347   */\n      slt\n        /* \"#utility.yul\":312:364   */\n      iszero\n      tag_332\n      jumpi\n        /* \"#utility.yul\":360:361   */\n      0x00\n        /* \"#utility.yul\":357:358   */\n      dup1\n        /* \"#utility.yul\":350:362   */\n      revert\n        /* \"#utility.yul\":312:364   */\n    tag_332:\n        /* \"#utility.yul\":396:405   */\n      dup3\n        /* \"#utility.yul\":383:406   */\n      calldataload\n        /* \"#utility.yul\":373:406   */\n      swap2\n      pop\n        /* \"#utility.yul\":425:463   */\n      tag_333\n        /* \"#utility.yul\":459:461   */\n      0x20\n        /* \"#utility.yul\":448:457   */\n      dup5\n        /* \"#utility.yul\":444:462   */\n      add\n        /* \"#utility.yul\":425:463   */\n      tag_321\n      jump\t// in\n    tag_333:\n        /* \"#utility.yul\":415:463   */\n      swap1\n      pop\n        /* \"#utility.yul\":215:469   */\n      swap3\n      pop\n      swap3\n      swap1\n      pop\n      jump\t// out\n        /* \"#utility.yul\":848:1096   */\n    tag_37:\n        /* \"#utility.yul\":916:922   */\n      0x00\n        /* \"#utility.yul\":924:930   */\n      dup1\n        /* \"#utility.yul\":977:979   */\n      0x40\n        /* \"#utility.yul\":965:974   */\n      dup4\n        /* \"#utility.yul\":956:963   */\n      dup6\n        /* \"#utility.yul\":952:975   */\n      sub\n        /* \"#utility.yul\":948:980   */\n      slt\n        /* \"#utility.yul\":945:997   */\n      iszero\n      tag_337\n      jumpi\n        /* \"#utility.yul\":993:994   */\n      0x00\n        /* \"#utility.yul\":990:991   */\n      dup1\n        /* \"#utility.yul\":983:995   */\n      revert\n        /* \"#utility.yul\":945:997   */\n    tag_337:\n      pop\n      pop\n        /* \"#utility.yul\":1016:1039   */\n      dup1\n      calldataload\n      swap3\n        /* \"#utility.yul\":1086:1088   */\n      0x20\n        /* \"#utility.yul\":1071:1089   */\n      swap1\n      swap2\n      add\n        /* \"#utility.yul\":1058:1090   */\n      calldataload\n      swap2\n      pop\n        /* \"#utility.yul\":848:1096   */\n      jump\t// out\n        /* \"#utility.yul\":1101:1390   */\n    tag_322:\n        /* \"#utility.yul\":1143:1146   */\n      0x00\n        /* \"#utility.yul\":1181:1186   */\n      dup2\n        /* \"#utility.yul\":1175:1187   */\n      mload\n        /* \"#utility.yul\":1208:1214   */\n      dup1\n        /* \"#utility.yul\":1203:1206   */\n      dup5\n        /* \"#utility.yul\":1196:1215   */\n      mstore\n        /* \"#utility.yul\":1264:1270   */\n      dup1\n        /* \"#utility.yul\":1257:1261   */\n      0x20\n        /* \"#utility.yul\":1250:1255   */\n      dup5\n        /* \"#utility.yul\":1246:1262   */\n      add\n        /* \"#utility.yul\":1239:1243   */\n      0x20\n        /* \"#utility.yul\":1234:1237   */\n      dup7\n        /* \"#utility.yul\":1230:1244   */\n      add\n        /* \"#utility.yul\":1224:1271   */\n      mcopy\n        /* \"#utility.yul\":1316:1317   */\n      0x00\n        /* \"#utility.yul\":1309:1313   */\n      0x20\n        /* \"#utility.yul\":1300:1306   */\n      dup3\n        /* \"#utility.yul\":1295:1298   */\n      dup7\n        /* \"#utility.yul\":1291:1307   */\n      add\n        /* \"#utility.yul\":1287:1314   */\n      add\n        /* \"#utility.yul\":1280:1318   */\n      mstore\n        /* \"#utility.yul\":1379:1383   */\n      0x20\n        /* \"#utility.yul\":1372:1374   */\n      0x1f\n        /* \"#utility.yul\":1368:1375   */\n      not\n        /* \"#utility.yul\":1363:1365   */\n      0x1f\n        /* \"#utility.yul\":1355:1361   */\n      dup4\n        /* \"#utility.yul\":1351:1366   */\n      add\n        /* \"#utility.yul\":1347:1376   */\n      and\n        /* \"#utility.yul\":1342:1345   */\n      dup6\n        /* \"#utility.yul\":1338:1377   */\n      add\n        /* \"#utility.yul\":1334:1384   */\n      add\n        /* \"#utility.yul\":1327:1384   */\n      swap2\n      pop\n      pop\n        /* \"#utility.yul\":1101:1390   */\n      swap3\n      swap2\n      pop\n      pop\n      jump\t// out\n        /* \"#utility.yul\":1395:2086   */\n    tag_40:\n        /* \"#utility.yul\":1696:1702   */\n      dup6\n        /* \"#utility.yul\":1685:1694   */\n      dup2\n        /* \"#utility.yul\":1678:1703   */\n      mstore\n        /* \"#utility.yul\":1739:1742   */\n      0xa0\n        /* \"#utility.yul\":1734:1736   */\n      0x20\n        /* \"#utility.yul\":1723:1732   */\n      dup3\n        /* \"#utility.yul\":1719:1737   */\n      add\n        /* \"#utility.yul\":1712:1743   */\n      mstore\n        /* \"#utility.yul\":1659:1663   */\n      0x00\n        /* \"#utility.yul\":1766:1812   */\n      tag_340\n        /* \"#utility.yul\":1807:1810   */\n      0xa0\n        /* \"#utility.yul\":1796:1805   */\n      dup4\n        /* \"#utility.yul\":1792:1811   */\n      add\n        /* \"#utility.yul\":1784:1790   */\n      dup8\n        /* \"#utility.yul\":1766:1812   */\n      tag_322\n      jump\t// in\n    tag_340:\n        /* \"#utility.yul\":1860:1869   */\n      dup3\n        /* \"#utility.yul\":1852:1858   */\n      dup2\n        /* \"#utility.yul\":1848:1870   */\n      sub\n        /* \"#utility.yul\":1843:1845   */\n      0x40\n        /* \"#utility.yul\":1832:1841   */\n      dup5\n        /* \"#utility.yul\":1828:1846   */\n      add\n        /* \"#utility.yul\":1821:1871   */\n      mstore\n        /* \"#utility.yul\":1894:1927   */\n      tag_341\n        /* \"#utility.yul\":1920:1926   */\n      dup2\n        /* \"#utility.yul\":1912:1918   */\n      dup8\n        /* \"#utility.yul\":1894:1927   */\n      tag_322\n      jump\t// in\n    tag_341:\n        /* \"#utility.yul\":1880:1927   */\n      swap1\n      pop\n        /* \"#utility.yul\":1975:1984   */\n      dup3\n        /* \"#utility.yul\":1967:1973   */\n      dup2\n        /* \"#utility.yul\":1963:1985   */\n      sub\n        /* \"#utility.yul\":1958:1960   */\n      0x60\n        /* \"#utility.yul\":1947:1956   */\n      dup5\n        /* \"#utility.yul\":1943:1961   */\n      add\n        /* \"#utility.yul\":1936:1986   */\n      mstore\n        /* \"#utility.yul\":2003:2036   */\n      tag_342\n        /* \"#utility.yul\":2029:2035   */\n      dup2\n        /* \"#utility.yul\":2021:2027   */\n      dup7\n        /* \"#utility.yul\":2003:2036   */\n      tag_322\n      jump\t// in\n    tag_342:\n        /* \"#utility.yul\":1995:2036   */\n      swap2\n      pop\n      pop\n        /* \"#utility.yul\":2073:2079   */\n      dup3\n        /* \"#utility.yul\":2067:2070   */\n      0x80\n        /* \"#utility.yul\":2056:2065   */\n      dup4\n        /* \"#utility.yul\":2052:2071   */\n      add\n        /* \"#utility.yul\":2045:2080   */\n      mstore\n        /* \"#utility.yul\":1395:2086   */\n      swap7\n      swap6\n      pop\n      pop\n      pop\n      pop\n      pop\n      pop\n      jump\t// out\n        /* \"#utility.yul\":2091:2271   */\n    tag_51:\n        /* \"#utility.yul\":2150:2156   */\n      0x00\n        /* \"#utility.yul\":2203:2205   */\n      0x20\n        /* \"#utility.yul\":2191:2200   */\n      dup3\n        /* \"#utility.yul\":2182:2189   */\n      dup5\n        /* \"#utility.yul\":2178:2201   */\n      sub\n        /* \"#utility.yul\":2174:2206   */\n      slt\n        /* \"#utility.yul\":2171:2223   */\n      iszero\n      tag_344\n      jumpi\n        /* \"#utility.yul\":2219:2220   */\n      0x00\n        /* \"#utility.yul\":2216:2217   */\n      dup1\n        /* \"#utility.yul\":2209:2221   */\n      revert\n        /* \"#utility.yul\":2171:2223   */\n    tag_344:\n      pop\n        /* \"#utility.yul\":2242:2265   */\n      calldataload\n      swap2\n        /* \"#utility.yul\":2091:2271   */\n      swap1\n      pop\n      jump\t// out\n        /* \"#utility.yul\":2276:3121   */\n    tag_54:\n        /* \"#utility.yul\":2598:2602   */\n      0x00\n        /* \"#utility.yul\":2627:2630   */\n      0x0100\n        /* \"#utility.yul\":2657:2663   */\n      dup11\n        /* \"#utility.yul\":2646:2655   */\n      dup4\n        /* \"#utility.yul\":2639:2664   */\n      mstore\n        /* \"#utility.yul\":2700:2702   */\n      dup1\n        /* \"#utility.yul\":2695:2697   */\n      0x20\n        /* \"#utility.yul\":2684:2693   */\n      dup5\n        /* \"#utility.yul\":2680:2698   */\n      add\n        /* \"#utility.yul\":2673:2703   */\n      mstore\n        /* \"#utility.yul\":2726:2771   */\n      tag_346\n        /* \"#utility.yul\":2767:2769   */\n      dup2\n        /* \"#utility.yul\":2756:2765   */\n      dup5\n        /* \"#utility.yul\":2752:2770   */\n      add\n        /* \"#utility.yul\":2744:2750   */\n      dup12\n        /* \"#utility.yul\":2726:2771   */\n      tag_322\n      jump\t// in\n    tag_346:\n        /* \"#utility.yul\":2712:2771   */\n      swap1\n      pop\n        /* \"#utility.yul\":2819:2828   */\n      dup3\n        /* \"#utility.yul\":2811:2817   */\n      dup2\n        /* \"#utility.yul\":2807:2829   */\n      sub\n        /* \"#utility.yul\":2802:2804   */\n      0x40\n        /* \"#utility.yul\":2791:2800   */\n      dup5\n        /* \"#utility.yul\":2787:2805   */\n      add\n        /* \"#utility.yul\":2780:2830   */\n      mstore\n        /* \"#utility.yul\":2847:2880   */\n      tag_347\n        /* \"#utility.yul\":2873:2879   */\n      dup2\n        /* \"#utility.yul\":2865:2871   */\n      dup11\n        /* \"#utility.yul\":2847:2880   */\n      tag_322\n      jump\t// in\n    tag_347:\n        /* \"#utility.yul\":2911:2913   */\n      0x60\n        /* \"#utility.yul\":2896:2914   */\n      dup5\n      add\n        /* \"#utility.yul\":2889:2923   */\n      swap9\n      swap1\n      swap9\n      mstore\n      pop\n      pop\n        /* \"#utility.yul\":2954:2957   */\n      0x80\n        /* \"#utility.yul\":2939:2958   */\n      dup2\n      add\n        /* \"#utility.yul\":2932:2967   */\n      swap5\n      swap1\n      swap5\n      mstore\n        /* \"#utility.yul\":3011:3025   */\n      swap2\n      iszero\n        /* \"#utility.yul\":3004:3026   */\n      iszero\n        /* \"#utility.yul\":2998:3001   */\n      0xa0\n        /* \"#utility.yul\":2983:3002   */\n      dup5\n      add\n        /* \"#utility.yul\":2976:3027   */\n      mstore\n        /* \"#utility.yul\":3058:3061   */\n      0xc0\n        /* \"#utility.yul\":3043:3062   */\n      dup4\n      add\n        /* \"#utility.yul\":3036:3071   */\n      mstore\n        /* \"#utility.yul\":3102:3105   */\n      0xe0\n        /* \"#utility.yul\":3087:3106   */\n      swap1\n      swap2\n      add\n        /* \"#utility.yul\":3080:3115   */\n      mstore\n        /* \"#utility.yul\":2839:2880   */\n      swap4\n        /* \"#utility.yul\":2276:3121   */\n      swap3\n      pop\n      pop\n      pop\n      jump\t// out\n        /* \"#utility.yul\":3126:3253   */\n    tag_277:\n        /* \"#utility.yul\":3187:3197   */\n      0x4e487b71\n        /* \"#utility.yul\":3182:3185   */\n      0xe0\n        /* \"#utility.yul\":3178:3198   */\n      shl\n        /* \"#utility.yul\":3175:3176   */\n      0x00\n        /* \"#utility.yul\":3168:3199   */\n      mstore\n        /* \"#utility.yul\":3218:3222   */\n      0x41\n        /* \"#utility.yul\":3215:3216   */\n      0x04\n        /* \"#utility.yul\":3208:3223   */\n      mstore\n        /* \"#utility.yul\":3242:3246   */\n      0x24\n        /* \"#utility.yul\":3239:3240   */\n      0x00\n        /* \"#utility.yul\":3232:3247   */\n      revert\n        /* \"#utility.yul\":3258:3977   */\n    tag_323:\n        /* \"#utility.yul\":3301:3306   */\n      0x00\n        /* \"#utility.yul\":3354:3357   */\n      dup3\n        /* \"#utility.yul\":3347:3351   */\n      0x1f\n        /* \"#utility.yul\":3339:3345   */\n      dup4\n        /* \"#utility.yul\":3335:3352   */\n      add\n        /* \"#utility.yul\":3331:3358   */\n      slt\n        /* \"#utility.yul\":3321:3376   */\n      tag_350\n      jumpi\n        /* \"#utility.yul\":3372:3373   */\n      0x00\n        /* \"#utility.yul\":3369:3370   */\n      dup1\n        /* \"#utility.yul\":3362:3374   */\n      revert\n        /* \"#utility.yul\":3321:3376   */\n    tag_350:\n        /* \"#utility.yul\":3408:3414   */\n      dup2\n        /* \"#utility.yul\":3395:3415   */\n      calldataload\n        /* \"#utility.yul\":3434:3452   */\n      0xffffffffffffffff\n        /* \"#utility.yul\":3471:3473   */\n      dup1\n        /* \"#utility.yul\":3467:3469   */\n      dup3\n        /* \"#utility.yul\":3464:3474   */\n      gt\n        /* \"#utility.yul\":3461:3497   */\n      iszero\n      tag_352\n      jumpi\n        /* \"#utility.yul\":3477:3495   */\n      tag_352\n      tag_277\n      jump\t// in\n    tag_352:\n        /* \"#utility.yul\":3552:3554   */\n      0x40\n        /* \"#utility.yul\":3546:3555   */\n      mload\n        /* \"#utility.yul\":3520:3522   */\n      0x1f\n        /* \"#utility.yul\":3606:3619   */\n      dup4\n      add\n      not(0x1f)\n        /* \"#utility.yul\":3602:3624   */\n      swap1\n      dup2\n      and\n        /* \"#utility.yul\":3626:3628   */\n      0x3f\n        /* \"#utility.yul\":3598:3629   */\n      add\n        /* \"#utility.yul\":3594:3634   */\n      and\n        /* \"#utility.yul\":3582:3635   */\n      dup2\n      add\n      swap1\n        /* \"#utility.yul\":3650:3668   */\n      dup3\n      dup3\n      gt\n        /* \"#utility.yul\":3670:3692   */\n      dup2\n      dup4\n      lt\n        /* \"#utility.yul\":3647:3693   */\n      or\n        /* \"#utility.yul\":3644:3716   */\n      iszero\n      tag_354\n      jumpi\n        /* \"#utility.yul\":3696:3714   */\n      tag_354\n      tag_277\n      jump\t// in\n    tag_354:\n        /* \"#utility.yul\":3736:3746   */\n      dup2\n        /* \"#utility.yul\":3732:3734   */\n      0x40\n        /* \"#utility.yul\":3725:3747   */\n      mstore\n        /* \"#utility.yul\":3771:3773   */\n      dup4\n        /* \"#utility.yul\":3763:3769   */\n      dup2\n        /* \"#utility.yul\":3756:3774   */\n      mstore\n        /* \"#utility.yul\":3817:3820   */\n      dup7\n        /* \"#utility.yul\":3810:3814   */\n      0x20\n        /* \"#utility.yul\":3805:3807   */\n      dup6\n        /* \"#utility.yul\":3797:3803   */\n      dup9\n        /* \"#utility.yul\":3793:3808   */\n      add\n        /* \"#utility.yul\":3789:3815   */\n      add\n        /* \"#utility.yul\":3786:3821   */\n      gt\n        /* \"#utility.yul\":3783:3838   */\n      iszero\n      tag_355\n      jumpi\n        /* \"#utility.yul\":3834:3835   */\n      0x00\n        /* \"#utility.yul\":3831:3832   */\n      dup1\n        /* \"#utility.yul\":3824:3836   */\n      revert\n        /* \"#utility.yul\":3783:3838   */\n    tag_355:\n        /* \"#utility.yul\":3898:3900   */\n      dup4\n        /* \"#utility.yul\":3891:3895   */\n      0x20\n        /* \"#utility.yul\":3883:3889   */\n      dup8\n        /* \"#utility.yul\":3879:3896   */\n      add\n        /* \"#utility.yul\":3872:3876   */\n      0x20\n        /* \"#utility.yul\":3864:3870   */\n      dup4\n        /* \"#utility.yul\":3860:3877   */\n      add\n        /* \"#utility.yul\":3847:3901   */\n      calldatacopy\n        /* \"#utility.yul\":3945:3946   */\n      0x00\n        /* \"#utility.yul\":3938:3942   */\n      0x20\n        /* \"#utility.yul\":3933:3935   */\n      dup6\n        /* \"#utility.yul\":3925:3931   */\n      dup4\n        /* \"#utility.yul\":3921:3936   */\n      add\n        /* \"#utility.yul\":3917:3943   */\n      add\n        /* \"#utility.yul\":3910:3947   */\n      mstore\n        /* \"#utility.yul\":3965:3971   */\n      dup1\n        /* \"#utility.yul\":3956:3971   */\n      swap5\n      pop\n      pop\n      pop\n      pop\n      pop\n        /* \"#utility.yul\":3258:3977   */\n      swap3\n      swap2\n      pop\n      pop\n      jump\t// out\n        /* \"#utility.yul\":3982:4662   */\n    tag_57:\n        /* \"#utility.yul\":4088:4094   */\n      0x00\n        /* \"#utility.yul\":4096:4102   */\n      dup1\n        /* \"#utility.yul\":4104:4110   */\n      0x00\n        /* \"#utility.yul\":4112:4118   */\n      dup1\n        /* \"#utility.yul\":4165:4168   */\n      0x80\n        /* \"#utility.yul\":4153:4162   */\n      dup6\n        /* \"#utility.yul\":4144:4151   */\n      dup8\n        /* \"#utility.yul\":4140:4163   */\n      sub\n        /* \"#utility.yul\":4136:4169   */\n      slt\n        /* \"#utility.yul\":4133:4186   */\n      iszero\n      tag_357\n      jumpi\n        /* \"#utility.yul\":4182:4183   */\n      0x00\n        /* \"#utility.yul\":4179:4180   */\n      dup1\n        /* \"#utility.yul\":4172:4184   */\n      revert\n        /* \"#utility.yul\":4133:4186   */\n    tag_357:\n        /* \"#utility.yul\":4222:4231   */\n      dup5\n        /* \"#utility.yul\":4209:4232   */\n      calldataload\n        /* \"#utility.yul\":4251:4269   */\n      0xffffffffffffffff\n        /* \"#utility.yul\":4292:4294   */\n      dup1\n        /* \"#utility.yul\":4284:4290   */\n      dup3\n        /* \"#utility.yul\":4281:4295   */\n      gt\n        /* \"#utility.yul\":4278:4312   */\n      iszero\n      tag_358\n      jumpi\n        /* \"#utility.yul\":4308:4309   */\n      0x00\n        /* \"#utility.yul\":4305:4306   */\n      dup1\n        /* \"#utility.yul\":4298:4310   */\n      revert\n        /* \"#utility.yul\":4278:4312   */\n    tag_358:\n        /* \"#utility.yul\":4331:4381   */\n      tag_359\n        /* \"#utility.yul\":4373:4380   */\n      dup9\n        /* \"#utility.yul\":4364:4370   */\n      dup4\n        /* \"#utility.yul\":4353:4362   */\n      dup10\n        /* \"#utility.yul\":4349:4371   */\n      add\n        /* \"#utility.yul\":4331:4381   */\n      tag_323\n      jump\t// in\n    tag_359:\n        /* \"#utility.yul\":4321:4381   */\n      swap6\n      pop\n        /* \"#utility.yul\":4434:4436   */\n      0x20\n        /* \"#utility.yul\":4423:4432   */\n      dup8\n        /* \"#utility.yul\":4419:4437   */\n      add\n        /* \"#utility.yul\":4406:4438   */\n      calldataload\n        /* \"#utility.yul\":4390:4438   */\n      swap2\n      pop\n        /* \"#utility.yul\":4463:4465   */\n      dup1\n        /* \"#utility.yul\":4453:4461   */\n      dup3\n        /* \"#utility.yul\":4450:4466   */\n      gt\n        /* \"#utility.yul\":4447:4483   */\n      iszero\n      tag_360\n      jumpi\n        /* \"#utility.yul\":4479:4480   */\n      0x00\n        /* \"#utility.yul\":4476:4477   */\n      dup1\n        /* \"#utility.yul\":4469:4481   */\n      revert\n        /* \"#utility.yul\":4447:4483   */\n    tag_360:\n      pop\n        /* \"#utility.yul\":4502:4554   */\n      tag_361\n        /* \"#utility.yul\":4546:4553   */\n      dup8\n        /* \"#utility.yul\":4535:4543   */\n      dup3\n        /* \"#utility.yul\":4524:4533   */\n      dup9\n        /* \"#utility.yul\":4520:4544   */\n      add\n        /* \"#utility.yul\":4502:4554   */\n      tag_323\n      jump\t// in\n    tag_361:\n        /* \"#utility.yul\":3982:4662   */\n      swap5\n      swap8\n        /* \"#utility.yul\":4492:4554   */\n      swap5\n      swap7\n      pop\n      pop\n      pop\n      pop\n        /* \"#utility.yul\":4601:4603   */\n      0x40\n        /* \"#utility.yul\":4586:4604   */\n      dup4\n      add\n        /* \"#utility.yul\":4573:4605   */\n      calldataload\n      swap3\n        /* \"#utility.yul\":4652:4654   */\n      0x60\n        /* \"#utility.yul\":4637:4655   */\n      add\n        /* \"#utility.yul\":4624:4656   */\n      calldataload\n      swap2\n        /* \"#utility.yul\":3982:4662   */\n      swap1\n      pop\n      jump\t// out\n        /* \"#utility.yul\":4667:4989   */\n    tag_73:\n        /* \"#utility.yul\":4744:4750   */\n      0x00\n        /* \"#utility.yul\":4752:4758   */\n      dup1\n        /* \"#utility.yul\":4760:4766   */\n      0x00\n        /* \"#utility.yul\":4813:4815   */\n      0x60\n        /* \"#utility.yul\":4801:4810   */\n      dup5\n        /* \"#utility.yul\":4792:4799   */\n      dup7\n        /* \"#utility.yul\":4788:4811   */\n      sub\n        /* \"#utility.yul\":4784:4816   */\n      slt\n        /* \"#utility.yul\":4781:4833   */\n      iszero\n      tag_363\n      jumpi\n        /* \"#utility.yul\":4829:4830   */\n      0x00\n        /* \"#utility.yul\":4826:4827   */\n      dup1\n        /* \"#utility.yul\":4819:4831   */\n      revert\n        /* \"#utility.yul\":4781:4833   */\n    tag_363:\n        /* \"#utility.yul\":4865:4874   */\n      dup4\n        /* \"#utility.yul\":4852:4875   */\n      calldataload\n        /* \"#utility.yul\":4842:4875   */\n      swap3\n      pop\n        /* \"#utility.yul\":4922:4924   */\n      0x20\n        /* \"#utility.yul\":4911:4920   */\n      dup5\n        /* \"#utility.yul\":4907:4925   */\n      add\n        /* \"#utility.yul\":4894:4926   */\n      calldataload\n        /* \"#utility.yul\":4884:4926   */\n      swap2\n      pop\n        /* \"#utility.yul\":4945:4983   */\n      tag_364\n        /* \"#utility.yul\":4979:4981   */\n      0x40\n        /* \"#utility.yul\":4968:4977   */\n      dup6\n        /* \"#utility.yul\":4964:4982   */\n      add\n        /* \"#utility.yul\":4945:4983   */\n      tag_321\n      jump\t// in\n    tag_364:\n        /* \"#utility.yul\":4935:4983   */\n      swap1\n      pop\n        /* \"#utility.yul\":4667:4989   */\n      swap3\n      pop\n      swap3\n      pop\n      swap3\n      jump\t// out\n        /* \"#utility.yul\":4994:5806   */\n    tag_80:\n        /* \"#utility.yul\":5110:5116   */\n      0x00\n        /* \"#utility.yul\":5118:5124   */\n      dup1\n        /* \"#utility.yul\":5126:5132   */\n      0x00\n        /* \"#utility.yul\":5134:5140   */\n      dup1\n        /* \"#utility.yul\":5187:5190   */\n      0x80\n        /* \"#utility.yul\":5175:5184   */\n      dup6\n        /* \"#utility.yul\":5166:5173   */\n      dup8\n        /* \"#utility.yul\":5162:5185   */\n      sub\n        /* \"#utility.yul\":5158:5191   */\n      slt\n        /* \"#utility.yul\":5155:5208   */\n      iszero\n      tag_366\n      jumpi\n        /* \"#utility.yul\":5204:5205   */\n      0x00\n        /* \"#utility.yul\":5201:5202   */\n      dup1\n        /* \"#utility.yul\":5194:5206   */\n      revert\n        /* \"#utility.yul\":5155:5208   */\n    tag_366:\n        /* \"#utility.yul\":5240:5249   */\n      dup5\n        /* \"#utility.yul\":5227:5250   */\n      calldataload\n        /* \"#utility.yul\":5217:5250   */\n      swap4\n      pop\n        /* \"#utility.yul\":5301:5303   */\n      0x20\n        /* \"#utility.yul\":5290:5299   */\n      dup6\n        /* \"#utility.yul\":5286:5304   */\n      add\n        /* \"#utility.yul\":5273:5305   */\n      calldataload\n        /* \"#utility.yul\":5324:5342   */\n      0xffffffffffffffff\n        /* \"#utility.yul\":5365:5367   */\n      dup1\n        /* \"#utility.yul\":5357:5363   */\n      dup3\n        /* \"#utility.yul\":5354:5368   */\n      gt\n        /* \"#utility.yul\":5351:5385   */\n      iszero\n      tag_367\n      jumpi\n        /* \"#utility.yul\":5381:5382   */\n      0x00\n        /* \"#utility.yul\":5378:5379   */\n      dup1\n        /* \"#utility.yul\":5371:5383   */\n      revert\n        /* \"#utility.yul\":5351:5385   */\n    tag_367:\n        /* \"#utility.yul\":5404:5454   */\n      tag_368\n        /* \"#utility.yul\":5446:5453   */\n      dup9\n        /* \"#utility.yul\":5437:5443   */\n      dup4\n        /* \"#utility.yul\":5426:5435   */\n      dup10\n        /* \"#utility.yul\":5422:5444   */\n      add\n        /* \"#utility.yul\":5404:5454   */\n      tag_323\n      jump\t// in\n    tag_368:\n        /* \"#utility.yul\":5394:5454   */\n      swap5\n      pop\n        /* \"#utility.yul\":5507:5509   */\n      0x40\n        /* \"#utility.yul\":5496:5505   */\n      dup8\n        /* \"#utility.yul\":5492:5510   */\n      add\n        /* \"#utility.yul\":5479:5511   */\n      calldataload\n        /* \"#utility.yul\":5463:5511   */\n      swap2\n      pop\n        /* \"#utility.yul\":5536:5538   */\n      dup1\n        /* \"#utility.yul\":5526:5534   */\n      dup3\n        /* \"#utility.yul\":5523:5539   */\n      gt\n        /* \"#utility.yul\":5520:5556   */\n      iszero\n      tag_369\n      jumpi\n        /* \"#utility.yul\":5552:5553   */\n      0x00\n        /* \"#utility.yul\":5549:5550   */\n      dup1\n        /* \"#utility.yul\":5542:5554   */\n      revert\n        /* \"#utility.yul\":5520:5556   */\n    tag_369:\n        /* \"#utility.yul\":5575:5627   */\n      tag_370\n        /* \"#utility.yul\":5619:5626   */\n      dup9\n        /* \"#utility.yul\":5608:5616   */\n      dup4\n        /* \"#utility.yul\":5597:5606   */\n      dup10\n        /* \"#utility.yul\":5593:5617   */\n      add\n        /* \"#utility.yul\":5575:5627   */\n      tag_323\n      jump\t// in\n    tag_370:\n        /* \"#utility.yul\":5565:5627   */\n      swap4\n      pop\n        /* \"#utility.yul\":5680:5682   */\n      0x60\n        /* \"#utility.yul\":5669:5678   */\n      dup8\n        /* \"#utility.yul\":5665:5683   */\n      add\n        /* \"#utility.yul\":5652:5684   */\n      calldataload\n        /* \"#utility.yul\":5636:5684   */\n      swap2\n      pop\n        /* \"#utility.yul\":5709:5711   */\n      dup1\n        /* \"#utility.yul\":5699:5707   */\n      dup3\n        /* \"#utility.yul\":5696:5712   */\n      gt\n        /* \"#utility.yul\":5693:5729   */\n      iszero\n      tag_371\n      jumpi\n        /* \"#utility.yul\":5725:5726   */\n      0x00\n        /* \"#utility.yul\":5722:5723   */\n      dup1\n        /* \"#utility.yul\":5715:5727   */\n      revert\n        /* \"#utility.yul\":5693:5729   */\n    tag_371:\n      pop\n        /* \"#utility.yul\":5748:5800   */\n      tag_372\n        /* \"#utility.yul\":5792:5799   */\n      dup8\n        /* \"#utility.yul\":5781:5789   */\n      dup3\n        /* \"#utility.yul\":5770:5779   */\n      dup9\n        /* \"#utility.yul\":5766:5790   */\n      add\n        /* \"#utility.yul\":5748:5800   */\n      tag_323\n      jump\t// in\n    tag_372:\n        /* \"#utility.yul\":5738:5800   */\n      swap2\n      pop\n      pop\n        /* \"#utility.yul\":4994:5806   */\n      swap3\n      swap6\n      swap2\n      swap5\n      pop\n      swap3\n      pop\n      jump\t// out\n        /* \"#utility.yul\":5811:6152   */\n    tag_84:\n        /* \"#utility.yul\":5876:5882   */\n      0x00\n        /* \"#utility.yul\":5884:5890   */\n      dup1\n        /* \"#utility.yul\":5937:5939   */\n      0x40\n        /* \"#utility.yul\":5925:5934   */\n      dup4\n        /* \"#utility.yul\":5916:5923   */\n      dup6\n        /* \"#utility.yul\":5912:5935   */\n      sub\n        /* \"#utility.yul\":5908:5940   */\n      slt\n        /* \"#utility.yul\":5905:5957   */\n      iszero\n      tag_374\n      jumpi\n        /* \"#utility.yul\":5953:5954   */\n      0x00\n        /* \"#utility.yul\":5950:5951   */\n      dup1\n        /* \"#utility.yul\":5943:5955   */\n      revert\n        /* \"#utility.yul\":5905:5957   */\n    tag_374:\n        /* \"#utility.yul\":5989:5998   */\n      dup3\n        /* \"#utility.yul\":5976:5999   */\n      calldataload\n        /* \"#utility.yul\":5966:5999   */\n      swap2\n      pop\n        /* \"#utility.yul\":6049:6051   */\n      0x20\n        /* \"#utility.yul\":6038:6047   */\n      dup4\n        /* \"#utility.yul\":6034:6052   */\n      add\n        /* \"#utility.yul\":6021:6053   */\n      calldataload\n        /* \"#utility.yul\":6096:6101   */\n      dup1\n        /* \"#utility.yul\":6089:6102   */\n      iszero\n        /* \"#utility.yul\":6082:6103   */\n      iszero\n        /* \"#utility.yul\":6075:6080   */\n      dup2\n        /* \"#utility.yul\":6072:6104   */\n      eq\n        /* \"#utility.yul\":6062:6122   */\n      tag_375\n      jumpi\n        /* \"#utility.yul\":6118:6119   */\n      0x00\n        /* \"#utility.yul\":6115:6116   */\n      dup1\n        /* \"#utility.yul\":6108:6120   */\n      revert\n        /* \"#utility.yul\":6062:6122   */\n    tag_375:\n        /* \"#utility.yul\":6141:6146   */\n      dup1\n        /* \"#utility.yul\":6131:6146   */\n      swap2\n      pop\n      pop\n        /* \"#utility.yul\":5811:6152   */\n      swap3\n      pop\n      swap3\n      swap1\n      pop\n      jump\t// out\n        /* \"#utility.yul\":6157:6789   */\n    tag_90:\n        /* \"#utility.yul\":6328:6330   */\n      0x20\n        /* \"#utility.yul\":6380:6401   */\n      dup1\n      dup3\n      mstore\n        /* \"#utility.yul\":6450:6463   */\n      dup3\n      mload\n        /* \"#utility.yul\":6353:6371   */\n      dup3\n      dup3\n      add\n        /* \"#utility.yul\":6472:6494   */\n      dup2\n      swap1\n      mstore\n        /* \"#utility.yul\":6299:6303   */\n      0x00\n      swap2\n        /* \"#utility.yul\":6328:6330   */\n      swap1\n        /* \"#utility.yul\":6551:6566   */\n      dup5\n      dup3\n      add\n      swap1\n        /* \"#utility.yul\":6525:6527   */\n      0x40\n        /* \"#utility.yul\":6510:6528   */\n      dup6\n      add\n      swap1\n        /* \"#utility.yul\":6299:6303   */\n      dup5\n        /* \"#utility.yul\":6594:6763   */\n    tag_377:\n        /* \"#utility.yul\":6608:6614   */\n      dup2\n        /* \"#utility.yul\":6605:6606   */\n      dup2\n        /* \"#utility.yul\":6602:6615   */\n      lt\n        /* \"#utility.yul\":6594:6763   */\n      iszero\n      tag_379\n      jumpi\n        /* \"#utility.yul\":6669:6682   */\n      dup4\n      mload\n        /* \"#utility.yul\":6657:6683   */\n      dup4\n      mstore\n        /* \"#utility.yul\":6738:6753   */\n      swap3\n      dup5\n      add\n      swap3\n        /* \"#utility.yul\":6703:6715   */\n      swap2\n      dup5\n      add\n      swap2\n        /* \"#utility.yul\":6630:6631   */\n      0x01\n        /* \"#utility.yul\":6623:6632   */\n      add\n        /* \"#utility.yul\":6594:6763   */\n      jump(tag_377)\n    tag_379:\n      pop\n        /* \"#utility.yul\":6780:6783   */\n      swap1\n      swap7\n        /* \"#utility.yul\":6157:6789   */\n      swap6\n      pop\n      pop\n      pop\n      pop\n      pop\n      pop\n      jump\t// out\n        /* \"#utility.yul\":7025:8578   */\n    tag_99:\n        /* \"#utility.yul\":7217:7221   */\n      0x00\n        /* \"#utility.yul\":7246:7248   */\n      0x20\n        /* \"#utility.yul\":7286:7288   */\n      dup1\n        /* \"#utility.yul\":7275:7284   */\n      dup4\n        /* \"#utility.yul\":7271:7289   */\n      add\n        /* \"#utility.yul\":7316:7318   */\n      dup2\n        /* \"#utility.yul\":7305:7314   */\n      dup5\n        /* \"#utility.yul\":7298:7319   */\n      mstore\n        /* \"#utility.yul\":7339:7345   */\n      dup1\n        /* \"#utility.yul\":7374:7380   */\n      dup6\n        /* \"#utility.yul\":7368:7381   */\n      mload\n        /* \"#utility.yul\":7405:7411   */\n      dup1\n        /* \"#utility.yul\":7397:7403   */\n      dup4\n        /* \"#utility.yul\":7390:7412   */\n      mstore\n        /* \"#utility.yul\":7431:7433   */\n      0x40\n        /* \"#utility.yul\":7421:7433   */\n      swap3\n      pop\n        /* \"#utility.yul\":7464:7466   */\n      0x40\n        /* \"#utility.yul\":7453:7462   */\n      dup7\n        /* \"#utility.yul\":7449:7467   */\n      add\n        /* \"#utility.yul\":7442:7467   */\n      swap2\n      pop\n        /* \"#utility.yul\":7526:7528   */\n      0x40\n        /* \"#utility.yul\":7516:7522   */\n      dup2\n        /* \"#utility.yul\":7513:7514   */\n      0x05\n        /* \"#utility.yul\":7509:7523   */\n      shl\n        /* \"#utility.yul\":7498:7507   */\n      dup8\n        /* \"#utility.yul\":7494:7524   */\n      add\n        /* \"#utility.yul\":7490:7529   */\n      add\n        /* \"#utility.yul\":7564:7566   */\n      dup5\n        /* \"#utility.yul\":7556:7562   */\n      dup9\n        /* \"#utility.yul\":7552:7567   */\n      add\n        /* \"#utility.yul\":7585:7586   */\n      0x00\n        /* \"#utility.yul\":7595:8549   */\n    tag_382:\n        /* \"#utility.yul\":7609:7615   */\n      dup4\n        /* \"#utility.yul\":7606:7607   */\n      dup2\n        /* \"#utility.yul\":7603:7616   */\n      lt\n        /* \"#utility.yul\":7595:8549   */\n      iszero\n      tag_384\n      jumpi\n        /* \"#utility.yul\":7702:7704   */\n      0x3f\n        /* \"#utility.yul\":7698:7705   */\n      not\n        /* \"#utility.yul\":7686:7695   */\n      dup10\n        /* \"#utility.yul\":7678:7684   */\n      dup5\n        /* \"#utility.yul\":7674:7696   */\n      sub\n        /* \"#utility.yul\":7670:7706   */\n      add\n        /* \"#utility.yul\":7665:7668   */\n      dup6\n        /* \"#utility.yul\":7658:7707   */\n      mstore\n        /* \"#utility.yul\":7736:7742   */\n      dup2\n        /* \"#utility.yul\":7730:7743   */\n      mload\n        /* \"#utility.yul\":7766:7770   */\n      0xa0\n        /* \"#utility.yul\":7804:7806   */\n      dup2\n        /* \"#utility.yul\":7798:7807   */\n      mload\n        /* \"#utility.yul\":7790:7796   */\n      dup6\n        /* \"#utility.yul\":7783:7808   */\n      mstore\n        /* \"#utility.yul\":7855:7857   */\n      dup9\n        /* \"#utility.yul\":7851:7853   */\n      dup3\n        /* \"#utility.yul\":7847:7858   */\n      add\n        /* \"#utility.yul\":7841:7859   */\n      mload\n        /* \"#utility.yul\":7896:7898   */\n      dup2\n        /* \"#utility.yul\":7891:7893   */\n      dup11\n        /* \"#utility.yul\":7883:7889   */\n      dup8\n        /* \"#utility.yul\":7879:7894   */\n      add\n        /* \"#utility.yul\":7872:7899   */\n      mstore\n        /* \"#utility.yul\":7926:7974   */\n      tag_385\n        /* \"#utility.yul\":7970:7972   */\n      dup3\n        /* \"#utility.yul\":7962:7968   */\n      dup8\n        /* \"#utility.yul\":7958:7973   */\n      add\n        /* \"#utility.yul\":7944:7956   */\n      dup3\n        /* \"#utility.yul\":7926:7974   */\n      tag_322\n      jump\t// in\n    tag_385:\n        /* \"#utility.yul\":7912:7974   */\n      swap2\n      pop\n      pop\n        /* \"#utility.yul\":8023:8025   */\n      dup8\n        /* \"#utility.yul\":8019:8021   */\n      dup3\n        /* \"#utility.yul\":8015:8026   */\n      add\n        /* \"#utility.yul\":8009:8027   */\n      mload\n        /* \"#utility.yul\":8076:8082   */\n      dup6\n        /* \"#utility.yul\":8068:8074   */\n      dup3\n        /* \"#utility.yul\":8064:8083   */\n      sub\n        /* \"#utility.yul\":8059:8061   */\n      dup10\n        /* \"#utility.yul\":8051:8057   */\n      dup8\n        /* \"#utility.yul\":8047:8062   */\n      add\n        /* \"#utility.yul\":8040:8084   */\n      mstore\n        /* \"#utility.yul\":8111:8152   */\n      tag_386\n        /* \"#utility.yul\":8145:8151   */\n      dup3\n        /* \"#utility.yul\":8129:8143   */\n      dup3\n        /* \"#utility.yul\":8111:8152   */\n      tag_322\n      jump\t// in\n    tag_386:\n        /* \"#utility.yul\":8097:8152   */\n      swap2\n      pop\n      pop\n        /* \"#utility.yul\":8175:8179   */\n      0x60\n        /* \"#utility.yul\":8228:8230   */\n      dup1\n        /* \"#utility.yul\":8224:8226   */\n      dup4\n        /* \"#utility.yul\":8220:8231   */\n      add\n        /* \"#utility.yul\":8214:8232   */\n      mload\n        /* \"#utility.yul\":8281:8287   */\n      dup7\n        /* \"#utility.yul\":8273:8279   */\n      dup4\n        /* \"#utility.yul\":8269:8288   */\n      sub\n        /* \"#utility.yul\":8264:8266   */\n      dup3\n        /* \"#utility.yul\":8256:8262   */\n      dup9\n        /* \"#utility.yul\":8252:8267   */\n      add\n        /* \"#utility.yul\":8245:8289   */\n      mstore\n        /* \"#utility.yul\":8316:8357   */\n      tag_387\n        /* \"#utility.yul\":8350:8356   */\n      dup4\n        /* \"#utility.yul\":8334:8348   */\n      dup3\n        /* \"#utility.yul\":8316:8357   */\n      tag_322\n      jump\t// in\n    tag_387:\n        /* \"#utility.yul\":8380:8384   */\n      0x80\n        /* \"#utility.yul\":8427:8438   */\n      swap5\n      dup6\n      add\n        /* \"#utility.yul\":8421:8439   */\n      mload\n        /* \"#utility.yul\":8404:8419   */\n      swap8\n      swap1\n      swap5\n      add\n        /* \"#utility.yul\":8397:8440   */\n      swap7\n      swap1\n      swap7\n      mstore\n      pop\n      pop\n        /* \"#utility.yul\":8527:8539   */\n      swap5\n      dup8\n      add\n      swap5\n        /* \"#utility.yul\":8302:8357   */\n      swap3\n      pop\n        /* \"#utility.yul\":8492:8507   */\n      swap1\n      dup7\n      add\n      swap1\n        /* \"#utility.yul\":7631:7632   */\n      0x01\n        /* \"#utility.yul\":7624:7633   */\n      add\n        /* \"#utility.yul\":7595:8549   */\n      jump(tag_382)\n    tag_384:\n      pop\n        /* \"#utility.yul\":8566:8572   */\n      swap1\n      swap9\n        /* \"#utility.yul\":7025:8578   */\n      swap8\n      pop\n      pop\n      pop\n      pop\n      pop\n      pop\n      pop\n      pop\n      jump\t// out\n        /* \"#utility.yul\":9287:9667   */\n    tag_115:\n        /* \"#utility.yul\":9366:9367   */\n      0x01\n        /* \"#utility.yul\":9362:9374   */\n      dup2\n      dup2\n      shr\n      swap1\n        /* \"#utility.yul\":9409:9421   */\n      dup3\n      and\n      dup1\n        /* \"#utility.yul\":9430:9491   */\n      tag_391\n      jumpi\n        /* \"#utility.yul\":9484:9488   */\n      0x7f\n        /* \"#utility.yul\":9476:9482   */\n      dup3\n        /* \"#utility.yul\":9472:9489   */\n      and\n        /* \"#utility.yul\":9462:9489   */\n      swap2\n      pop\n        /* \"#utility.yul\":9430:9491   */\n    tag_391:\n        /* \"#utility.yul\":9537:9539   */\n      0x20\n        /* \"#utility.yul\":9529:9535   */\n      dup3\n        /* \"#utility.yul\":9526:9540   */\n      lt\n        /* \"#utility.yul\":9506:9524   */\n      dup2\n        /* \"#utility.yul\":9503:9541   */\n      sub\n        /* \"#utility.yul\":9500:9661   */\n      tag_274\n      jumpi\n        /* \"#utility.yul\":9583:9593   */\n      0x4e487b71\n        /* \"#utility.yul\":9578:9581   */\n      0xe0\n        /* \"#utility.yul\":9574:9594   */\n      shl\n        /* \"#utility.yul\":9571:9572   */\n      0x00\n        /* \"#utility.yul\":9564:9595   */\n      mstore\n        /* \"#utility.yul\":9618:9622   */\n      0x22\n        /* \"#utility.yul\":9615:9616   */\n      0x04\n        /* \"#utility.yul\":9608:9623   */\n      mstore\n        /* \"#utility.yul\":9646:9650   */\n      0x24\n        /* \"#utility.yul\":9643:9644   */\n      0x00\n        /* \"#utility.yul\":9636:9651   */\n      revert\n        /* \"#utility.yul\":10783:10910   */\n    tag_324:\n        /* \"#utility.yul\":10844:10854   */\n      0x4e487b71\n        /* \"#utility.yul\":10839:10842   */\n      0xe0\n        /* \"#utility.yul\":10835:10855   */\n      shl\n        /* \"#utility.yul\":10832:10833   */\n      0x00\n        /* \"#utility.yul\":10825:10856   */\n      mstore\n        /* \"#utility.yul\":10875:10879   */\n      0x11\n        /* \"#utility.yul\":10872:10873   */\n      0x04\n        /* \"#utility.yul\":10865:10880   */\n      mstore\n        /* \"#utility.yul\":10899:10903   */\n      0x24\n        /* \"#utility.yul\":10896:10897   */\n      0x00\n        /* \"#utility.yul\":10889:10904   */\n      revert\n        /* \"#utility.yul\":10915:11050   */\n    tag_157:\n        /* \"#utility.yul\":10954:10957   */\n      0x00\n        /* \"#utility.yul\":10975:10992   */\n      0x01\n      dup3\n      add\n        /* \"#utility.yul\":10972:11015   */\n      tag_399\n      jumpi\n        /* \"#utility.yul\":10995:11013   */\n      tag_399\n      tag_324\n      jump\t// in\n    tag_399:\n      pop\n        /* \"#utility.yul\":11042:11043   */\n      0x01\n        /* \"#utility.yul\":11031:11044   */\n      add\n      swap1\n        /* \"#utility.yul\":10915:11050   */\n      jump\t// out\n        /* \"#utility.yul\":11181:11699   */\n    tag_326:\n        /* \"#utility.yul\":11283:11285   */\n      0x1f\n        /* \"#utility.yul\":11278:11281   */\n      dup3\n        /* \"#utility.yul\":11275:11286   */\n      gt\n        /* \"#utility.yul\":11272:11693   */\n      iszero\n      tag_402\n      jumpi\n        /* \"#utility.yul\":11319:11324   */\n      dup1\n        /* \"#utility.yul\":11316:11317   */\n      0x00\n        /* \"#utility.yul\":11309:11325   */\n      mstore\n        /* \"#utility.yul\":11363:11367   */\n      0x20\n        /* \"#utility.yul\":11360:11361   */\n      0x00\n        /* \"#utility.yul\":11350:11368   */\n      keccak256\n        /* \"#utility.yul\":11433:11435   */\n      0x1f\n        /* \"#utility.yul\":11421:11431   */\n      dup5\n        /* \"#utility.yul\":11417:11436   */\n      add\n        /* \"#utility.yul\":11414:11415   */\n      0x05\n        /* \"#utility.yul\":11410:11437   */\n      shr\n        /* \"#utility.yul\":11404:11408   */\n      dup2\n        /* \"#utility.yul\":11400:11438   */\n      add\n        /* \"#utility.yul\":11469:11473   */\n      0x20\n        /* \"#utility.yul\":11457:11467   */\n      dup6\n        /* \"#utility.yul\":11454:11474   */\n      lt\n        /* \"#utility.yul\":11451:11498   */\n      iszero\n      tag_403\n      jumpi\n      pop\n        /* \"#utility.yul\":11492:11496   */\n      dup1\n        /* \"#utility.yul\":11451:11498   */\n    tag_403:\n        /* \"#utility.yul\":11547:11549   */\n      0x1f\n        /* \"#utility.yul\":11542:11545   */\n      dup5\n        /* \"#utility.yul\":11538:11550   */\n      add\n        /* \"#utility.yul\":11535:11536   */\n      0x05\n        /* \"#utility.yul\":11531:11551   */\n      shr\n        /* \"#utility.yul\":11525:11529   */\n      dup3\n        /* \"#utility.yul\":11521:11552   */\n      add\n        /* \"#utility.yul\":11511:11552   */\n      swap2\n      pop\n        /* \"#utility.yul\":11602:11683   */\n    tag_404:\n        /* \"#utility.yul\":11620:11622   */\n      dup2\n        /* \"#utility.yul\":11613:11618   */\n      dup2\n        /* \"#utility.yul\":11610:11623   */\n      lt\n        /* \"#utility.yul\":11602:11683   */\n      iszero\n      tag_406\n      jumpi\n        /* \"#utility.yul\":11679:11680   */\n      0x00\n        /* \"#utility.yul\":11665:11681   */\n      dup2\n      sstore\n        /* \"#utility.yul\":11646:11647   */\n      0x01\n        /* \"#utility.yul\":11635:11648   */\n      add\n        /* \"#utility.yul\":11602:11683   */\n      jump(tag_404)\n    tag_406:\n        /* \"#utility.yul\":11606:11609   */\n      pop\n      pop\n        /* \"#utility.yul\":11272:11693   */\n    tag_402:\n        /* \"#utility.yul\":11181:11699   */\n      pop\n      pop\n      pop\n      jump\t// out\n        /* \"#utility.yul\":11875:13220   */\n    tag_159:\n        /* \"#utility.yul\":12001:12004   */\n      dup2\n        /* \"#utility.yul\":11995:12005   */\n      mload\n        /* \"#utility.yul\":12028:12046   */\n      0xffffffffffffffff\n        /* \"#utility.yul\":12020:12026   */\n      dup2\n        /* \"#utility.yul\":12017:12047   */\n      gt\n        /* \"#utility.yul\":12014:12070   */\n      iszero\n      tag_410\n      jumpi\n        /* \"#utility.yul\":12050:12068   */\n      tag_410\n      tag_277\n      jump\t// in\n    tag_410:\n        /* \"#utility.yul\":12079:12176   */\n      tag_411\n        /* \"#utility.yul\":12169:12175   */\n      dup2\n        /* \"#utility.yul\":12129:12167   */\n      tag_412\n        /* \"#utility.yul\":12161:12165   */\n      dup5\n        /* \"#utility.yul\":12155:12166   */\n      sload\n        /* \"#utility.yul\":12129:12167   */\n      tag_115\n      jump\t// in\n    tag_412:\n        /* \"#utility.yul\":12123:12127   */\n      dup5\n        /* \"#utility.yul\":12079:12176   */\n      tag_326\n      jump\t// in\n    tag_411:\n        /* \"#utility.yul\":12231:12235   */\n      0x20\n      dup1\n        /* \"#utility.yul\":12288:12290   */\n      0x1f\n        /* \"#utility.yul\":12277:12291   */\n      dup4\n      gt\n        /* \"#utility.yul\":12305:12306   */\n      0x01\n        /* \"#utility.yul\":12300:12963   */\n      dup2\n      eq\n      tag_414\n      jumpi\n        /* \"#utility.yul\":13007:13008   */\n      0x00\n        /* \"#utility.yul\":13024:13030   */\n      dup5\n        /* \"#utility.yul\":13021:13110   */\n      iszero\n      tag_415\n      jumpi\n      pop\n        /* \"#utility.yul\":13076:13095   */\n      dup6\n      dup4\n      add\n        /* \"#utility.yul\":13070:13096   */\n      mload\n        /* \"#utility.yul\":13021:13110   */\n    tag_415:\n      not(0x00)\n        /* \"#utility.yul\":11832:11833   */\n      0x03\n        /* \"#utility.yul\":11828:11839   */\n      dup7\n      swap1\n      shl\n        /* \"#utility.yul\":11824:11848   */\n      shr\n        /* \"#utility.yul\":11820:11849   */\n      not\n        /* \"#utility.yul\":11810:11850   */\n      and\n        /* \"#utility.yul\":11856:11857   */\n      0x01\n        /* \"#utility.yul\":11852:11863   */\n      dup6\n      swap1\n      shl\n        /* \"#utility.yul\":11807:11864   */\n      or\n        /* \"#utility.yul\":13123:13204   */\n      dup6\n      sstore\n        /* \"#utility.yul\":12270:13214   */\n      jump(tag_413)\n        /* \"#utility.yul\":12300:12963   */\n    tag_414:\n        /* \"#utility.yul\":11128:11129   */\n      0x00\n        /* \"#utility.yul\":11121:11135   */\n      dup6\n      dup2\n      mstore\n        /* \"#utility.yul\":11165:11169   */\n      0x20\n        /* \"#utility.yul\":11152:11170   */\n      dup2\n      keccak256\n      not(0x1f)\n        /* \"#utility.yul\":12336:12356   */\n      dup7\n      and\n      swap2\n        /* \"#utility.yul\":12454:12690   */\n    tag_418:\n        /* \"#utility.yul\":12468:12475   */\n      dup3\n        /* \"#utility.yul\":12465:12466   */\n      dup2\n        /* \"#utility.yul\":12462:12476   */\n      lt\n        /* \"#utility.yul\":12454:12690   */\n      iszero\n      tag_420\n      jumpi\n        /* \"#utility.yul\":12557:12576   */\n      dup9\n      dup7\n      add\n        /* \"#utility.yul\":12551:12577   */\n      mload\n        /* \"#utility.yul\":12536:12578   */\n      dup3\n      sstore\n        /* \"#utility.yul\":12649:12676   */\n      swap5\n      dup5\n      add\n      swap5\n        /* \"#utility.yul\":12617:12618   */\n      0x01\n        /* \"#utility.yul\":12605:12619   */\n      swap1\n      swap2\n      add\n      swap1\n        /* \"#utility.yul\":12484:12503   */\n      dup5\n      add\n        /* \"#utility.yul\":12454:12690   */\n      jump(tag_418)\n    tag_420:\n        /* \"#utility.yul\":12458:12461   */\n      pop\n        /* \"#utility.yul\":12718:12724   */\n      dup6\n        /* \"#utility.yul\":12709:12716   */\n      dup3\n        /* \"#utility.yul\":12706:12725   */\n      lt\n        /* \"#utility.yul\":12703:12904   */\n      iszero\n      tag_421\n      jumpi\n        /* \"#utility.yul\":12779:12798   */\n      dup8\n      dup6\n      add\n        /* \"#utility.yul\":12773:12799   */\n      mload\n      not(0x00)\n        /* \"#utility.yul\":12862:12863   */\n      0x03\n        /* \"#utility.yul\":12858:12872   */\n      dup9\n      swap1\n      shl\n        /* \"#utility.yul\":12874:12877   */\n      0xf8\n        /* \"#utility.yul\":12854:12878   */\n      and\n        /* \"#utility.yul\":12850:12887   */\n      shr\n        /* \"#utility.yul\":12846:12888   */\n      not\n        /* \"#utility.yul\":12831:12889   */\n      and\n        /* \"#utility.yul\":12816:12890   */\n      dup2\n      sstore\n        /* \"#utility.yul\":12703:12904   */\n    tag_421:\n      pop\n      pop\n        /* \"#utility.yul\":12950:12951   */\n      0x01\n        /* \"#utility.yul\":12941:12947   */\n      dup5\n        /* \"#utility.yul\":12938:12939   */\n      0x01\n        /* \"#utility.yul\":12934:12948   */\n      shl\n        /* \"#utility.yul\":12930:12952   */\n      add\n        /* \"#utility.yul\":12924:12928   */\n      dup6\n        /* \"#utility.yul\":12917:12953   */\n      sstore\n        /* \"#utility.yul\":12270:13214   */\n    tag_413:\n      pop\n      pop\n      pop\n      pop\n        /* \"#utility.yul\":11875:13220   */\n      pop\n      pop\n      jump\t// out\n        /* \"#utility.yul\":13225:13587   */\n    tag_162:\n        /* \"#utility.yul\":13430:13432   */\n      0x60\n        /* \"#utility.yul\":13419:13428   */\n      dup2\n        /* \"#utility.yul\":13412:13433   */\n      mstore\n        /* \"#utility.yul\":13393:13397   */\n      0x00\n        /* \"#utility.yul\":13450:13495   */\n      tag_423\n        /* \"#utility.yul\":13491:13493   */\n      0x60\n        /* \"#utility.yul\":13480:13489   */\n      dup4\n        /* \"#utility.yul\":13476:13494   */\n      add\n        /* \"#utility.yul\":13468:13474   */\n      dup7\n        /* \"#utility.yul\":13450:13495   */\n      tag_322\n      jump\t// in\n    tag_423:\n        /* \"#utility.yul\":13526:13528   */\n      0x20\n        /* \"#utility.yul\":13511:13529   */\n      dup4\n      add\n        /* \"#utility.yul\":13504:13538   */\n      swap5\n      swap1\n      swap5\n      mstore\n      pop\n        /* \"#utility.yul\":13569:13571   */\n      0x40\n        /* \"#utility.yul\":13554:13572   */\n      add\n        /* \"#utility.yul\":13547:13581   */\n      mstore\n        /* \"#utility.yul\":13442:13495   */\n      swap2\n        /* \"#utility.yul\":13225:13587   */\n      swap1\n      pop\n      jump\t// out\n        /* \"#utility.yul\":16515:16969   */\n    tag_260:\n        /* \"#utility.yul\":16740:16746   */\n      dup4\n        /* \"#utility.yul\":16729:16738   */\n      dup2\n        /* \"#utility.yul\":16722:16747   */\n      mstore\n        /* \"#utility.yul\":16783:16785   */\n      0x60\n        /* \"#utility.yul\":16778:16780   */\n      0x20\n        /* \"#utility.yul\":16767:16776   */\n      dup3\n        /* \"#utility.yul\":16763:16781   */\n      add\n        /* \"#utility.yul\":16756:16786   */\n      mstore\n        /* \"#utility.yul\":16703:16707   */\n      0x00\n        /* \"#utility.yul\":16809:16854   */\n      tag_433\n        /* \"#utility.yul\":16850:16852   */\n      0x60\n        /* \"#utility.yul\":16839:16848   */\n      dup4\n        /* \"#utility.yul\":16835:16853   */\n      add\n        /* \"#utility.yul\":16827:16833   */\n      dup6\n        /* \"#utility.yul\":16809:16854   */\n      tag_322\n      jump\t// in\n    tag_433:\n        /* \"#utility.yul\":16902:16911   */\n      dup3\n        /* \"#utility.yul\":16894:16900   */\n      dup2\n        /* \"#utility.yul\":16890:16912   */\n      sub\n        /* \"#utility.yul\":16885:16887   */\n      0x40\n        /* \"#utility.yul\":16874:16883   */\n      dup5\n        /* \"#utility.yul\":16870:16888   */\n      add\n        /* \"#utility.yul\":16863:16913   */\n      mstore\n        /* \"#utility.yul\":16930:16963   */\n      tag_434\n        /* \"#utility.yul\":16956:16962   */\n      dup2\n        /* \"#utility.yul\":16948:16954   */\n      dup6\n        /* \"#utility.yul\":16930:16963   */\n      tag_322\n      jump\t// in\n    tag_434:\n        /* \"#utility.yul\":16922:16963   */\n      swap7\n        /* \"#utility.yul\":16515:16969   */\n      swap6\n      pop\n      pop\n      pop\n      pop\n      pop\n      pop\n      jump\t// out\n        /* \"#utility.yul\":16974:17102   */\n    tag_283:\n        /* \"#utility.yul\":17041:17050   */\n      dup2\n      dup2\n      sub\n        /* \"#utility.yul\":17062:17073   */\n      dup2\n      dup2\n      gt\n        /* \"#utility.yul\":17059:17096   */\n      iszero\n      tag_437\n      jumpi\n        /* \"#utility.yul\":17076:17094   */\n      tag_437\n      tag_324\n      jump\t// in\n    tag_437:\n        /* \"#utility.yul\":16974:17102   */\n      swap3\n      swap2\n      pop\n      pop\n      jump\t// out\n        /* \"#utility.yul\":17107:17234   */\n    tag_286:\n        /* \"#utility.yul\":17168:17178   */\n      0x4e487b71\n        /* \"#utility.yul\":17163:17166   */\n      0xe0\n        /* \"#utility.yul\":17159:17179   */\n      shl\n        /* \"#utility.yul\":17156:17157   */\n      0x00\n        /* \"#utility.yul\":17149:17180   */\n      mstore\n        /* \"#utility.yul\":17199:17203   */\n      0x32\n        /* \"#utility.yul\":17196:17197   */\n      0x04\n        /* \"#utility.yul\":17189:17204   */\n      mstore\n        /* \"#utility.yul\":17223:17227   */\n      0x24\n        /* \"#utility.yul\":17220:17221   */\n      0x00\n        /* \"#utility.yul\":17213:17228   */\n      revert\n\n    auxdata: 0xa26469706673582212202739f31547ce0d8e4ca6b3567391cabd819b35a2e56cf8f00552ac443fd85f7264736f6c63430008190033\n}\n",
    "bytecode": {
      "linkReferences": {},
      "object": "6080604052348015600e575f80fd5b50600580546001600160a01b031916331790556122ce8061002e5f395ff3fe608060405234801561000f575f80fd5b5060043610610115575f3560e01c8063997d2830116100ad578063ce4a27431161007d578063e8ededa611610063578063e8ededa614610294578063f851a440146102b4578063f9ded646146102df575f80fd5b8063ce4a27431461026e578063d5617ecf14610281575f80fd5b8063997d28301461022a5780639d71077714610233578063aaecca5214610246578063b384abef1461025b575f80fd5b80635bc261fa116100e85780635bc261fa146101ca5780635e6fef01146101dd5780637ad36e84146102045780637de1424214610217575f80fd5b80630eac27f414610119578063438596321461013f5780634bd464481461017c57806351477141146101a0575b5f80fd5b61012c610127366004611c7a565b6102ff565b6040519081526020015b60405180910390f35b61016c61014d366004611c7a565b600260209081525f928352604080842090915290825290205460ff1681565b6040519015158152602001610136565b61018f61018a366004611ca4565b6103f7565b604051610136959493929190611cf2565b61012c6101ae366004611c7a565b600360209081525f928352604080842090915290825290205481565b61016c6101d8366004611c7a565b610665565b6101f06101eb366004611d43565b6106ea565b604051610136989796959493929190611d5a565b61012c610212366004611e50565b61083a565b61018f610225366004611ca4565b6109fa565b61012c60045481565b6101f0610241366004611d43565b610bc1565b610259610254366004611ebf565b610df0565b005b610259610269366004611ca4565b6111e3565b61025961027c366004611ef1565b6114e8565b61025961028f366004611f7d565b61171c565b6102a76102a2366004611d43565b611831565b6040516101369190611faf565b6005546102c7906001600160a01b031681565b6040516001600160a01b039091168152602001610136565b6102f26102ed366004611d43565b61194e565b6040516101369190611ff2565b5f825f8111801561031257506004548111155b61035d5760405162461bcd60e51b8152602060048201526017602482015276115b1958dd1a5bdb88191bd95cc81b9bdd08195e1a5cdd604a1b60448201526064015b60405180910390fd5b5f8481526002602090815260408083206001600160a01b038716845290915290205460ff166103ce5760405162461bcd60e51b815260206004820152601760248201527f566f74657220686173206e6f7420766f746564207965740000000000000000006044820152606401610354565b50505f9182526003602090815260408084206001600160a01b0393909316845291905290205490565b5f60608060605f865f8111801561041057506004548111155b6104565760405162461bcd60e51b8152602060048201526017602482015276115b1958dd1a5bdb88191bd95cc81b9bdd08195e1a5cdd604a1b6044820152606401610354565b5f8881526001602081815260408084208b85528252808420815160a0810190925280548252928301805491939284019161048f906120a9565b80601f01602080910402602001604051908101604052809291908181526020018280546104bb906120a9565b80156105065780601f106104dd57610100808354040283529160200191610506565b820191905f5260205f20905b8154815290600101906020018083116104e957829003601f168201915b5050505050815260200160028201805461051f906120a9565b80601f016020809104026020016040519081016040528092919081815260200182805461054b906120a9565b80156105965780601f1061056d57610100808354040283529160200191610596565b820191905f5260205f20905b81548152906001019060200180831161057957829003601f168201915b505050505081526020016003820180546105af906120a9565b80601f01602080910402602001604051908101604052809291908181526020018280546105db906120a9565b80156106265780601f106105fd57610100808354040283529160200191610626565b820191905f5260205f20905b81548152906001019060200180831161060957829003601f168201915b50505091835250506004919091015460209182015281519082015160408301516060840151608090940151929d919c509a509198509650945050505050565b5f825f8111801561067857506004548111155b6106be5760405162461bcd60e51b8152602060048201526017602482015276115b1958dd1a5bdb88191bd95cc81b9bdd08195e1a5cdd604a1b6044820152606401610354565b50505f9182526002602090815260408084206001600160a01b0393909316845291905290205460ff1690565b5f602081905290815260409020805460018201805491929161070b906120a9565b80601f0160208091040260200160405190810160405280929190818152602001828054610737906120a9565b80156107825780601f1061075957610100808354040283529160200191610782565b820191905f5260205f20905b81548152906001019060200180831161076557829003601f168201915b505050505090806002018054610797906120a9565b80601f01602080910402602001604051908101604052809291908181526020018280546107c3906120a9565b801561080e5780601f106107e55761010080835404028352916020019161080e565b820191905f5260205f20905b8154815290600101906020018083116107f157829003601f168201915b50505060038401546004850154600586015460068701546007909701549596929591945060ff16925088565b6005545f906001600160a01b031633146108a15760405162461bcd60e51b815260206004820152602260248201527f4f6e6c792061646d696e2063616e20706572666f726d2074686973206163746960448201526137b760f11b6064820152608401610354565b8183106108f05760405162461bcd60e51b815260206004820152601260248201527f496e76616c69642074696d652072616e676500000000000000000000000000006044820152606401610354565b428310156109405760405162461bcd60e51b815260206004820181905260248201527f53746172742074696d65206d75737420626520696e20746865206675747572656044820152606401610354565b60048054905f61094f836120ef565b90915550506004545f818152602081905260409020908155600181016109758782612153565b50600281016109848682612153565b5060038101849055600480820184905560058201805460ff191660011790555f600683018190556007830155546040517fe7a0aae5d733e07e246dea86213a1ac1b0aa8554bde889bb75c12752f44e53d9906109e590899088908890612213565b60405180910390a25050600454949350505050565b600160208181525f9384526040808520909152918352912080549181018054610a22906120a9565b80601f0160208091040260200160405190810160405280929190818152602001828054610a4e906120a9565b8015610a995780601f10610a7057610100808354040283529160200191610a99565b820191905f5260205f20905b815481529060010190602001808311610a7c57829003601f168201915b505050505090806002018054610aae906120a9565b80601f0160208091040260200160405190810160405280929190818152602001828054610ada906120a9565b8015610b255780601f10610afc57610100808354040283529160200191610b25565b820191905f5260205f20905b815481529060010190602001808311610b0857829003601f168201915b505050505090806003018054610b3a906120a9565b80601f0160208091040260200160405190810160405280929190818152602001828054610b66906120a9565b8015610bb15780601f10610b8857610100808354040283529160200191610bb1565b820191905f5260205f20905b815481529060010190602001808311610b9457829003601f168201915b5050505050908060040154905085565b5f6060805f805f805f885f81118015610bdc57506004548111155b610c225760405162461bcd60e51b8152602060048201526017602482015276115b1958dd1a5bdb88191bd95cc81b9bdd08195e1a5cdd604a1b6044820152606401610354565b5f805f8c81526020019081526020015f20604051806101000160405290815f8201548152602001600182018054610c58906120a9565b80601f0160208091040260200160405190810160405280929190818152602001828054610c84906120a9565b8015610ccf5780601f10610ca657610100808354040283529160200191610ccf565b820191905f5260205f20905b815481529060010190602001808311610cb257829003601f168201915b50505050508152602001600282018054610ce8906120a9565b80601f0160208091040260200160405190810160405280929190818152602001828054610d14906120a9565b8015610d5f5780601f10610d3657610100808354040283529160200191610d5f565b820191905f5260205f20905b815481529060010190602001808311610d4257829003601f168201915b505050505081526020016003820154815260200160048201548152602001600582015f9054906101000a900460ff16151515158152602001600682015481526020016007820154815250509050805f015181602001518260400151836060015184608001518560a001518660c001518760e00151995099509950995099509950995099505050919395975091939597565b6005546001600160a01b03163314610e555760405162461bcd60e51b815260206004820152602260248201527f4f6e6c792061646d696e2063616e20706572666f726d2074686973206163746960448201526137b760f11b6064820152608401610354565b825f81118015610e6757506004548111155b610ead5760405162461bcd60e51b8152602060048201526017602482015276115b1958dd1a5bdb88191bd95cc81b9bdd08195e1a5cdd604a1b6044820152606401610354565b5f84815260208190526040902060050154849060ff16610f0f5760405162461bcd60e51b815260206004820152601660248201527f456c656374696f6e206973206e6f7420616374697665000000000000000000006044820152606401610354565b5f81815260208190526040902060030154421015610f6f5760405162461bcd60e51b815260206004820152601860248201527f456c656374696f6e20686173206e6f74207374617274656400000000000000006044820152606401610354565b5f81815260208190526040902060040154421115610fcf5760405162461bcd60e51b815260206004820152601260248201527f456c656374696f6e2068617320656e64656400000000000000000000000000006044820152606401610354565b6001600160a01b0383166110255760405162461bcd60e51b815260206004820152601560248201527f496e76616c696420766f746572206164647265737300000000000000000000006044820152606401610354565b5f8581526002602090815260408083206001600160a01b038716845290915290205460ff16156110a35760405162461bcd60e51b8152602060048201526024808201527f566f74657220616c726561647920766f74656420696e207468697320656c65636044820152633a34b7b760e11b6064820152608401610354565b5f841180156110c257505f858152602081905260409020600601548411155b61110e5760405162461bcd60e51b815260206004820152601160248201527f496e76616c69642063616e6469646174650000000000000000000000000000006044820152606401610354565b5f8581526002602090815260408083206001600160a01b038716808552908352818420805460ff191660019081179091558985526003845282852091855290835281842088905588845282528083208784529091528120600401805491611174836120ef565b90915550505f858152602081905260408120600701805491611195836120ef565b90915550506040513381526001600160a01b03841690859087907fd3e6eda9bc73c3b587a96869f115e313f174e89a2291a06dc9502c609068c4359060200160405180910390a45050505050565b815f811180156111f557506004548111155b61123b5760405162461bcd60e51b8152602060048201526017602482015276115b1958dd1a5bdb88191bd95cc81b9bdd08195e1a5cdd604a1b6044820152606401610354565b5f83815260208190526040902060050154839060ff1661129d5760405162461bcd60e51b815260206004820152601660248201527f456c656374696f6e206973206e6f7420616374697665000000000000000000006044820152606401610354565b5f818152602081905260409020600301544210156112fd5760405162461bcd60e51b815260206004820152601860248201527f456c656374696f6e20686173206e6f74207374617274656400000000000000006044820152606401610354565b5f8181526020819052604090206004015442111561135d5760405162461bcd60e51b815260206004820152601260248201527f456c656374696f6e2068617320656e64656400000000000000000000000000006044820152606401610354565b5f84815260026020908152604080832033845290915290205460ff16156113c65760405162461bcd60e51b815260206004820152601e60248201527f416c726561647920766f74656420696e207468697320656c656374696f6e00006044820152606401610354565b5f831180156113e557505f848152602081905260409020600601548311155b6114315760405162461bcd60e51b815260206004820152601160248201527f496e76616c69642063616e6469646174650000000000000000000000000000006044820152606401610354565b5f84815260026020908152604080832033808552908352818420805460ff19166001908117909155888552600384528285209185529083528184208790558784528252808320868452909152812060040180549161148e836120ef565b90915550505f8481526020819052604081206007018054916114af836120ef565b90915550506040513390849086907fd91ecafccf238642dccd41161308b3eebe62a12bc5819daf5164780c221ec95b905f90a450505050565b6005546001600160a01b0316331461154d5760405162461bcd60e51b815260206004820152602260248201527f4f6e6c792061646d696e2063616e20706572666f726d2074686973206163746960448201526137b760f11b6064820152608401610354565b835f8111801561155f57506004548111155b6115a55760405162461bcd60e51b8152602060048201526017602482015276115b1958dd1a5bdb88191bd95cc81b9bdd08195e1a5cdd604a1b6044820152606401610354565b5f8581526020819052604090206003810154421061162b5760405162461bcd60e51b815260206004820152602b60248201527f43616e6e6f74206164642063616e6469646174657320616674657220656c656360448201527f74696f6e207374617274730000000000000000000000000000000000000000006064820152608401610354565b600681018054905f61163c836120ef565b90915550506040805160a08101825260068301548082526020808301898152838501899052606084018890525f608085018190528b81526001808452868220948252939092529390208251815592519192919082019061169c9082612153565b50604082015160028201906116b19082612153565b50606082015160038201906116c69082612153565b5060808201518160040155905050857f503cfceb0fb2178c5fb47ff394c816e4075abc8066c3dcb16d08a76847ee6e168260060154878760405161170c93929190612237565b60405180910390a2505050505050565b6005546001600160a01b031633146117815760405162461bcd60e51b815260206004820152602260248201527f4f6e6c792061646d696e2063616e20706572666f726d2074686973206163746960448201526137b760f11b6064820152608401610354565b815f8111801561179357506004548111155b6117d95760405162461bcd60e51b8152602060048201526017602482015276115b1958dd1a5bdb88191bd95cc81b9bdd08195e1a5cdd604a1b6044820152606401610354565b5f8381526020818152604091829020600501805460ff1916851515908117909155915191825284917f550243ff1a84cc99f7f82bfd2e29380f33523ca72cde0783141c25ed8f4dede3910160405180910390a2505050565b6060815f8111801561184557506004548111155b61188b5760405162461bcd60e51b8152602060048201526017602482015276115b1958dd1a5bdb88191bd95cc81b9bdd08195e1a5cdd604a1b6044820152606401610354565b5f83815260208190526040812060060154908167ffffffffffffffff8111156118b6576118b6611db3565b6040519080825280602002602001820160405280156118df578160200160208202803683370190505b50905060015b828111611943575f86815260016020818152604080842085855290915290912060040154908390611916908461226b565b8151811061192657611926612284565b60209081029190910101528061193b816120ef565b9150506118e5565b509250505b50919050565b6060815f8111801561196257506004548111155b6119a85760405162461bcd60e51b8152602060048201526017602482015276115b1958dd1a5bdb88191bd95cc81b9bdd08195e1a5cdd604a1b6044820152606401610354565b5f83815260208190526040812060060154908167ffffffffffffffff8111156119d3576119d3611db3565b604051908082528060200260200182016040528015611a3457816020015b611a216040518060a001604052805f81526020016060815260200160608152602001606081526020015f81525090565b8152602001906001900390816119f15790505b50905060015b828111611943575f868152600160208181526040808420858552825292839020835160a0810190945280548452918201805491840191611a79906120a9565b80601f0160208091040260200160405190810160405280929190818152602001828054611aa5906120a9565b8015611af05780601f10611ac757610100808354040283529160200191611af0565b820191905f5260205f20905b815481529060010190602001808311611ad357829003601f168201915b50505050508152602001600282018054611b09906120a9565b80601f0160208091040260200160405190810160405280929190818152602001828054611b35906120a9565b8015611b805780601f10611b5757610100808354040283529160200191611b80565b820191905f5260205f20905b815481529060010190602001808311611b6357829003601f168201915b50505050508152602001600382018054611b99906120a9565b80601f0160208091040260200160405190810160405280929190818152602001828054611bc5906120a9565b8015611c105780601f10611be757610100808354040283529160200191611c10565b820191905f5260205f20905b815481529060010190602001808311611bf357829003601f168201915b5050505050815260200160048201548152505082600183611c31919061226b565b81518110611c4157611c41612284565b60200260200101819052508080611c57906120ef565b915050611a3a565b80356001600160a01b0381168114611c75575f80fd5b919050565b5f8060408385031215611c8b575f80fd5b82359150611c9b60208401611c5f565b90509250929050565b5f8060408385031215611cb5575f80fd5b50508035926020909101359150565b5f81518084528060208401602086015e5f602082860101526020601f19601f83011685010191505092915050565b85815260a060208201525f611d0a60a0830187611cc4565b8281036040840152611d1c8187611cc4565b90508281036060840152611d308186611cc4565b9150508260808301529695505050505050565b5f60208284031215611d53575f80fd5b5035919050565b5f6101008a8352806020840152611d738184018b611cc4565b90508281036040840152611d87818a611cc4565b60608401989098525050608081019490945291151560a084015260c083015260e0909101529392505050565b634e487b7160e01b5f52604160045260245ffd5b5f82601f830112611dd6575f80fd5b813567ffffffffffffffff80821115611df157611df1611db3565b604051601f8301601f19908116603f01168101908282118183101715611e1957611e19611db3565b81604052838152866020858801011115611e31575f80fd5b836020870160208301375f602085830101528094505050505092915050565b5f805f8060808587031215611e63575f80fd5b843567ffffffffffffffff80821115611e7a575f80fd5b611e8688838901611dc7565b95506020870135915080821115611e9b575f80fd5b50611ea887828801611dc7565b949794965050505060408301359260600135919050565b5f805f60608486031215611ed1575f80fd5b8335925060208401359150611ee860408501611c5f565b90509250925092565b5f805f8060808587031215611f04575f80fd5b84359350602085013567ffffffffffffffff80821115611f22575f80fd5b611f2e88838901611dc7565b94506040870135915080821115611f43575f80fd5b611f4f88838901611dc7565b93506060870135915080821115611f64575f80fd5b50611f7187828801611dc7565b91505092959194509250565b5f8060408385031215611f8e575f80fd5b8235915060208301358015158114611fa4575f80fd5b809150509250929050565b602080825282518282018190525f9190848201906040850190845b81811015611fe657835183529284019291840191600101611fca565b50909695505050505050565b5f60208083018184528085518083526040925060408601915060408160051b8701018488015f5b8381101561209b57603f19898403018552815160a08151855288820151818a87015261204782870182611cc4565b915050878201518582038987015261205f8282611cc4565b915050606080830151868303828801526120798382611cc4565b6080948501519790940196909652505094870194925090860190600101612019565b509098975050505050505050565b600181811c908216806120bd57607f821691505b60208210810361194857634e487b7160e01b5f52602260045260245ffd5b634e487b7160e01b5f52601160045260245ffd5b5f60018201612100576121006120db565b5060010190565b601f82111561214e57805f5260205f20601f840160051c8101602085101561212c5750805b601f840160051c820191505b8181101561214b575f8155600101612138565b50505b505050565b815167ffffffffffffffff81111561216d5761216d611db3565b6121818161217b84546120a9565b84612107565b602080601f8311600181146121b4575f841561219d5750858301515b5f19600386901b1c1916600185901b17855561220b565b5f85815260208120601f198616915b828110156121e2578886015182559484019460019091019084016121c3565b50858210156121ff57878501515f19600388901b60f8161c191681555b505060018460011b0185555b505050505050565b606081525f6122256060830186611cc4565b60208301949094525060400152919050565b838152606060208201525f61224f6060830185611cc4565b82810360408401526122618185611cc4565b9695505050505050565b8181038181111561227e5761227e6120db565b92915050565b634e487b7160e01b5f52603260045260245ffdfea26469706673582212202739f31547ce0d8e4ca6b3567391cabd819b35a2e56cf8f00552ac443fd85f7264736f6c63430008190033",
      "opcodes": "PUSH1 0x80 PUSH1 0x40 MSTORE CALLVALUE DUP1 ISZERO PUSH1 0xE JUMPI PUSH0 DUP1 REVERT JUMPDEST POP PUSH1 0x5 DUP1 SLOAD PUSH1 0x1 PUSH1 0x1 PUSH1 0xA0 SHL SUB NOT AND CALLER OR SWAP1 SSTORE PUSH2 0x22CE DUP1 PUSH2 0x2E PUSH0 CODECOPY PUSH0 RETURN INVALID PUSH1 0x80 PUSH1 0x40 MSTORE CALLVALUE DUP1 ISZERO PUSH2 0xF JUMPI PUSH0 DUP1 REVERT JUMPDEST POP PUSH1 0x4 CALLDATASIZE LT PUSH2 0x115 JUMPI PUSH0 CALLDATALOAD PUSH1 0xE0 SHR DUP1 PUSH4 0x997D2830 GT PUSH2 0xAD JUMPI DUP1 PUSH4 0xCE4A2743 GT PUSH2 0x7D JUMPI DUP1 PUSH4 0xE8EDEDA6 GT PUSH2 0x63 JUMPI DUP1 PUSH4 0xE8EDEDA6 EQ PUSH2 0x294 JUMPI DUP1 PUSH4 0xF851A440 EQ PUSH2 0x2B4 JUMPI DUP1 PUSH4 0xF9DED646 EQ PUSH2 0x2DF JUMPI PUSH0 DUP1 REVERT JUMPDEST DUP1 PUSH4 0xCE4A2743 EQ PUSH2 0x26E JUMPI DUP1 PUSH4 0xD5617ECF EQ PUSH2 0x281 JUMPI PUSH0 DUP1 REVERT JUMPDEST DUP1 PUSH4 0x997D2830 EQ PUSH2 0x22A JUMPI DUP1 PUSH4 0x9D710777 EQ PUSH2 0x233 JUMPI DUP1 PUSH4 0xAAECCA52 EQ PUSH2 0x246 JUMPI DUP1 PUSH4 0xB384ABEF EQ PUSH2 0x25B JUMPI PUSH0 DUP1 REVERT JUMPDEST DUP1 PUSH4 0x5BC261FA GT PUSH2 0xE8 JUMPI DUP1 PUSH4 0x5BC261FA EQ PUSH2 0x1CA JUMPI DUP1 PUSH4 0x5E6FEF01 EQ PUSH2 0x1DD JUMPI DUP1 PUSH4 0x7AD36E84 EQ PUSH2 0x204 JUMPI DUP1 PUSH4 0x7DE14242 EQ PUSH2 0x217 JUMPI PUSH0 DUP1 REVERT JUMPDEST DUP1 PUSH4 0xEAC27F4 EQ PUSH2 0x119 JUMPI DUP1 PUSH4 0x43859632 EQ PUSH2 0x13F JUMPI DUP1 PUSH4 0x4BD46448 EQ PUSH2 0x17C JUMPI DUP1 PUSH4 0x51477141 EQ PUSH2 0x1A0 JUMPI JUMPDEST PUSH0 DUP1 REVERT JUMPDEST PUSH2 0x12C PUSH2 0x127 CALLDATASIZE PUSH1 0x4 PUSH2 0x1C7A JUMP JUMPDEST PUSH2 0x2FF JUMP JUMPDEST PUSH1 0x40 MLOAD SWAP1 DUP2 MSTORE PUSH1 0x20 ADD JUMPDEST PUSH1 0x40 MLOAD DUP1 SWAP2 SUB SWAP1 RETURN JUMPDEST PUSH2 0x16C PUSH2 0x14D CALLDATASIZE PUSH1 0x4 PUSH2 0x1C7A JUMP JUMPDEST PUSH1 0x2 PUSH1 0x20 SWAP1 DUP2 MSTORE PUSH0 SWAP3 DUP4 MSTORE PUSH1 0x40 DUP1 DUP5 KECCAK256 SWAP1 SWAP2 MSTORE SWAP1 DUP3 MSTORE SWAP1 KECCAK256 SLOAD PUSH1 0xFF AND DUP2 JUMP JUMPDEST PUSH1 0x40 MLOAD SWAP1 ISZERO ISZERO DUP2 MSTORE PUSH1 0x20 ADD PUSH2 0x136 JUMP JUMPDEST PUSH2 0x18F PUSH2 0x18A CALLDATASIZE PUSH1 0x4 PUSH2 0x1CA4 JUMP JUMPDEST PUSH2 0x3F7 JUMP JUMPDEST PUSH1 0x40 MLOAD PUSH2 0x136 SWAP6 SWAP5 SWAP4 SWAP3 SWAP2 SWAP1 PUSH2 0x1CF2 JUMP JUMPDEST PUSH2 0x12C PUSH2 0x1AE CALLDATASIZE PUSH1 0x4 PUSH2 0x1C7A JUMP JUMPDEST PUSH1 0x3 PUSH1 0x20 SWAP1 DUP2 MSTORE PUSH0 SWAP3 DUP4 MSTORE PUSH1 0x40 DUP1 DUP5 KECCAK256 SWAP1 SWAP2 MSTORE SWAP1 DUP3 MSTORE SWAP1 KECCAK256 SLOAD DUP2 JUMP JUMPDEST PUSH2 0x16C PUSH2 0x1D8 CALLDATASIZE PUSH1 0x4 PUSH2 0x1C7A JUMP JUMPDEST PUSH2 0x665 JUMP JUMPDEST PUSH2 0x1F0 PUSH2 0x1EB CALLDATASIZE PUSH1 0x4 PUSH2 0x1D43 JUMP JUMPDEST PUSH2 0x6EA JUMP JUMPDEST PUSH1 0x40 MLOAD PUSH2 0x136 SWAP9 SWAP8 SWAP7 SWAP6 SWAP5 SWAP4 SWAP3 SWAP2 SWAP1 PUSH2 0x1D5A JUMP JUMPDEST PUSH2 0x12C PUSH2 0x212 CALLDATASIZE PUSH1 0x4 PUSH2 0x1E50 JUMP JUMPDEST PUSH2 0x83A JUMP JUMPDEST PUSH2 0x18F PUSH2 0x225 CALLDATASIZE PUSH1 0x4 PUSH2 0x1CA4 JUMP JUMPDEST PUSH2 0x9FA JUMP JUMPDEST PUSH2 0x12C PUSH1 0x4 SLOAD DUP2 JUMP JUMPDEST PUSH2 0x1F0 PUSH2 0x241 CALLDATASIZE PUSH1 0x4 PUSH2 0x1D43 JUMP JUMPDEST PUSH2 0xBC1 JUMP JUMPDEST PUSH2 0x259 PUSH2 0x254 CALLDATASIZE PUSH1 0x4 PUSH2 0x1EBF JUMP JUMPDEST PUSH2 0xDF0 JUMP JUMPDEST STOP JUMPDEST PUSH2 0x259 PUSH2 0x269 CALLDATASIZE PUSH1 0x4 PUSH2 0x1CA4 JUMP JUMPDEST PUSH2 0x11E3 JUMP JUMPDEST PUSH2 0x259 PUSH2 0x27C CALLDATASIZE PUSH1 0x4 PUSH2 0x1EF1 JUMP JUMPDEST PUSH2 0x14E8 JUMP JUMPDEST PUSH2 0x259 PUSH2 0x28F CALLDATASIZE PUSH1 0x4 PUSH2 0x1F7D JUMP JUMPDEST PUSH2 0x171C JUMP JUMPDEST PUSH2 0x2A7 PUSH2 0x2A2 CALLDATASIZE PUSH1 0x4 PUSH2 0x1D43 JUMP JUMPDEST PUSH2 0x1831 JUMP JUMPDEST PUSH1 0x40 MLOAD PUSH2 0x136 SWAP2 SWAP1 PUSH2 0x1FAF JUMP JUMPDEST PUSH1 0x5 SLOAD PUSH2 0x2C7 SWAP1 PUSH1 0x1 PUSH1 0x1 PUSH1 0xA0 SHL SUB AND DUP2 JUMP JUMPDEST PUSH1 0x40 MLOAD PUSH1 0x1 PUSH1 0x1 PUSH1 0xA0 SHL SUB SWAP1 SWAP2 AND DUP2 MSTORE PUSH1 0x20 ADD PUSH2 0x136 JUMP JUMPDEST PUSH2 0x2F2 PUSH2 0x2ED CALLDATASIZE PUSH1 0x4 PUSH2 0x1D43 JUMP JUMPDEST PUSH2 0x194E JUMP JUMPDEST PUSH1 0x40 MLOAD PUSH2 0x136 SWAP2 SWAP1 PUSH2 0x1FF2 JUMP JUMPDEST PUSH0 DUP3 PUSH0 DUP2 GT DUP1 ISZERO PUSH2 0x312 JUMPI POP PUSH1 0x4 SLOAD DUP2 GT ISZERO JUMPDEST PUSH2 0x35D JUMPI PUSH1 0x40 MLOAD PUSH3 0x461BCD PUSH1 0xE5 SHL DUP2 MSTORE PUSH1 0x20 PUSH1 0x4 DUP3 ADD MSTORE PUSH1 0x17 PUSH1 0x24 DUP3 ADD MSTORE PUSH23 0x115B1958DD1A5BDB88191BD95CC81B9BDD08195E1A5CDD PUSH1 0x4A SHL PUSH1 0x44 DUP3 ADD MSTORE PUSH1 0x64 ADD JUMPDEST PUSH1 0x40 MLOAD DUP1 SWAP2 SUB SWAP1 REVERT JUMPDEST PUSH0 DUP5 DUP2 MSTORE PUSH1 0x2 PUSH1 0x20 SWAP1 DUP2 MSTORE PUSH1 0x40 DUP1 DUP4 KECCAK256 PUSH1 0x1 PUSH1 0x1 PUSH1 0xA0 SHL SUB DUP8 AND DUP5 MSTORE SWAP1 SWAP2 MSTORE SWAP1 KECCAK256 SLOAD PUSH1 0xFF AND PUSH2 0x3CE JUMPI PUSH1 0x40 MLOAD PUSH3 0x461BCD PUSH1 0xE5 SHL DUP2 MSTORE PUSH1 0x20 PUSH1 0x4 DUP3 ADD MSTORE PUSH1 0x17 PUSH1 0x24 DUP3 ADD MSTORE PUSH32 0x566F74657220686173206E6F7420766F74656420796574000000000000000000 PUSH1 0x44 DUP3 ADD MSTORE PUSH1 0x64 ADD PUSH2 0x354 JUMP JUMPDEST POP POP PUSH0 SWAP2 DUP3 MSTORE PUSH1 0x3 PUSH1 0x20 SWAP1 DUP2 MSTORE PUSH1 0x40 DUP1 DUP5 KECCAK256 PUSH1 0x1 PUSH1 0x1 PUSH1 0xA0 SHL SUB SWAP4 SWAP1 SWAP4 AND DUP5 MSTORE SWAP2 SWAP1 MSTORE SWAP1 KECCAK256 SLOAD SWAP1 JUMP JUMPDEST PUSH0 PUSH1 0x60 DUP1 PUSH1 0x60 PUSH0 DUP7 PUSH0 DUP2 GT DUP1 ISZERO PUSH2 0x410 JUMPI POP PUSH1 0x4 SLOAD DUP2 GT ISZERO JUMPDEST PUSH2 0x456 JUMPI PUSH1 0x40 MLOAD PUSH3 0x461BCD PUSH1 0xE5 SHL DUP2 MSTORE PUSH1 0x20 PUSH1 0x4 DUP3 ADD MSTORE PUSH1 0x17 PUSH1 0x24 DUP3 ADD MSTORE PUSH23 0x115B1958DD1A5BDB88191BD95CC81B9BDD08195E1A5CDD PUSH1 0x4A SHL PUSH1 0x44 DUP3 ADD MSTORE PUSH1 0x64 ADD PUSH2 0x354 JUMP JUMPDEST PUSH0 DUP9 DUP2 MSTORE PUSH1 0x1 PUSH1 0x20 DUP2 DUP2 MSTORE PUSH1 0x40 DUP1 DUP5 KECCAK256 DUP12 DUP6 MSTORE DUP3 MSTORE DUP1 DUP5 KECCAK256 DUP2 MLOAD PUSH1 0xA0 DUP2 ADD SWAP1 SWAP3 MSTORE DUP1 SLOAD DUP3 MSTORE SWAP3 DUP4 ADD DUP1 SLOAD SWAP2 SWAP4 SWAP3 DUP5 ADD SWAP2 PUSH2 0x48F SWAP1 PUSH2 0x20A9 JUMP JUMPDEST DUP1 PUSH1 0x1F ADD PUSH1 0x20 DUP1 SWAP2 DIV MUL PUSH1 0x20 ADD PUSH1 0x40 MLOAD SWAP1 DUP2 ADD PUSH1 0x40 MSTORE DUP1 SWAP3 SWAP2 SWAP1 DUP2 DUP2 MSTORE PUSH1 0x20 ADD DUP3 DUP1 SLOAD PUSH2 0x4BB SWAP1 PUSH2 0x20A9 JUMP JUMPDEST DUP1 ISZERO PUSH2 0x506 JUMPI DUP1 PUSH1 0x1F LT PUSH2 0x4DD JUMPI PUSH2 0x100 DUP1 DUP4 SLOAD DIV MUL DUP4 MSTORE SWAP2 PUSH1 0x20 ADD SWAP2 PUSH2 0x506 JUMP JUMPDEST DUP3 ADD SWAP2 SWAP1 PUSH0 MSTORE PUSH1 0x20 PUSH0 KECCAK256 SWAP1 JUMPDEST DUP2 SLOAD DUP2 MSTORE SWAP1 PUSH1 0x1 ADD SWAP1 PUSH1 0x20 ADD DUP1 DUP4 GT PUSH2 0x4E9 JUMPI DUP3 SWAP1 SUB PUSH1 0x1F AND DUP3 ADD SWAP2 JUMPDEST POP POP POP POP POP DUP2 MSTORE PUSH1 0x20 ADD PUSH1 0x2 DUP3 ADD DUP1 SLOAD PUSH2 0x51F SWAP1 PUSH2 0x20A9 JUMP JUMPDEST DUP1 PUSH1 0x1F ADD PUSH1 0x20 DUP1 SWAP2 DIV MUL PUSH1 0x20 ADD PUSH1 0x40 MLOAD SWAP1 DUP2 ADD PUSH1 0x40 MSTORE DUP1 SWAP3 SWAP2 SWAP1 DUP2 DUP2 MSTORE PUSH1 0x20 ADD DUP3 DUP1 SLOAD PUSH2 0x54B SWAP1 PUSH2 0x20A9 JUMP JUMPDEST DUP1 ISZERO PUSH2 0x596 JUMPI DUP1 PUSH1 0x1F LT PUSH2 0x56D JUMPI PUSH2 0x100 DUP1 DUP4 SLOAD DIV MUL DUP4 MSTORE SWAP2 PUSH1 0x20 ADD SWAP2 PUSH2 0x596 JUMP JUMPDEST DUP3 ADD SWAP2 SWAP1 PUSH0 MSTORE PUSH1 0x20 PUSH0 KECCAK256 SWAP1 JUMPDEST DUP2 SLOAD DUP2 MSTORE SWAP1 PUSH1 0x1 ADD SWAP1 PUSH1 0x20 ADD DUP1 DUP4 GT PUSH2 0x579 JUMPI DUP3 SWAP1 SUB PUSH1 0x1F AND DUP3 ADD SWAP2 JUMPDEST POP POP POP POP POP DUP2 MSTORE PUSH1 0x20 ADD PUSH1 0x3 DUP3 ADD DUP1 SLOAD PUSH2 0x5AF SWAP1 PUSH2 0x20A9 JUMP JUMPDEST DUP1 PUSH1 0x1F ADD PUSH1 0x20 DUP1 SWAP2 DIV MUL PUSH1 0x20 ADD PUSH1 0x40 MLOAD SWAP1 DUP2 ADD PUSH1 0x40 MSTORE DUP1 SWAP3 SWAP2 SWAP1 DUP2 DUP2 MSTORE PUSH1 0x20 ADD DUP3 DUP1 SLOAD PUSH2 0x5DB SWAP1 PUSH2 0x20A9 JUMP JUMPDEST DUP1 ISZERO PUSH2 0x626 JUMPI DUP1 PUSH1 0x1F LT PUSH2 0x5FD JUMPI PUSH2 0x100 DUP1 DUP4 SLOAD DIV MUL DUP4 MSTORE SWAP2 PUSH1 0x20 ADD SWAP2 PUSH2 0x626 JUMP JUMPDEST DUP3 ADD SWAP2 SWAP1 PUSH0 MSTORE PUSH1 0x20 PUSH0 KECCAK256 SWAP1 JUMPDEST DUP2 SLOAD DUP2 MSTORE SWAP1 PUSH1 0x1 ADD SWAP1 PUSH1 0x20 ADD DUP1 DUP4 GT PUSH2 0x609 JUMPI DUP3 SWAP1 SUB PUSH1 0x1F AND DUP3 ADD SWAP2 JUMPDEST POP POP POP SWAP2 DUP4 MSTORE POP POP PUSH1 0x4 SWAP2 SWAP1 SWAP2 ADD SLOAD PUSH1 0x20 SWAP2 DUP3 ADD MSTORE DUP2 MLOAD SWAP1 DUP3 ADD MLOAD PUSH1 0x40 DUP4 ADD MLOAD PUSH1 0x60 DUP5 ADD MLOAD PUSH1 0x80 SWAP1 SWAP5 ADD MLOAD SWAP3 SWAP14 SWAP2 SWAP13 POP SWAP11 POP SWAP2 SWAP9 POP SWAP7 POP SWAP5 POP POP POP POP POP JUMP JUMPDEST PUSH0 DUP3 PUSH0 DUP2 GT DUP1 ISZERO PUSH2 0x678 JUMPI POP PUSH1 0x4 SLOAD DUP2 GT ISZERO JUMPDEST PUSH2 0x6BE JUMPI PUSH1 0x40 MLOAD PUSH3 0x461BCD PUSH1 0xE5 SHL DUP2 MSTORE PUSH1 0x20 PUSH1 0x4 DUP3 ADD MSTORE PUSH1 0x17 PUSH1 0x24 DUP3 ADD MSTORE PUSH23 0x115B1958DD1A5BDB88191BD95CC81B9BDD08195E1A5CDD PUSH1 0x4A SHL PUSH1 0x44 DUP3 ADD MSTORE PUSH1 0x64 ADD PUSH2 0x354 JUMP JUMPDEST POP POP PUSH0 SWAP2 DUP3 MSTORE PUSH1 0x2 PUSH1 0x20 SWAP1 DUP2 MSTORE PUSH1 0x40 DUP1 DUP5 KECCAK256 PUSH1 0x1 PUSH1 0x1 PUSH1 0xA0 SHL SUB SWAP4 SWAP1 SWAP4 AND DUP5 MSTORE SWAP2 SWAP1 MSTORE SWAP1 KECCAK256 SLOAD PUSH1 0xFF AND SWAP1 JUMP JUMPDEST PUSH0 PUSH1 0x20 DUP2 SWAP1 MSTORE SWAP1 DUP2 MSTORE PUSH1 0x40 SWAP1 KECCAK256 DUP1 SLOAD PUSH1 0x1 DUP3 ADD DUP1 SLOAD SWAP2 SWAP3 SWAP2 PUSH2 0x70B SWAP1 PUSH2 0x20A9 JUMP JUMPDEST DUP1 PUSH1 0x1F ADD PUSH1 0x20 DUP1 SWAP2 DIV MUL PUSH1 0x20 ADD PUSH1 0x40 MLOAD SWAP1 DUP2 ADD PUSH1 0x40 MSTORE DUP1 SWAP3 SWAP2 SWAP1 DUP2 DUP2 MSTORE PUSH1 0x20 ADD DUP3 DUP1 SLOAD PUSH2 0x737 SWAP1 PUSH2 0x20A9 JUMP JUMPDEST DUP1 ISZERO PUSH2 0x782 JUMPI DUP1 PUSH1 0x1F LT PUSH2 0x759 JUMPI PUSH2 0x100 DUP1 DUP4 SLOAD DIV MUL DUP4 MSTORE SWAP2 PUSH1 0x20 ADD SWAP2 PUSH2 0x782 JUMP JUMPDEST DUP3 ADD SWAP2 SWAP1 PUSH0 MSTORE PUSH1 0x20 PUSH0 KECCAK256 SWAP1 JUMPDEST DUP2 SLOAD DUP2 MSTORE SWAP1 PUSH1 0x1 ADD SWAP1 PUSH1 0x20 ADD DUP1 DUP4 GT PUSH2 0x765 JUMPI DUP3 SWAP1 SUB PUSH1 0x1F AND DUP3 ADD SWAP2 JUMPDEST POP POP POP POP POP SWAP1 DUP1 PUSH1 0x2 ADD DUP1 SLOAD PUSH2 0x797 SWAP1 PUSH2 0x20A9 JUMP JUMPDEST DUP1 PUSH1 0x1F ADD PUSH1 0x20 DUP1 SWAP2 DIV MUL PUSH1 0x20 ADD PUSH1 0x40 MLOAD SWAP1 DUP2 ADD PUSH1 0x40 MSTORE DUP1 SWAP3 SWAP2 SWAP1 DUP2 DUP2 MSTORE PUSH1 0x20 ADD DUP3 DUP1 SLOAD PUSH2 0x7C3 SWAP1 PUSH2 0x20A9 JUMP JUMPDEST DUP1 ISZERO PUSH2 0x80E JUMPI DUP1 PUSH1 0x1F LT PUSH2 0x7E5 JUMPI PUSH2 0x100 DUP1 DUP4 SLOAD DIV MUL DUP4 MSTORE SWAP2 PUSH1 0x20 ADD SWAP2 PUSH2 0x80E JUMP JUMPDEST DUP3 ADD SWAP2 SWAP1 PUSH0 MSTORE PUSH1 0x20 PUSH0 KECCAK256 SWAP1 JUMPDEST DUP2 SLOAD DUP2 MSTORE SWAP1 PUSH1 0x1 ADD SWAP1 PUSH1 0x20 ADD DUP1 DUP4 GT PUSH2 0x7F1 JUMPI DUP3 SWAP1 SUB PUSH1 0x1F AND DUP3 ADD SWAP2 JUMPDEST POP POP POP PUSH1 0x3 DUP5 ADD SLOAD PUSH1 0x4 DUP6 ADD SLOAD PUSH1 0x5 DUP7 ADD SLOAD PUSH1 0x6 DUP8 ADD SLOAD PUSH1 0x7 SWAP1 SWAP8 ADD SLOAD SWAP6 SWAP7 SWAP3 SWAP6 SWAP2 SWAP5 POP PUSH1 0xFF AND SWAP3 POP DUP9 JUMP JUMPDEST PUSH1 0x5 SLOAD PUSH0 SWAP1 PUSH1 0x1 PUSH1 0x1 PUSH1 0xA0 SHL SUB AND CALLER EQ PUSH2 0x8A1 JUMPI PUSH1 0x40 MLOAD PUSH3 0x461BCD PUSH1 0xE5 SHL DUP2 MSTORE PUSH1 0x20 PUSH1 0x4 DUP3 ADD MSTORE PUSH1 0x22 PUSH1 0x24 DUP3 ADD MSTORE PUSH32 0x4F6E6C792061646D696E2063616E20706572666F726D20746869732061637469 PUSH1 0x44 DUP3 ADD MSTORE PUSH2 0x37B7 PUSH1 0xF1 SHL PUSH1 0x64 DUP3 ADD MSTORE PUSH1 0x84 ADD PUSH2 0x354 JUMP JUMPDEST DUP2 DUP4 LT PUSH2 0x8F0 JUMPI PUSH1 0x40 MLOAD PUSH3 0x461BCD PUSH1 0xE5 SHL DUP2 MSTORE PUSH1 0x20 PUSH1 0x4 DUP3 ADD MSTORE PUSH1 0x12 PUSH1 0x24 DUP3 ADD MSTORE PUSH32 0x496E76616C69642074696D652072616E67650000000000000000000000000000 PUSH1 0x44 DUP3 ADD MSTORE PUSH1 0x64 ADD PUSH2 0x354 JUMP JUMPDEST TIMESTAMP DUP4 LT ISZERO PUSH2 0x940 JUMPI PUSH1 0x40 MLOAD PUSH3 0x461BCD PUSH1 0xE5 SHL DUP2 MSTORE PUSH1 0x20 PUSH1 0x4 DUP3 ADD DUP2 SWAP1 MSTORE PUSH1 0x24 DUP3 ADD MSTORE PUSH32 0x53746172742074696D65206D75737420626520696E2074686520667574757265 PUSH1 0x44 DUP3 ADD MSTORE PUSH1 0x64 ADD PUSH2 0x354 JUMP JUMPDEST PUSH1 0x4 DUP1 SLOAD SWAP1 PUSH0 PUSH2 0x94F DUP4 PUSH2 0x20EF JUMP JUMPDEST SWAP1 SWAP2 SSTORE POP POP PUSH1 0x4 SLOAD PUSH0 DUP2 DUP2 MSTORE PUSH1 0x20 DUP2 SWAP1 MSTORE PUSH1 0x40 SWAP1 KECCAK256 SWAP1 DUP2 SSTORE PUSH1 0x1 DUP2 ADD PUSH2 0x975 DUP8 DUP3 PUSH2 0x2153 JUMP JUMPDEST POP PUSH1 0x2 DUP2 ADD PUSH2 0x984 DUP7 DUP3 PUSH2 0x2153 JUMP JUMPDEST POP PUSH1 0x3 DUP2 ADD DUP5 SWAP1 SSTORE PUSH1 0x4 DUP1 DUP3 ADD DUP5 SWAP1 SSTORE PUSH1 0x5 DUP3 ADD DUP1 SLOAD PUSH1 0xFF NOT AND PUSH1 0x1 OR SWAP1 SSTORE PUSH0 PUSH1 0x6 DUP4 ADD DUP2 SWAP1 SSTORE PUSH1 0x7 DUP4 ADD SSTORE SLOAD PUSH1 0x40 MLOAD PUSH32 0xE7A0AAE5D733E07E246DEA86213A1AC1B0AA8554BDE889BB75C12752F44E53D9 SWAP1 PUSH2 0x9E5 SWAP1 DUP10 SWAP1 DUP9 SWAP1 DUP9 SWAP1 PUSH2 0x2213 JUMP JUMPDEST PUSH1 0x40 MLOAD DUP1 SWAP2 SUB SWAP1 LOG2 POP POP PUSH1 0x4 SLOAD SWAP5 SWAP4 POP POP POP POP JUMP JUMPDEST PUSH1 0x1 PUSH1 0x20 DUP2 DUP2 MSTORE PUSH0 SWAP4 DUP5 MSTORE PUSH1 0x40 DUP1 DUP6 KECCAK256 SWAP1 SWAP2 MSTORE SWAP2 DUP4 MSTORE SWAP2 KECCAK256 DUP1 SLOAD SWAP2 DUP2 ADD DUP1 SLOAD PUSH2 0xA22 SWAP1 PUSH2 0x20A9 JUMP JUMPDEST DUP1 PUSH1 0x1F ADD PUSH1 0x20 DUP1 SWAP2 DIV MUL PUSH1 0x20 ADD PUSH1 0x40 MLOAD SWAP1 DUP2 ADD PUSH1 0x40 MSTORE DUP1 SWAP3 SWAP2 SWAP1 DUP2 DUP2 MSTORE PUSH1 0x20 ADD DUP3 DUP1 SLOAD PUSH2 0xA4E SWAP1 PUSH2 0x20A9 JUMP JUMPDEST DUP1 ISZERO PUSH2 0xA99 JUMPI DUP1 PUSH1 0x1F LT PUSH2 0xA70 JUMPI PUSH2 0x100 DUP1 DUP4 SLOAD DIV MUL DUP4 MSTORE SWAP2 PUSH1 0x20 ADD SWAP2 PUSH2 0xA99 JUMP JUMPDEST DUP3 ADD SWAP2 SWAP1 PUSH0 MSTORE PUSH1 0x20 PUSH0 KECCAK256 SWAP1 JUMPDEST DUP2 SLOAD DUP2 MSTORE SWAP1 PUSH1 0x1 ADD SWAP1 PUSH1 0x20 ADD DUP1 DUP4 GT PUSH2 0xA7C JUMPI DUP3 SWAP1 SUB PUSH1 0x1F AND DUP3 ADD SWAP2 JUMPDEST POP POP POP POP POP SWAP1 DUP1 PUSH1 0x2 ADD DUP1 SLOAD PUSH2 0xAAE SWAP1 PUSH2 0x20A9 JUMP JUMPDEST DUP1 PUSH1 0x1F ADD PUSH1 0x20 DUP1 SWAP2 DIV MUL PUSH1 0x20 ADD PUSH1 0x40 MLOAD SWAP1 DUP2 ADD PUSH1 0x40 MSTORE DUP1 SWAP3 SWAP2 SWAP1 DUP2 DUP2 MSTORE PUSH1 0x20 ADD DUP3 DUP1 SLOAD PUSH2 0xADA SWAP1 PUSH2 0x20A9 JUMP JUMPDEST DUP1 ISZERO PUSH2 0xB25 JUMPI DUP1 PUSH1 0x1F LT PUSH2 0xAFC JUMPI PUSH2 0x100 DUP1 DUP4 SLOAD DIV MUL DUP4 MSTORE SWAP2 PUSH1 0x20 ADD SWAP2 PUSH2 0xB25 JUMP JUMPDEST DUP3 ADD SWAP2 SWAP1 PUSH0 MSTORE PUSH1 0x20 PUSH0 KECCAK256 SWAP1 JUMPDEST DUP2 SLOAD DUP2 MSTORE SWAP1 PUSH1 0x1 ADD SWAP1 PUSH1 0x20 ADD DUP1 DUP4 GT PUSH2 0xB08 JUMPI DUP3 SWAP1 SUB PUSH1 0x1F AND DUP3 ADD SWAP2 JUMPDEST POP POP POP POP POP SWAP1 DUP1 PUSH1 0x3 ADD DUP1 SLOAD PUSH2 0xB3A SWAP1 PUSH2 0x20A9 JUMP JUMPDEST DUP1 PUSH1 0x1F ADD PUSH1 0x20 DUP1 SWAP2 DIV MUL PUSH1 0x20 ADD PUSH1 0x40 MLOAD SWAP1 DUP2 ADD PUSH1 0x40 MSTORE DUP1 SWAP3 SWAP2 SWAP1 DUP2 DUP2 MSTORE PUSH1 0x20 ADD DUP3 DUP1 SLOAD PUSH2 0xB66 SWAP1 PUSH2 0x20A9 JUMP JUMPDEST DUP1 ISZERO PUSH2 0xBB1 JUMPI DUP1 PUSH1 0x1F LT PUSH2 0xB88 JUMPI PUSH2 0x100 DUP1 DUP4 SLOAD DIV MUL DUP4 MSTORE SWAP2 PUSH1 0x20 ADD SWAP2 PUSH2 0xBB1 JUMP JUMPDEST DUP3 ADD SWAP2 SWAP1 PUSH0 MSTORE PUSH1 0x20 PUSH0 KECCAK256 SWAP1 JUMPDEST DUP2 SLOAD DUP2 MSTORE SWAP1 PUSH1 0x1 ADD SWAP1 PUSH1 0x20 ADD DUP1 DUP4 GT PUSH2 0xB94 JUMPI DUP3 SWAP1 SUB PUSH1 0x1F AND DUP3 ADD SWAP2 JUMPDEST POP POP POP POP POP SWAP1 DUP1 PUSH1 0x4 ADD SLOAD SWAP1 POP DUP6 JUMP JUMPDEST PUSH0 PUSH1 0x60 DUP1 PUSH0 DUP1 PUSH0 DUP1 PUSH0 DUP9 PUSH0 DUP2 GT DUP1 ISZERO PUSH2 0xBDC JUMPI POP PUSH1 0x4 SLOAD DUP2 GT ISZERO JUMPDEST PUSH2 0xC22 JUMPI PUSH1 0x40 MLOAD PUSH3 0x461BCD PUSH1 0xE5 SHL DUP2 MSTORE PUSH1 0x20 PUSH1 0x4 DUP3 ADD MSTORE PUSH1 0x17 PUSH1 0x24 DUP3 ADD MSTORE PUSH23 0x115B1958DD1A5BDB88191BD95CC81B9BDD08195E1A5CDD PUSH1 0x4A SHL PUSH1 0x44 DUP3 ADD MSTORE PUSH1 0x64 ADD PUSH2 0x354 JUMP JUMPDEST PUSH0 DUP1 PUSH0 DUP13 DUP2 MSTORE PUSH1 0x20 ADD SWAP1 DUP2 MSTORE PUSH1 0x20 ADD PUSH0 KECCAK256 PUSH1 0x40 MLOAD DUP1 PUSH2 0x100 ADD PUSH1 0x40 MSTORE SWAP1 DUP2 PUSH0 DUP3 ADD SLOAD DUP2 MSTORE PUSH1 0x20 ADD PUSH1 0x1 DUP3 ADD DUP1 SLOAD PUSH2 0xC58 SWAP1 PUSH2 0x20A9 JUMP JUMPDEST DUP1 PUSH1 0x1F ADD PUSH1 0x20 DUP1 SWAP2 DIV MUL PUSH1 0x20 ADD PUSH1 0x40 MLOAD SWAP1 DUP2 ADD PUSH1 0x40 MSTORE DUP1 SWAP3 SWAP2 SWAP1 DUP2 DUP2 MSTORE PUSH1 0x20 ADD DUP3 DUP1 SLOAD PUSH2 0xC84 SWAP1 PUSH2 0x20A9 JUMP JUMPDEST DUP1 ISZERO PUSH2 0xCCF JUMPI DUP1 PUSH1 0x1F LT PUSH2 0xCA6 JUMPI PUSH2 0x100 DUP1 DUP4 SLOAD DIV MUL DUP4 MSTORE SWAP2 PUSH1 0x20 ADD SWAP2 PUSH2 0xCCF JUMP JUMPDEST DUP3 ADD SWAP2 SWAP1 PUSH0 MSTORE PUSH1 0x20 PUSH0 KECCAK256 SWAP1 JUMPDEST DUP2 SLOAD DUP2 MSTORE SWAP1 PUSH1 0x1 ADD SWAP1 PUSH1 0x20 ADD DUP1 DUP4 GT PUSH2 0xCB2 JUMPI DUP3 SWAP1 SUB PUSH1 0x1F AND DUP3 ADD SWAP2 JUMPDEST POP POP POP POP POP DUP2 MSTORE PUSH1 0x20 ADD PUSH1 0x2 DUP3 ADD DUP1 SLOAD PUSH2 0xCE8 SWAP1 PUSH2 0x20A9 JUMP JUMPDEST DUP1 PUSH1 0x1F ADD PUSH1 0x20 DUP1 SWAP2 DIV MUL PUSH1 0x20 ADD PUSH1 0x40 MLOAD SWAP1 DUP2 ADD PUSH1 0x40 MSTORE DUP1 SWAP3 SWAP2 SWAP1 DUP2 DUP2 MSTORE PUSH1 0x20 ADD DUP3 DUP1 SLOAD PUSH2 0xD14 SWAP1 PUSH2 0x20A9 JUMP JUMPDEST DUP1 ISZERO PUSH2 0xD5F JUMPI DUP1 PUSH1 0x1F LT PUSH2 0xD36 JUMPI PUSH2 0x100 DUP1 DUP4 SLOAD DIV MUL DUP4 MSTORE SWAP2 PUSH1 0x20 ADD SWAP2 PUSH2 0xD5F JUMP JUMPDEST DUP3 ADD SWAP2 SWAP1 PUSH0 MSTORE PUSH1 0x20 PUSH0 KECCAK256 SWAP1 JUMPDEST DUP2 SLOAD DUP2 MSTORE SWAP1 PUSH1 0x1 ADD SWAP1 PUSH1 0x20 ADD DUP1 DUP4 GT PUSH2 0xD42 JUMPI DUP3 SWAP1 SUB PUSH1 0x1F AND DUP3 ADD SWAP2 JUMPDEST POP POP POP POP POP DUP2 MSTORE PUSH1 0x20 ADD PUSH1 0x3 DUP3 ADD SLOAD DUP2 MSTORE PUSH1 0x20 ADD PUSH1 0x4 DUP3 ADD SLOAD DUP2 MSTORE PUSH1 0x20 ADD PUSH1 0x5 DUP3 ADD PUSH0 SWAP1 SLOAD SWAP1 PUSH2 0x100 EXP SWAP1 DIV PUSH1 0xFF AND ISZERO ISZERO ISZERO ISZERO DUP2 MSTORE PUSH1 0x20 ADD PUSH1 0x6 DUP3 ADD SLOAD DUP2 MSTORE PUSH1 0x20 ADD PUSH1 0x7 DUP3 ADD SLOAD DUP2 MSTORE POP POP SWAP1 POP DUP1 PUSH0 ADD MLOAD DUP2 PUSH1 0x20 ADD MLOAD DUP3 PUSH1 0x40 ADD MLOAD DUP4 PUSH1 0x60 ADD MLOAD DUP5 PUSH1 0x80 ADD MLOAD DUP6 PUSH1 0xA0 ADD MLOAD DUP7 PUSH1 0xC0 ADD MLOAD DUP8 PUSH1 0xE0 ADD MLOAD SWAP10 POP SWAP10 POP SWAP10 POP SWAP10 POP SWAP10 POP SWAP10 POP SWAP10 POP SWAP10 POP POP POP SWAP2 SWAP4 SWAP6 SWAP8 POP SWAP2 SWAP4 SWAP6 SWAP8 JUMP JUMPDEST PUSH1 0x5 SLOAD PUSH1 0x1 PUSH1 0x1 PUSH1 0xA0 SHL SUB AND CALLER EQ PUSH2 0xE55 JUMPI PUSH1 0x40 MLOAD PUSH3 0x461BCD PUSH1 0xE5 SHL DUP2 MSTORE PUSH1 0x20 PUSH1 0x4 DUP3 ADD MSTORE PUSH1 0x22 PUSH1 0x24 DUP3 ADD MSTORE PUSH32 0x4F6E6C792061646D696E2063616E20706572666F726D20746869732061637469 PUSH1 0x44 DUP3 ADD MSTORE PUSH2 0x37B7 PUSH1 0xF1 SHL PUSH1 0x64 DUP3 ADD MSTORE PUSH1 0x84 ADD PUSH2 0x354 JUMP JUMPDEST DUP3 PUSH0 DUP2 GT DUP1 ISZERO PUSH2 0xE67 JUMPI POP PUSH1 0x4 SLOAD DUP2 GT ISZERO JUMPDEST PUSH2 0xEAD JUMPI PUSH1 0x40 MLOAD PUSH3 0x461BCD PUSH1 0xE5 SHL DUP2 MSTORE PUSH1 0x20 PUSH1 0x4 DUP3 ADD MSTORE PUSH1 0x17 PUSH1 0x24 DUP3 ADD MSTORE PUSH23 0x115B1958DD1A5BDB88191BD95CC81B9BDD08195E1A5CDD PUSH1 0x4A SHL PUSH1 0x44 DUP3 ADD MSTORE PUSH1 0x64 ADD PUSH2 0x354 JUMP JUMPDEST PUSH0 DUP5 DUP2 MSTORE PUSH1 0x20 DUP2 SWAP1 MSTORE PUSH1 0x40 SWAP1 KECCAK256 PUSH1 0x5 ADD SLOAD DUP5 SWAP1 PUSH1 0xFF AND PUSH2 0xF0F JUMPI PUSH1 0x40 MLOAD PUSH3 0x461BCD PUSH1 0xE5 SHL DUP2 MSTORE PUSH1 0x20 PUSH1 0x4 DUP3 ADD MSTORE PUSH1 0x16 PUSH1 0x24 DUP3 ADD MSTORE PUSH32 0x456C656374696F6E206973206E6F742061637469766500000000000000000000 PUSH1 0x44 DUP3 ADD MSTORE PUSH1 0x64 ADD PUSH2 0x354 JUMP JUMPDEST PUSH0 DUP2 DUP2 MSTORE PUSH1 0x20 DUP2 SWAP1 MSTORE PUSH1 0x40 SWAP1 KECCAK256 PUSH1 0x3 ADD SLOAD TIMESTAMP LT ISZERO PUSH2 0xF6F JUMPI PUSH1 0x40 MLOAD PUSH3 0x461BCD PUSH1 0xE5 SHL DUP2 MSTORE PUSH1 0x20 PUSH1 0x4 DUP3 ADD MSTORE PUSH1 0x18 PUSH1 0x24 DUP3 ADD MSTORE PUSH32 0x456C656374696F6E20686173206E6F7420737461727465640000000000000000 PUSH1 0x44 DUP3 ADD MSTORE PUSH1 0x64 ADD PUSH2 0x354 JUMP JUMPDEST PUSH0 DUP2 DUP2 MSTORE PUSH1 0x20 DUP2 SWAP1 MSTORE PUSH1 0x40 SWAP1 KECCAK256 PUSH1 0x4 ADD SLOAD TIMESTAMP GT ISZERO PUSH2 0xFCF JUMPI PUSH1 0x40 MLOAD PUSH3 0x461BCD PUSH1 0xE5 SHL DUP2 MSTORE PUSH1 0x20 PUSH1 0x4 DUP3 ADD MSTORE PUSH1 0x12 PUSH1 0x24 DUP3 ADD MSTORE PUSH32 0x456C656374696F6E2068617320656E6465640000000000000000000000000000 PUSH1 0x44 DUP3 ADD MSTORE PUSH1 0x64 ADD PUSH2 0x354 JUMP JUMPDEST PUSH1 0x1 PUSH1 0x1 PUSH1 0xA0 SHL SUB DUP4 AND PUSH2 0x1025 JUMPI PUSH1 0x40 MLOAD PUSH3 0x461BCD PUSH1 0xE5 SHL DUP2 MSTORE PUSH1 0x20 PUSH1 0x4 DUP3 ADD MSTORE PUSH1 0x15 PUSH1 0x24 DUP3 ADD MSTORE PUSH32 0x496E76616C696420766F74657220616464726573730000000000000000000000 PUSH1 0x44 DUP3 ADD MSTORE PUSH1 0x64 ADD PUSH2 0x354 JUMP JUMPDEST PUSH0 DUP6 DUP2 MSTORE PUSH1 0x2 PUSH1 0x20 SWAP1 DUP2 MSTORE PUSH1 0x40 DUP1 DUP4 KECCAK256 PUSH1 0x1 PUSH1 0x1 PUSH1 0xA0 SHL SUB DUP8 AND DUP5 MSTORE SWAP1 SWAP2 MSTORE SWAP1 KECCAK256 SLOAD PUSH1 0xFF AND ISZERO PUSH2 0x10A3 JUMPI PUSH1 0x40 MLOAD PUSH3 0x461BCD PUSH1 0xE5 SHL DUP2 MSTORE PUSH1 0x20 PUSH1 0x4 DUP3 ADD MSTORE PUSH1 0x24 DUP1 DUP3 ADD MSTORE PUSH32 0x566F74657220616C726561647920766F74656420696E207468697320656C6563 PUSH1 0x44 DUP3 ADD MSTORE PUSH4 0x3A34B7B7 PUSH1 0xE1 SHL PUSH1 0x64 DUP3 ADD MSTORE PUSH1 0x84 ADD PUSH2 0x354 JUMP JUMPDEST PUSH0 DUP5 GT DUP1 ISZERO PUSH2 0x10C2 JUMPI POP PUSH0 DUP6 DUP2 MSTORE PUSH1 0x20 DUP2 SWAP1 MSTORE PUSH1 0x40 SWAP1 KECCAK256 PUSH1 0x6 ADD SLOAD DUP5 GT ISZERO JUMPDEST PUSH2 0x110E JUMPI PUSH1 0x40 MLOAD PUSH3 0x461BCD PUSH1 0xE5 SHL DUP2 MSTORE PUSH1 0x20 PUSH1 0x4 DUP3 ADD MSTORE PUSH1 0x11 PUSH1 0x24 DUP3 ADD MSTORE PUSH32 0x496E76616C69642063616E646964617465000000000000000000000000000000 PUSH1 0x44 DUP3 ADD MSTORE PUSH1 0x64 ADD PUSH2 0x354 JUMP JUMPDEST PUSH0 DUP6 DUP2 MSTORE PUSH1 0x2 PUSH1 0x20 SWAP1 DUP2 MSTORE PUSH1 0x40 DUP1 DUP4 KECCAK256 PUSH1 0x1 PUSH1 0x1 PUSH1 0xA0 SHL SUB DUP8 AND DUP1 DUP6 MSTORE SWAP1 DUP4 MSTORE DUP2 DUP5 KECCAK256 DUP1 SLOAD PUSH1 0xFF NOT AND PUSH1 0x1 SWAP1 DUP2 OR SWAP1 SWAP2 SSTORE DUP10 DUP6 MSTORE PUSH1 0x3 DUP5 MSTORE DUP3 DUP6 KECCAK256 SWAP2 DUP6 MSTORE SWAP1 DUP4 MSTORE DUP2 DUP5 KECCAK256 DUP9 SWAP1 SSTORE DUP9 DUP5 MSTORE DUP3 MSTORE DUP1 DUP4 KECCAK256 DUP8 DUP5 MSTORE SWAP1 SWAP2 MSTORE DUP2 KECCAK256 PUSH1 0x4 ADD DUP1 SLOAD SWAP2 PUSH2 0x1174 DUP4 PUSH2 0x20EF JUMP JUMPDEST SWAP1 SWAP2 SSTORE POP POP PUSH0 DUP6 DUP2 MSTORE PUSH1 0x20 DUP2 SWAP1 MSTORE PUSH1 0x40 DUP2 KECCAK256 PUSH1 0x7 ADD DUP1 SLOAD SWAP2 PUSH2 0x1195 DUP4 PUSH2 0x20EF JUMP JUMPDEST SWAP1 SWAP2 SSTORE POP POP PUSH1 0x40 MLOAD CALLER DUP2 MSTORE PUSH1 0x1 PUSH1 0x1 PUSH1 0xA0 SHL SUB DUP5 AND SWAP1 DUP6 SWAP1 DUP8 SWAP1 PUSH32 0xD3E6EDA9BC73C3B587A96869F115E313F174E89A2291A06DC9502C609068C435 SWAP1 PUSH1 0x20 ADD PUSH1 0x40 MLOAD DUP1 SWAP2 SUB SWAP1 LOG4 POP POP POP POP POP JUMP JUMPDEST DUP2 PUSH0 DUP2 GT DUP1 ISZERO PUSH2 0x11F5 JUMPI POP PUSH1 0x4 SLOAD DUP2 GT ISZERO JUMPDEST PUSH2 0x123B JUMPI PUSH1 0x40 MLOAD PUSH3 0x461BCD PUSH1 0xE5 SHL DUP2 MSTORE PUSH1 0x20 PUSH1 0x4 DUP3 ADD MSTORE PUSH1 0x17 PUSH1 0x24 DUP3 ADD MSTORE PUSH23 0x115B1958DD1A5BDB88191BD95CC81B9BDD08195E1A5CDD PUSH1 0x4A SHL PUSH1 0x44 DUP3 ADD MSTORE PUSH1 0x64 ADD PUSH2 0x354 JUMP JUMPDEST PUSH0 DUP4 DUP2 MSTORE PUSH1 0x20 DUP2 SWAP1 MSTORE PUSH1 0x40 SWAP1 KECCAK256 PUSH1 0x5 ADD SLOAD DUP4 SWAP1 PUSH1 0xFF AND PUSH2 0x129D JUMPI PUSH1 0x40 MLOAD PUSH3 0x461BCD PUSH1 0xE5 SHL DUP2 MSTORE PUSH1 0x20 PUSH1 0x4 DUP3 ADD MSTORE PUSH1 0x16 PUSH1 0x24 DUP3 ADD MSTORE PUSH32 0x456C656374696F6E206973206E6F742061637469766500000000000000000000 PUSH1 0x44 DUP3 ADD MSTORE PUSH1 0x64 ADD PUSH2 0x354 JUMP JUMPDEST PUSH0 DUP2 DUP2 MSTORE PUSH1 0x20 DUP2 SWAP1 MSTORE PUSH1 0x40 SWAP1 KECCAK256 PUSH1 0x3 ADD SLOAD TIMESTAMP LT ISZERO PUSH2 0x12FD JUMPI PUSH1 0x40 MLOAD PUSH3 0x461BCD PUSH1 0xE5 SHL DUP2 MSTORE PUSH1 0x20 PUSH1 0x4 DUP3 ADD MSTORE PUSH1 0x18 PUSH1 0x24 DUP3 ADD MSTORE PUSH32 0x456C656374696F6E20686173206E6F7420737461727465640000000000000000 PUSH1 0x44 DUP3 ADD MSTORE PUSH1 0x64 ADD PUSH2 0x354 JUMP JUMPDEST PUSH0 DUP2 DUP2 MSTORE PUSH1 0x20 DUP2 SWAP1 MSTORE PUSH1 0x40 SWAP1 KECCAK256 PUSH1 0x4 ADD SLOAD TIMESTAMP GT ISZERO PUSH2 0x135D JUMPI PUSH1 0x40 MLOAD PUSH3 0x461BCD PUSH1 0xE5 SHL DUP2 MSTORE PUSH1 0x20 PUSH1 0x4 DUP3 ADD MSTORE PUSH1 0x12 PUSH1 0x24 DUP3 ADD MSTORE PUSH32 0x456C656374696F6E2068617320656E6465640000000000000000000000000000 PUSH1 0x44 DUP3 ADD MSTORE PUSH1 0x64 ADD PUSH2 0x354 JUMP JUMPDEST PUSH0 DUP5 DUP2 MSTORE PUSH1 0x2 PUSH1 0x20 SWAP1 DUP2 MSTORE PUSH1 0x40 DUP1 DUP4 KECCAK256 CALLER DUP5 MSTORE SWAP1 SWAP2 MSTORE SWAP1 KECCAK256 SLOAD PUSH1 0xFF AND ISZERO PUSH2 0x13C6 JUMPI PUSH1 0x40 MLOAD PUSH3 0x461BCD PUSH1 0xE5 SHL DUP2 MSTORE PUSH1 0x20 PUSH1 0x4 DUP3 ADD MSTORE PUSH1 0x1E PUSH1 0x24 DUP3 ADD MSTORE PUSH32 0x416C726561647920766F74656420696E207468697320656C656374696F6E0000 PUSH1 0x44 DUP3 ADD MSTORE PUSH1 0x64 ADD PUSH2 0x354 JUMP JUMPDEST PUSH0 DUP4 GT DUP1 ISZERO PUSH2 0x13E5 JUMPI POP PUSH0 DUP5 DUP2 MSTORE PUSH1 0x20 DUP2 SWAP1 MSTORE PUSH1 0x40 SWAP1 KECCAK256 PUSH1 0x6 ADD SLOAD DUP4 GT ISZERO JUMPDEST PUSH2 0x1431 JUMPI PUSH1 0x40 MLOAD PUSH3 0x461BCD PUSH1 0xE5 SHL DUP2 MSTORE PUSH1 0x20 PUSH1 0x4 DUP3 ADD MSTORE PUSH1 0x11 PUSH1 0x24 DUP3 ADD MSTORE PUSH32 0x496E76616C69642063616E646964617465000000000000000000000000000000 PUSH1 0x44 DUP3 ADD MSTORE PUSH1 0x64 ADD PUSH2 0x354 JUMP JUMPDEST PUSH0 DUP5 DUP2 MSTORE PUSH1 0x2 PUSH1 0x20 SWAP1 DUP2 MSTORE PUSH1 0x40 DUP1 DUP4 KECCAK256 CALLER DUP1 DUP6 MSTORE SWAP1 DUP4 MSTORE DUP2 DUP5 KECCAK256 DUP1 SLOAD PUSH1 0xFF NOT AND PUSH1 0x1 SWAP1 DUP2 OR SWAP1 SWAP2 SSTORE DUP9 DUP6 MSTORE PUSH1 0x3 DUP5 MSTORE DUP3 DUP6 KECCAK256 SWAP2 DUP6 MSTORE SWAP1 DUP4 MSTORE DUP2 DUP5 KECCAK256 DUP8 SWAP1 SSTORE DUP8 DUP5 MSTORE DUP3 MSTORE DUP1 DUP4 KECCAK256 DUP7 DUP5 MSTORE SWAP1 SWAP2 MSTORE DUP2 KECCAK256 PUSH1 0x4 ADD DUP1 SLOAD SWAP2 PUSH2 0x148E DUP4 PUSH2 0x20EF JUMP JUMPDEST SWAP1 SWAP2 SSTORE POP POP PUSH0 DUP5 DUP2 MSTORE PUSH1 0x20 DUP2 SWAP1 MSTORE PUSH1 0x40 DUP2 KECCAK256 PUSH1 0x7 ADD DUP1 SLOAD SWAP2 PUSH2 0x14AF DUP4 PUSH2 0x20EF JUMP JUMPDEST SWAP1 SWAP2 SSTORE POP POP PUSH1 0x40 MLOAD CALLER SWAP1 DUP5 SWAP1 DUP7 SWAP1 PUSH32 0xD91ECAFCCF238642DCCD41161308B3EEBE62A12BC5819DAF5164780C221EC95B SWAP1 PUSH0 SWAP1 LOG4 POP POP POP POP JUMP JUMPDEST PUSH1 0x5 SLOAD PUSH1 0x1 PUSH1 0x1 PUSH1 0xA0 SHL SUB AND CALLER EQ PUSH2 0x154D JUMPI PUSH1 0x40 MLOAD PUSH3 0x461BCD PUSH1 0xE5 SHL DUP2 MSTORE PUSH1 0x20 PUSH1 0x4 DUP3 ADD MSTORE PUSH1 0x22 PUSH1 0x24 DUP3 ADD MSTORE PUSH32 0x4F6E6C792061646D696E2063616E20706572666F726D20746869732061637469 PUSH1 0x44 DUP3 ADD MSTORE PUSH2 0x37B7 PUSH1 0xF1 SHL PUSH1 0x64 DUP3 ADD MSTORE PUSH1 0x84 ADD PUSH2 0x354 JUMP JUMPDEST DUP4 PUSH0 DUP2 GT DUP1 ISZERO PUSH2 0x155F JUMPI POP PUSH1 0x4 SLOAD DUP2 GT ISZERO JUMPDEST PUSH2 0x15A5 JUMPI PUSH1 0x40 MLOAD PUSH3 0x461BCD PUSH1 0xE5 SHL DUP2 MSTORE PUSH1 0x20 PUSH1 0x4 DUP3 ADD MSTORE PUSH1 0x17 PUSH1 0x24 DUP3 ADD MSTORE PUSH23 0x115B1958DD1A5BDB88191BD95CC81B9BDD08195E1A5CDD PUSH1 0x4A SHL PUSH1 0x44 DUP3 ADD MSTORE PUSH1 0x64 ADD PUSH2 0x354 JUMP JUMPDEST PUSH0 DUP6 DUP2 MSTORE PUSH1 0x20 DUP2 SWAP1 MSTORE PUSH1 0x40 SWAP1 KECCAK256 PUSH1 0x3 DUP2 ADD SLOAD TIMESTAMP LT PUSH2 0x162B JUMPI PUSH1 0x40 MLOAD PUSH3 0x461BCD PUSH1 0xE5 SHL DUP2 MSTORE PUSH1 0x20 PUSH1 0x4 DUP3 ADD MSTORE PUSH1 0x2B PUSH1 0x24 DUP3 ADD MSTORE PUSH32 0x43616E6E6F74206164642063616E6469646174657320616674657220656C6563 PUSH1 0x44 DUP3 ADD MSTORE PUSH32 0x74696F6E20737461727473000000000000000000000000000000000000000000 PUSH1 0x64 DUP3 ADD MSTORE PUSH1 0x84 ADD PUSH2 0x354 JUMP JUMPDEST PUSH1 0x6 DUP2 ADD DUP1 SLOAD SWAP1 PUSH0 PUSH2 0x163C DUP4 PUSH2 0x20EF JUMP JUMPDEST SWAP1 SWAP2 SSTORE POP POP PUSH1 0x40 DUP1 MLOAD PUSH1 0xA0 DUP2 ADD DUP3 MSTORE PUSH1 0x6 DUP4 ADD SLOAD DUP1 DUP3 MSTORE PUSH1 0x20 DUP1 DUP4 ADD DUP10 DUP2 MSTORE DUP4 DUP6 ADD DUP10 SWAP1 MSTORE PUSH1 0x60 DUP5 ADD DUP9 SWAP1 MSTORE PUSH0 PUSH1 0x80 DUP6 ADD DUP2 SWAP1 MSTORE DUP12 DUP2 MSTORE PUSH1 0x1 DUP1 DUP5 MSTORE DUP7 DUP3 KECCAK256 SWAP5 DUP3 MSTORE SWAP4 SWAP1 SWAP3 MSTORE SWAP4 SWAP1 KECCAK256 DUP3 MLOAD DUP2 SSTORE SWAP3 MLOAD SWAP2 SWAP3 SWAP2 SWAP1 DUP3 ADD SWAP1 PUSH2 0x169C SWAP1 DUP3 PUSH2 0x2153 JUMP JUMPDEST POP PUSH1 0x40 DUP3 ADD MLOAD PUSH1 0x2 DUP3 ADD SWAP1 PUSH2 0x16B1 SWAP1 DUP3 PUSH2 0x2153 JUMP JUMPDEST POP PUSH1 0x60 DUP3 ADD MLOAD PUSH1 0x3 DUP3 ADD SWAP1 PUSH2 0x16C6 SWAP1 DUP3 PUSH2 0x2153 JUMP JUMPDEST POP PUSH1 0x80 DUP3 ADD MLOAD DUP2 PUSH1 0x4 ADD SSTORE SWAP1 POP POP DUP6 PUSH32 0x503CFCEB0FB2178C5FB47FF394C816E4075ABC8066C3DCB16D08A76847EE6E16 DUP3 PUSH1 0x6 ADD SLOAD DUP8 DUP8 PUSH1 0x40 MLOAD PUSH2 0x170C SWAP4 SWAP3 SWAP2 SWAP1 PUSH2 0x2237 JUMP JUMPDEST PUSH1 0x40 MLOAD DUP1 SWAP2 SUB SWAP1 LOG2 POP POP POP POP POP POP JUMP JUMPDEST PUSH1 0x5 SLOAD PUSH1 0x1 PUSH1 0x1 PUSH1 0xA0 SHL SUB AND CALLER EQ PUSH2 0x1781 JUMPI PUSH1 0x40 MLOAD PUSH3 0x461BCD PUSH1 0xE5 SHL DUP2 MSTORE PUSH1 0x20 PUSH1 0x4 DUP3 ADD MSTORE PUSH1 0x22 PUSH1 0x24 DUP3 ADD MSTORE PUSH32 0x4F6E6C792061646D696E2063616E20706572666F726D20746869732061637469 PUSH1 0x44 DUP3 ADD MSTORE PUSH2 0x37B7 PUSH1 0xF1 SHL PUSH1 0x64 DUP3 ADD MSTORE PUSH1 0x84 ADD PUSH2 0x354 JUMP JUMPDEST DUP2 PUSH0 DUP2 GT DUP1 ISZERO PUSH2 0x1793 JUMPI POP PUSH1 0x4 SLOAD DUP2 GT ISZERO JUMPDEST PUSH2 0x17D9 JUMPI PUSH1 0x40 MLOAD PUSH3 0x461BCD PUSH1 0xE5 SHL DUP2 MSTORE PUSH1 0x20 PUSH1 0x4 DUP3 ADD MSTORE PUSH1 0x17 PUSH1 0x24 DUP3 ADD MSTORE PUSH23 0x115B1958DD1A5BDB88191BD95CC81B9BDD08195E1A5CDD PUSH1 0x4A SHL PUSH1 0x44 DUP3 ADD MSTORE PUSH1 0x64 ADD PUSH2 0x354 JUMP JUMPDEST PUSH0 DUP4 DUP2 MSTORE PUSH1 0x20 DUP2 DUP2 MSTORE PUSH1 0x40 SWAP2 DUP3 SWAP1 KECCAK256 PUSH1 0x5 ADD DUP1 SLOAD PUSH1 0xFF NOT AND DUP6 ISZERO ISZERO SWAP1 DUP2 OR SWAP1 SWAP2 SSTORE SWAP2 MLOAD SWAP2 DUP3 MSTORE DUP5 SWAP2 PUSH32 0x550243FF1A84CC99F7F82BFD2E29380F33523CA72CDE0783141C25ED8F4DEDE3 SWAP2 ADD PUSH1 0x40 MLOAD DUP1 SWAP2 SUB SWAP1 LOG2 POP POP POP JUMP JUMPDEST PUSH1 0x60 DUP2 PUSH0 DUP2 GT DUP1 ISZERO PUSH2 0x1845 JUMPI POP PUSH1 0x4 SLOAD DUP2 GT ISZERO JUMPDEST PUSH2 0x188B JUMPI PUSH1 0x40 MLOAD PUSH3 0x461BCD PUSH1 0xE5 SHL DUP2 MSTORE PUSH1 0x20 PUSH1 0x4 DUP3 ADD MSTORE PUSH1 0x17 PUSH1 0x24 DUP3 ADD MSTORE PUSH23 0x115B1958DD1A5BDB88191BD95CC81B9BDD08195E1A5CDD PUSH1 0x4A SHL PUSH1 0x44 DUP3 ADD MSTORE PUSH1 0x64 ADD PUSH2 0x354 JUMP JUMPDEST PUSH0 DUP4 DUP2 MSTORE PUSH1 0x20 DUP2 SWAP1 MSTORE PUSH1 0x40 DUP2 KECCAK256 PUSH1 0x6 ADD SLOAD SWAP1 DUP2 PUSH8 0xFFFFFFFFFFFFFFFF DUP2 GT ISZERO PUSH2 0x18B6 JUMPI PUSH2 0x18B6 PUSH2 0x1DB3 JUMP JUMPDEST PUSH1 0x40 MLOAD SWAP1 DUP1 DUP3 MSTORE DUP1 PUSH1 0x20 MUL PUSH1 0x20 ADD DUP3 ADD PUSH1 0x40 MSTORE DUP1 ISZERO PUSH2 0x18DF JUMPI DUP2 PUSH1 0x20 ADD PUSH1 0x20 DUP3 MUL DUP1 CALLDATASIZE DUP4 CALLDATACOPY ADD SWAP1 POP JUMPDEST POP SWAP1 POP PUSH1 0x1 JUMPDEST DUP3 DUP2 GT PUSH2 0x1943 JUMPI PUSH0 DUP7 DUP2 MSTORE PUSH1 0x1 PUSH1 0x20 DUP2 DUP2 MSTORE PUSH1 0x40 DUP1 DUP5 KECCAK256 DUP6 DUP6 MSTORE SWAP1 SWAP2 MSTORE SWAP1 SWAP2 KECCAK256 PUSH1 0x4 ADD SLOAD SWAP1 DUP4 SWAP1 PUSH2 0x1916 SWAP1 DUP5 PUSH2 0x226B JUMP JUMPDEST DUP2 MLOAD DUP2 LT PUSH2 0x1926 JUMPI PUSH2 0x1926 PUSH2 0x2284 JUMP JUMPDEST PUSH1 0x20 SWAP1 DUP2 MUL SWAP2 SWAP1 SWAP2 ADD ADD MSTORE DUP1 PUSH2 0x193B DUP2 PUSH2 0x20EF JUMP JUMPDEST SWAP2 POP POP PUSH2 0x18E5 JUMP JUMPDEST POP SWAP3 POP POP JUMPDEST POP SWAP2 SWAP1 POP JUMP JUMPDEST PUSH1 0x60 DUP2 PUSH0 DUP2 GT DUP1 ISZERO PUSH2 0x1962 JUMPI POP PUSH1 0x4 SLOAD DUP2 GT ISZERO JUMPDEST PUSH2 0x19A8 JUMPI PUSH1 0x40 MLOAD PUSH3 0x461BCD PUSH1 0xE5 SHL DUP2 MSTORE PUSH1 0x20 PUSH1 0x4 DUP3 ADD MSTORE PUSH1 0x17 PUSH1 0x24 DUP3 ADD MSTORE PUSH23 0x115B1958DD1A5BDB88191BD95CC81B9BDD08195E1A5CDD PUSH1 0x4A SHL PUSH1 0x44 DUP3 ADD MSTORE PUSH1 0x64 ADD PUSH2 0x354 JUMP JUMPDEST PUSH0 DUP4 DUP2 MSTORE PUSH1 0x20 DUP2 SWAP1 MSTORE PUSH1 0x40 DUP2 KECCAK256 PUSH1 0x6 ADD SLOAD SWAP1 DUP2 PUSH8 0xFFFFFFFFFFFFFFFF DUP2 GT ISZERO PUSH2 0x19D3 JUMPI PUSH2 0x19D3 PUSH2 0x1DB3 JUMP JUMPDEST PUSH1 0x40 MLOAD SWAP1 DUP1 DUP3 MSTORE DUP1 PUSH1 0x20 MUL PUSH1 0x20 ADD DUP3 ADD PUSH1 0x40 MSTORE DUP1 ISZERO PUSH2 0x1A34 JUMPI DUP2 PUSH1 0x20 ADD JUMPDEST PUSH2 0x1A21 PUSH1 0x40 MLOAD DUP1 PUSH1 0xA0 ADD PUSH1 0x40 MSTORE DUP1 PUSH0 DUP2 MSTORE PUSH1 0x20 ADD PUSH1 0x60 DUP2 MSTORE PUSH1 0x20 ADD PUSH1 0x60 DUP2 MSTORE PUSH1 0x20 ADD PUSH1 0x60 DUP2 MSTORE PUSH1 0x20 ADD PUSH0 DUP2 MSTORE POP SWAP1 JUMP JUMPDEST DUP2 MSTORE PUSH1 0x20 ADD SWAP1 PUSH1 0x1 SWAP1 SUB SWAP1 DUP2 PUSH2 0x19F1 JUMPI SWAP1 POP JUMPDEST POP SWAP1 POP PUSH1 0x1 JUMPDEST DUP3 DUP2 GT PUSH2 0x1943 JUMPI PUSH0 DUP7 DUP2 MSTORE PUSH1 0x1 PUSH1 0x20 DUP2 DUP2 MSTORE PUSH1 0x40 DUP1 DUP5 KECCAK256 DUP6 DUP6 MSTORE DUP3 MSTORE SWAP3 DUP4 SWAP1 KECCAK256 DUP4 MLOAD PUSH1 0xA0 DUP2 ADD SWAP1 SWAP5 MSTORE DUP1 SLOAD DUP5 MSTORE SWAP2 DUP3 ADD DUP1 SLOAD SWAP2 DUP5 ADD SWAP2 PUSH2 0x1A79 SWAP1 PUSH2 0x20A9 JUMP JUMPDEST DUP1 PUSH1 0x1F ADD PUSH1 0x20 DUP1 SWAP2 DIV MUL PUSH1 0x20 ADD PUSH1 0x40 MLOAD SWAP1 DUP2 ADD PUSH1 0x40 MSTORE DUP1 SWAP3 SWAP2 SWAP1 DUP2 DUP2 MSTORE PUSH1 0x20 ADD DUP3 DUP1 SLOAD PUSH2 0x1AA5 SWAP1 PUSH2 0x20A9 JUMP JUMPDEST DUP1 ISZERO PUSH2 0x1AF0 JUMPI DUP1 PUSH1 0x1F LT PUSH2 0x1AC7 JUMPI PUSH2 0x100 DUP1 DUP4 SLOAD DIV MUL DUP4 MSTORE SWAP2 PUSH1 0x20 ADD SWAP2 PUSH2 0x1AF0 JUMP JUMPDEST DUP3 ADD SWAP2 SWAP1 PUSH0 MSTORE PUSH1 0x20 PUSH0 KECCAK256 SWAP1 JUMPDEST DUP2 SLOAD DUP2 MSTORE SWAP1 PUSH1 0x1 ADD SWAP1 PUSH1 0x20 ADD DUP1 DUP4 GT PUSH2 0x1AD3 JUMPI DUP3 SWAP1 SUB PUSH1 0x1F AND DUP3 ADD SWAP2 JUMPDEST POP POP POP POP POP DUP2 MSTORE PUSH1 0x20 ADD PUSH1 0x2 DUP3 ADD DUP1 SLOAD PUSH2 0x1B09 SWAP1 PUSH2 0x20A9 JUMP JUMPDEST DUP1 PUSH1 0x1F ADD PUSH1 0x20 DUP1 SWAP2 DIV MUL PUSH1 0x20 ADD PUSH1 0x40 MLOAD SWAP1 DUP2 ADD PUSH1 0x40 MSTORE DUP1 SWAP3 SWAP2 SWAP1 DUP2 DUP2 MSTORE PUSH1 0x20 ADD DUP3 DUP1 SLOAD PUSH2 0x1B35 SWAP1 PUSH2 0x20A9 JUMP JUMPDEST DUP1 ISZERO PUSH2 0x1B80 JUMPI DUP1 PUSH1 0x1F LT PUSH2 0x1B57 JUMPI PUSH2 0x100 DUP1 DUP4 SLOAD DIV MUL DUP4 MSTORE SWAP2 PUSH1 0x20 ADD SWAP2 PUSH2 0x1B80 JUMP JUMPDEST DUP3 ADD SWAP2 SWAP1 PUSH0 MSTORE PUSH1 0x20 PUSH0 KECCAK256 SWAP1 JUMPDEST DUP2 SLOAD DUP2 MSTORE SWAP1 PUSH1 0x1 ADD SWAP1 PUSH1 0x20 ADD DUP1 DUP4 GT PUSH2 0x1B63 JUMPI DUP3 SWAP1 SUB PUSH1 0x1F AND DUP3 ADD SWAP2 JUMPDEST POP POP POP POP POP DUP2 MSTORE PUSH1 0x20 ADD PUSH1 0x3 DUP3 ADD DUP1 SLOAD PUSH2 0x1B99 SWAP1 PUSH2 0x20A9 JUMP JUMPDEST DUP1 PUSH1 0x1F ADD PUSH1 0x20 DUP1 SWAP2 DIV MUL PUSH1 0x20 ADD PUSH1 0x40 MLOAD SWAP1 DUP2 ADD PUSH1 0x40 MSTORE DUP1 SWAP3 SWAP2 SWAP1 DUP2 DUP2 MSTORE PUSH1 0x20 ADD DUP3 DUP1 SLOAD PUSH2 0x1BC5 SWAP1 PUSH2 0x20A9 JUMP JUMPDEST DUP1 ISZERO PUSH2 0x1C10 JUMPI DUP1 PUSH1 0x1F LT PUSH2 0x1BE7 JUMPI PUSH2 0x100 DUP1 DUP4 SLOAD DIV MUL DUP4 MSTORE SWAP2 PUSH1 0x20 ADD SWAP2 PUSH2 0x1C10 JUMP JUMPDEST DUP3 ADD SWAP2 SWAP1 PUSH0 MSTORE PUSH1 0x20 PUSH0 KECCAK256 SWAP1 JUMPDEST DUP2 SLOAD DUP2 MSTORE SWAP1 PUSH1 0x1 ADD SWAP1 PUSH1 0x20 ADD DUP1 DUP4 GT PUSH2 0x1BF3 JUMPI DUP3 SWAP1 SUB PUSH1 0x1F AND DUP3 ADD SWAP2 JUMPDEST POP POP POP POP POP DUP2 MSTORE PUSH1 0x20 ADD PUSH1 0x4 DUP3 ADD SLOAD DUP2 MSTORE POP POP DUP3 PUSH1 0x1 DUP4 PUSH2 0x1C31 SWAP2 SWAP1 PUSH2 0x226B JUMP JUMPDEST DUP2 MLOAD DUP2 LT PUSH2 0x1C41 JUMPI PUSH2 0x1C41 PUSH2 0x2284 JUMP JUMPDEST PUSH1 0x20 MUL PUSH1 0x20 ADD ADD DUP2 SWAP1 MSTORE POP DUP1 DUP1 PUSH2 0x1C57 SWAP1 PUSH2 0x20EF JUMP JUMPDEST SWAP2 POP POP PUSH2 0x1A3A JUMP JUMPDEST DUP1 CALLDATALOAD PUSH1 0x1 PUSH1 0x1 PUSH1 0xA0 SHL SUB DUP2 AND DUP2 EQ PUSH2 0x1C75 JUMPI PUSH0 DUP1 REVERT JUMPDEST SWAP2 SWAP1 POP JUMP JUMPDEST PUSH0 DUP1 PUSH1 0x40 DUP4 DUP6 SUB SLT ISZERO PUSH2 0x1C8B JUMPI PUSH0 DUP1 REVERT JUMPDEST DUP3 CALLDATALOAD SWAP2 POP PUSH2 0x1C9B PUSH1 0x20 DUP5 ADD PUSH2 0x1C5F JUMP JUMPDEST SWAP1 POP SWAP3 POP SWAP3 SWAP1 POP JUMP JUMPDEST PUSH0 DUP1 PUSH1 0x40 DUP4 DUP6 SUB SLT ISZERO PUSH2 0x1CB5 JUMPI PUSH0 DUP1 REVERT JUMPDEST POP POP DUP1 CALLDATALOAD SWAP3 PUSH1 0x20 SWAP1 SWAP2 ADD CALLDATALOAD SWAP2 POP JUMP JUMPDEST PUSH0 DUP2 MLOAD DUP1 DUP5 MSTORE DUP1 PUSH1 0x20 DUP5 ADD PUSH1 0x20 DUP7 ADD MCOPY PUSH0 PUSH1 0x20 DUP3 DUP7 ADD ADD MSTORE PUSH1 0x20 PUSH1 0x1F NOT PUSH1 0x1F DUP4 ADD AND DUP6 ADD ADD SWAP2 POP POP SWAP3 SWAP2 POP POP JUMP JUMPDEST DUP6 DUP2 MSTORE PUSH1 0xA0 PUSH1 0x20 DUP3 ADD MSTORE PUSH0 PUSH2 0x1D0A PUSH1 0xA0 DUP4 ADD DUP8 PUSH2 0x1CC4 JUMP JUMPDEST DUP3 DUP2 SUB PUSH1 0x40 DUP5 ADD MSTORE PUSH2 0x1D1C DUP2 DUP8 PUSH2 0x1CC4 JUMP JUMPDEST SWAP1 POP DUP3 DUP2 SUB PUSH1 0x60 DUP5 ADD MSTORE PUSH2 0x1D30 DUP2 DUP7 PUSH2 0x1CC4 JUMP JUMPDEST SWAP2 POP POP DUP3 PUSH1 0x80 DUP4 ADD MSTORE SWAP7 SWAP6 POP POP POP POP POP POP JUMP JUMPDEST PUSH0 PUSH1 0x20 DUP3 DUP5 SUB SLT ISZERO PUSH2 0x1D53 JUMPI PUSH0 DUP1 REVERT JUMPDEST POP CALLDATALOAD SWAP2 SWAP1 POP JUMP JUMPDEST PUSH0 PUSH2 0x100 DUP11 DUP4 MSTORE DUP1 PUSH1 0x20 DUP5 ADD MSTORE PUSH2 0x1D73 DUP2 DUP5 ADD DUP12 PUSH2 0x1CC4 JUMP JUMPDEST SWAP1 POP DUP3 DUP2 SUB PUSH1 0x40 DUP5 ADD MSTORE PUSH2 0x1D87 DUP2 DUP11 PUSH2 0x1CC4 JUMP JUMPDEST PUSH1 0x60 DUP5 ADD SWAP9 SWAP1 SWAP9 MSTORE POP POP PUSH1 0x80 DUP2 ADD SWAP5 SWAP1 SWAP5 MSTORE SWAP2 ISZERO ISZERO PUSH1 0xA0 DUP5 ADD MSTORE PUSH1 0xC0 DUP4 ADD MSTORE PUSH1 0xE0 SWAP1 SWAP2 ADD MSTORE SWAP4 SWAP3 POP POP POP JUMP JUMPDEST PUSH4 0x4E487B71 PUSH1 0xE0 SHL PUSH0 MSTORE PUSH1 0x41 PUSH1 0x4 MSTORE PUSH1 0x24 PUSH0 REVERT JUMPDEST PUSH0 DUP3 PUSH1 0x1F DUP4 ADD SLT PUSH2 0x1DD6 JUMPI PUSH0 DUP1 REVERT JUMPDEST DUP2 CALLDATALOAD PUSH8 0xFFFFFFFFFFFFFFFF DUP1 DUP3 GT ISZERO PUSH2 0x1DF1 JUMPI PUSH2 0x1DF1 PUSH2 0x1DB3 JUMP JUMPDEST PUSH1 0x40 MLOAD PUSH1 0x1F DUP4 ADD PUSH1 0x1F NOT SWAP1 DUP2 AND PUSH1 0x3F ADD AND DUP2 ADD SWAP1 DUP3 DUP3 GT DUP2 DUP4 LT OR ISZERO PUSH2 0x1E19 JUMPI PUSH2 0x1E19 PUSH2 0x1DB3 JUMP JUMPDEST DUP2 PUSH1 0x40 MSTORE DUP4 DUP2 MSTORE DUP7 PUSH1 0x20 DUP6 DUP9 ADD ADD GT ISZERO PUSH2 0x1E31 JUMPI PUSH0 DUP1 REVERT JUMPDEST DUP4 PUSH1 0x20 DUP8 ADD PUSH1 0x20 DUP4 ADD CALLDATACOPY PUSH0 PUSH1 0x20 DUP6 DUP4 ADD ADD MSTORE DUP1 SWAP5 POP POP POP POP POP SWAP3 SWAP2 POP POP JUMP JUMPDEST PUSH0 DUP1 PUSH0 DUP1 PUSH1 0x80 DUP6 DUP8 SUB SLT ISZERO PUSH2 0x1E63 JUMPI PUSH0 DUP1 REVERT JUMPDEST DUP5 CALLDATALOAD PUSH8 0xFFFFFFFFFFFFFFFF DUP1 DUP3 GT ISZERO PUSH2 0x1E7A JUMPI PUSH0 DUP1 REVERT JUMPDEST PUSH2 0x1E86 DUP9 DUP4 DUP10 ADD PUSH2 0x1DC7 JUMP JUMPDEST SWAP6 POP PUSH1 0x20 DUP8 ADD CALLDATALOAD SWAP2 POP DUP1 DUP3 GT ISZERO PUSH2 0x1E9B JUMPI PUSH0 DUP1 REVERT JUMPDEST POP PUSH2 0x1EA8 DUP8 DUP3 DUP9 ADD PUSH2 0x1DC7 JUMP JUMPDEST SWAP5 SWAP8 SWAP5 SWAP7 POP POP POP POP PUSH1 0x40 DUP4 ADD CALLDATALOAD SWAP3 PUSH1 0x60 ADD CALLDATALOAD SWAP2 SWAP1 POP JUMP JUMPDEST PUSH0 DUP1 PUSH0 PUSH1 0x60 DUP5 DUP7 SUB SLT ISZERO PUSH2 0x1ED1 JUMPI PUSH0 DUP1 REVERT JUMPDEST DUP4 CALLDATALOAD SWAP3 POP PUSH1 0x20 DUP5 ADD CALLDATALOAD SWAP2 POP PUSH2 0x1EE8 PUSH1 0x40 DUP6 ADD PUSH2 0x1C5F JUMP JUMPDEST SWAP1 POP SWAP3 POP SWAP3 POP SWAP3 JUMP JUMPDEST PUSH0 DUP1 PUSH0 DUP1 PUSH1 0x80 DUP6 DUP8 SUB SLT ISZERO PUSH2 0x1F04 JUMPI PUSH0 DUP1 REVERT JUMPDEST DUP5 CALLDATALOAD SWAP4 POP PUSH1 0x20 DUP6 ADD CALLDATALOAD PUSH8 0xFFFFFFFFFFFFFFFF DUP1 DUP3 GT ISZERO PUSH2 0x1F22 JUMPI PUSH0 DUP1 REVERT JUMPDEST PUSH2 0x1F2E DUP9 DUP4 DUP10 ADD PUSH2 0x1DC7 JUMP JUMPDEST SWAP5 POP PUSH1 0x40 DUP8 ADD CALLDATALOAD SWAP2 POP DUP1 DUP3 GT ISZERO PUSH2 0x1F43 JUMPI PUSH0 DUP1 REVERT JUMPDEST PUSH2 0x1F4F DUP9 DUP4 DUP10 ADD PUSH2 0x1DC7 JUMP JUMPDEST SWAP4 POP PUSH1 0x60 DUP8 ADD CALLDATALOAD SWAP2 POP DUP1 DUP3 GT ISZERO PUSH2 0x1F64 JUMPI PUSH0 DUP1 REVERT JUMPDEST POP PUSH2 0x1F71 DUP8 DUP3 DUP9 ADD PUSH2 0x1DC7 JUMP JUMPDEST SWAP2 POP POP SWAP3 SWAP6 SWAP2 SWAP5 POP SWAP3 POP JUMP JUMPDEST PUSH0 DUP1 PUSH1 0x40 DUP4 DUP6 SUB SLT ISZERO PUSH2 0x1F8E JUMPI PUSH0 DUP1 REVERT JUMPDEST DUP3 CALLDATALOAD SWAP2 POP PUSH1 0x20 DUP4 ADD CALLDATALOAD DUP1 ISZERO ISZERO DUP2 EQ PUSH2 0x1FA4 JUMPI PUSH0 DUP1 REVERT JUMPDEST DUP1 SWAP2 POP POP SWAP3 POP SWAP3 SWAP1 POP JUMP JUMPDEST PUSH1 0x20 DUP1 DUP3 MSTORE DUP3 MLOAD DUP3 DUP3 ADD DUP2 SWAP1 MSTORE PUSH0 SWAP2 SWAP1 DUP5 DUP3 ADD SWAP1 PUSH1 0x40 DUP6 ADD SWAP1 DUP5 JUMPDEST DUP2 DUP2 LT ISZERO PUSH2 0x1FE6 JUMPI DUP4 MLOAD DUP4 MSTORE SWAP3 DUP5 ADD SWAP3 SWAP2 DUP5 ADD SWAP2 PUSH1 0x1 ADD PUSH2 0x1FCA JUMP JUMPDEST POP SWAP1 SWAP7 SWAP6 POP POP POP POP POP POP JUMP JUMPDEST PUSH0 PUSH1 0x20 DUP1 DUP4 ADD DUP2 DUP5 MSTORE DUP1 DUP6 MLOAD DUP1 DUP4 MSTORE PUSH1 0x40 SWAP3 POP PUSH1 0x40 DUP7 ADD SWAP2 POP PUSH1 0x40 DUP2 PUSH1 0x5 SHL DUP8 ADD ADD DUP5 DUP9 ADD PUSH0 JUMPDEST DUP4 DUP2 LT ISZERO PUSH2 0x209B JUMPI PUSH1 0x3F NOT DUP10 DUP5 SUB ADD DUP6 MSTORE DUP2 MLOAD PUSH1 0xA0 DUP2 MLOAD DUP6 MSTORE DUP9 DUP3 ADD MLOAD DUP2 DUP11 DUP8 ADD MSTORE PUSH2 0x2047 DUP3 DUP8 ADD DUP3 PUSH2 0x1CC4 JUMP JUMPDEST SWAP2 POP POP DUP8 DUP3 ADD MLOAD DUP6 DUP3 SUB DUP10 DUP8 ADD MSTORE PUSH2 0x205F DUP3 DUP3 PUSH2 0x1CC4 JUMP JUMPDEST SWAP2 POP POP PUSH1 0x60 DUP1 DUP4 ADD MLOAD DUP7 DUP4 SUB DUP3 DUP9 ADD MSTORE PUSH2 0x2079 DUP4 DUP3 PUSH2 0x1CC4 JUMP JUMPDEST PUSH1 0x80 SWAP5 DUP6 ADD MLOAD SWAP8 SWAP1 SWAP5 ADD SWAP7 SWAP1 SWAP7 MSTORE POP POP SWAP5 DUP8 ADD SWAP5 SWAP3 POP SWAP1 DUP7 ADD SWAP1 PUSH1 0x1 ADD PUSH2 0x2019 JUMP JUMPDEST POP SWAP1 SWAP9 SWAP8 POP POP POP POP POP POP POP POP JUMP JUMPDEST PUSH1 0x1 DUP2 DUP2 SHR SWAP1 DUP3 AND DUP1 PUSH2 0x20BD JUMPI PUSH1 0x7F DUP3 AND SWAP2 POP JUMPDEST PUSH1 0x20 DUP3 LT DUP2 SUB PUSH2 0x1948 JUMPI PUSH4 0x4E487B71 PUSH1 0xE0 SHL PUSH0 MSTORE PUSH1 0x22 PUSH1 0x4 MSTORE PUSH1 0x24 PUSH0 REVERT JUMPDEST PUSH4 0x4E487B71 PUSH1 0xE0 SHL PUSH0 MSTORE PUSH1 0x11 PUSH1 0x4 MSTORE PUSH1 0x24 PUSH0 REVERT JUMPDEST PUSH0 PUSH1 0x1 DUP3 ADD PUSH2 0x2100 JUMPI PUSH2 0x2100 PUSH2 0x20DB JUMP JUMPDEST POP PUSH1 0x1 ADD SWAP1 JUMP JUMPDEST PUSH1 0x1F DUP3 GT ISZERO PUSH2 0x214E JUMPI DUP1 PUSH0 MSTORE PUSH1 0x20 PUSH0 KECCAK256 PUSH1 0x1F DUP5 ADD PUSH1 0x5 SHR DUP2 ADD PUSH1 0x20 DUP6 LT ISZERO PUSH2 0x212C JUMPI POP DUP1 JUMPDEST PUSH1 0x1F DUP5 ADD PUSH1 0x5 SHR DUP3 ADD SWAP2 POP JUMPDEST DUP2 DUP2 LT ISZERO PUSH2 0x214B JUMPI PUSH0 DUP2 SSTORE PUSH1 0x1 ADD PUSH2 0x2138 JUMP JUMPDEST POP POP JUMPDEST POP POP POP JUMP JUMPDEST DUP2 MLOAD PUSH8 0xFFFFFFFFFFFFFFFF DUP2 GT ISZERO PUSH2 0x216D JUMPI PUSH2 0x216D PUSH2 0x1DB3 JUMP JUMPDEST PUSH2 0x2181 DUP2 PUSH2 0x217B DUP5 SLOAD PUSH2 0x20A9 JUMP JUMPDEST DUP5 PUSH2 0x2107 JUMP JUMPDEST PUSH1 0x20 DUP1 PUSH1 0x1F DUP4 GT PUSH1 0x1 DUP2 EQ PUSH2 0x21B4 JUMPI PUSH0 DUP5 ISZERO PUSH2 0x219D JUMPI POP DUP6 DUP4 ADD MLOAD JUMPDEST PUSH0 NOT PUSH1 0x3 DUP7 SWAP1 SHL SHR NOT AND PUSH1 0x1 DUP6 SWAP1 SHL OR DUP6 SSTORE PUSH2 0x220B JUMP JUMPDEST PUSH0 DUP6 DUP2 MSTORE PUSH1 0x20 DUP2 KECCAK256 PUSH1 0x1F NOT DUP7 AND SWAP2 JUMPDEST DUP3 DUP2 LT ISZERO PUSH2 0x21E2 JUMPI DUP9 DUP7 ADD MLOAD DUP3 SSTORE SWAP5 DUP5 ADD SWAP5 PUSH1 0x1 SWAP1 SWAP2 ADD SWAP1 DUP5 ADD PUSH2 0x21C3 JUMP JUMPDEST POP DUP6 DUP3 LT ISZERO PUSH2 0x21FF JUMPI DUP8 DUP6 ADD MLOAD PUSH0 NOT PUSH1 0x3 DUP9 SWAP1 SHL PUSH1 0xF8 AND SHR NOT AND DUP2 SSTORE JUMPDEST POP POP PUSH1 0x1 DUP5 PUSH1 0x1 SHL ADD DUP6 SSTORE JUMPDEST POP POP POP POP POP POP JUMP JUMPDEST PUSH1 0x60 DUP2 MSTORE PUSH0 PUSH2 0x2225 PUSH1 0x60 DUP4 ADD DUP7 PUSH2 0x1CC4 JUMP JUMPDEST PUSH1 0x20 DUP4 ADD SWAP5 SWAP1 SWAP5 MSTORE POP PUSH1 0x40 ADD MSTORE SWAP2 SWAP1 POP JUMP JUMPDEST DUP4 DUP2 MSTORE PUSH1 0x60 PUSH1 0x20 DUP3 ADD MSTORE PUSH0 PUSH2 0x224F PUSH1 0x60 DUP4 ADD DUP6 PUSH2 0x1CC4 JUMP JUMPDEST DUP3 DUP2 SUB PUSH1 0x40 DUP5 ADD MSTORE PUSH2 0x2261 DUP2 DUP6 PUSH2 0x1CC4 JUMP JUMPDEST SWAP7 SWAP6 POP POP POP POP POP POP JUMP JUMPDEST DUP2 DUP2 SUB DUP2 DUP2 GT ISZERO PUSH2 0x227E JUMPI PUSH2 0x227E PUSH2 0x20DB JUMP JUMPDEST SWAP3 SWAP2 POP POP JUMP JUMPDEST PUSH4 0x4E487B71 PUSH1 0xE0 SHL PUSH0 MSTORE PUSH1 0x32 PUSH1 0x4 MSTORE PUSH1 0x24 PUSH0 REVERT INVALID LOG2 PUSH5 0x6970667358 0x22 SLT KECCAK256 0x27 CODECOPY RETURN ISZERO SELFBALANCE 0xCE 0xD DUP15 0x4C 0xA6 0xB3 JUMP PUSH20 0x91CABD819B35A2E56CF8F00552AC443FD85F7264 PUSH20 0x6F6C634300081900330000000000000000000000 "
    },
    "gasEstimates": {
      "creation": {
        "codeDepositCost": "1782000",
        "executionCost": "26110",
        "totalCost": "1808110"
      },
      "external": {
        "addCandidate(uint256,string,string,string)": "infinite",
        "admin()": "2402",
        "candidates(uint256,uint256)": "infinite",
        "createElection(string,string,uint256,uint256)": "infinite",
        "electionCount()": "2306",
        "elections(uint256)": "infinite",
        "getAllCandidates(uint256)": "infinite",
        "getCandidate(uint256,uint256)": "infinite",
        "getElection(uint256)": "infinite",
        "getElectionResults(uint256)": "infinite",
        "getVoterChoice(uint256,address)": "7106",
        "hasVoted(uint256,address)": "2672",
        "hasVotedInElection(uint256,address)": "4850",
        "setElectionStatus(uint256,bool)": "30410",
        "vote(uint256,uint256)": "infinite",
        "voteFor(uint256,uint256,address)": "infinite",
        "voterChoice(uint256,address)": "2693"
      }
    },
    "methodIdentifiers": {
      "addCandidate(uint256,string,string,string)": "ce4a2743",
      "admin()": "f851a440",
      "candidates(uint256,uint256)": "7de14242",
      "createElection(string,string,uint256,uint256)": "7ad36e84",
      "electionCount()": "997d2830",
      "elections(uint256)": "5e6fef01",
      "getAllCandidates(uint256)": "f9ded646",
      "getCandidate(uint256,uint256)": "4bd46448",
      "getElection(uint256)": "9d710777",
      "getElectionResults(uint256)": "e8ededa6",
      "getVoterChoice(uint256,address)": "0eac27f4",
      "hasVoted(uint256,address)": "43859632",
      "hasVotedInElection(uint256,address)": "5bc261fa",
      "setElectionStatus(uint256,bool)": "d5617ecf",
      "vote(uint256,uint256)": "b384abef",
      "voteFor(uint256,uint256,address)": "aaecca52",
      "voterChoice(uint256,address)": "51477141"
    }
  },
  "storageLayout": {
    "storage": [
      {
        "astId": 35,
        "contract": "Voting.sol:Voting",
        "label": "elections",
        "offset": 0,
        "slot": "0",
        "type": "t_mapping(t_uint256,t_struct(Election)30_storage)"
      },
      {
        "astId": 42,
        "contract": "Voting.sol:Voting",
        "label": "candidates",
        "offset": 0,
        "slot": "1",
        "type": "t_mapping(t_uint256,t_mapping(t_uint256,t_struct(Candidate)13_storage))"
      },
      {
        "astId": 48,
        "contract": "Voting.sol:Voting",
        "label": "hasVoted",
        "offset": 0,
        "slot": "2",
        "type": "t_mapping(t_uint256,t_mapping(t_address,t_bool))"
      },
      {
        "astId": 54,
        "contract": "Voting.sol:Voting",
        "label": "voterChoice",
        "offset": 0,
        "slot": "3",
        "type": "t_mapping(t_uint256,t_mapping(t_address,t_uint256))"
      },
      {
        "astId": 56,
        "contract": "Voting.sol:Voting",
        "label": "electionCount",
        "offset": 0,
        "slot": "4",
        "type": "t_uint256"
      },
      {
        "astId": 58,
        "contract": "Voting.sol:Voting",
        "label": "admin",
        "offset": 0,
        "slot": "5",
        "type": "t_address"
      }
    ],
    "types": {
      "t_address": {
        "encoding": "inplace",
        "label": "address",
        "numberOfBytes": "20"
      },
      "t_bool": {
        "encoding": "inplace",
        "label": "bool",
        "numberOfBytes": "1"
      },
      "t_mapping(t_address,t_bool)": {
        "encoding": "mapping",
        "key": "t_address",
        "label": "mapping(address => bool)",
        "numberOfBytes": "32",
        "value": "t_bool"
      },
      "t_mapping(t_address,t_uint256)": {
        "encoding": "mapping",
        "key": "t_address",
        "label": "mapping(address => uint256)",
        "numberOfBytes": "32",
        "value": "t_uint256"
      },
      "t_mapping(t_uint256,t_mapping(t_address,t_bool))": {
        "encoding": "mapping",
        "key": "t_uint256",
        "label": "mapping(uint256 => mapping(address => bool))",
        "numberOfBytes": "32",
        "value": "t_mapping(t_address,t_bool)"
      },
      "t_mapping(t_uint256,t_mapping(t_address,t_uint256))": {
        "encoding": "mapping",
        "key": "t_uint256",
        "label": "mapping(uint256 => mapping(address => uint256))",
        "numberOfBytes": "32",
        "value": "t_mapping(t_address,t_uint256)"
      },
      "t_mapping(t_uint256,t_mapping(t_uint256,t_struct(Candidate)13_storage))": {
        "encoding": "mapping",
        "key": "t_uint256",
        "label": "mapping(uint256 => mapping(uint256 => struct Voting.Candidate))",
        "numberOfBytes": "32",
        "value": "t_mapping(t_uint256,t_struct(Candidate)13_storage)"
      },
      "t_mapping(t_uint256,t_struct(Candidate)13_storage)": {
        "encoding": "mapping",
        "key": "t_uint256",
        "label": "mapping(uint256 => struct Voting.Candidate)",
        "numberOfBytes": "32",
        "value": "t_struct(Candidate)13_storage"
      },
      "t_mapping(t_uint256,t_struct(Election)30_storage)": {
        "encoding": "mapping",
        "key": "t_uint256",
        "label": "mapping(uint256 => struct Voting.Election)",
        "numberOfBytes": "32",
        "value": "t_struct(Election)30_storage"
      },
      "t_string_storage": {
        "encoding": "bytes",
        "label": "string",
        "numberOfBytes": "32"
      },
      "t_struct(Candidate)13_storage": {
        "encoding": "inplace",
        "label": "struct Voting.Candidate",
        "members": [
          {
            "astId": 4,
            "contract": "Voting.sol:Voting",
            "label": "id",
            "offset": 0,
            "slot": "0",
            "type": "t_uint256"
          },
          {
            "astId": 6,
            "contract": "Voting.sol:Voting",
            "label": "name",
            "offset": 0,
            "slot": "1",
            "type": "t_string_storage"
          },
          {
            "astId": 8,
            "contract": "Voting.sol:Voting",
            "label": "party",
            "offset": 0,
            "slot": "2",
            "type": "t_string_storage"
          },
          {
            "astId": 10,
            "contract": "Voting.sol:Voting",
            "label": "imageUrl",
            "offset": 0,
            "slot": "3",
            "type": "t_string_storage"
          },
          {
            "astId": 12,
            "contract": "Voting.sol:Voting",
            "label": "voteCount",
            "offset": 0,
            "slot": "4",
            "type": "t_uint256"
          }
        ],
        "numberOfBytes": "160"
      },
      "t_struct(Election)30_storage": {
        "encoding": "inplace",
        "label": "struct Voting.Election",
        "members": [
          {
            "astId": 15,
            "contract": "Voting.sol:Voting",
            "label": "id",
            "offset": 0,
            "slot": "0",
            "type": "t_uint256"
          },
          {
            "astId": 17,
            "contract": "Voting.sol:Voting",
            "label": "name",
            "offset": 0,
            "slot": "1",
            "type": "t_string_storage"
          },
          {
            "astId": 19,
            "contract": "Voting.sol:Voting",
            "label": "description",
            "offset": 0,
            "slot": "2",
            "type": "t_string_storage"
          },
          {
            "astId": 21,
            "contract": "Voting.sol:Voting",
            "label": "startTime",
            "offset": 0,
            "slot": "3",
            "type": "t_uint256"
          },
          {
            "astId": 23,
            "contract": "Voting.sol:Voting",
            "label": "endTime",
            "offset": 0,
            "slot": "4",
            "type": "t_uint256"
          },
          {
            "astId": 25,
            "contract": "Voting.sol:Voting",
            "label": "isActive",
            "offset": 0,
            "slot": "5",
            "type": "t_bool"
          },
          {
            "astId": 27,
            "contract": "Voting.sol:Voting",
            "label": "candidateCount",
            "offset": 0,
            "slot": "6",
            "type": "t_uint256"
          },
          {
            "astId": 29,
            "contract": "Voting.sol:Voting",
            "label": "totalVotes",
            "offset": 0,
            "slot": "7",
            "type": "t_uint256"
          }
        ],
        "numberOfBytes": "256"
      },
      "t_uint256": {
        "encoding": "inplace",
        "label": "uint256",
        "numberOfBytes": "32"
      }
    }
  },
  "userdoc": {
    "kind": "user",
    "methods": {},
    "version": 1
  }
}